:100000000C9435010C9466010C9466010C94660105
:100010000C9466010C9466010C9466010C946601C4
:100020000C9466010C9466010C9466010C946601B4
:100030000C9466010C9466010C9466010C946601A4
:100040000C9466010C9466010C9466010C94660194
:100050000C9466010C9466010C9466010C942E06B7
:100060000C9466010C94A2060C9478060C9466011C
:100070000C9466010C9466010C9466010C94660164
:100080000C9466010C9466010C9466010C94660154
:100090000C9466010C9466010C9466010C94660144
:1000A0000C9466010C9466010C9466010C94660134
:1000B0000C9466010C9466010C9466010C94660124
:1000C0000C9466010C9466010C9466010C94660114
:1000D0000C9466010C9466010C9466010C94660104
:1000E0000C9466010C94B4010C94E1010C94780317
:1000F0000C94CD010C94B8010C94D3010C94F30131
:100100000C94E9010C940F030C94EF010C94D806A5
:100110000C9432030C94C9010C94BC010C94AE01F4
:100120000C94EE010C94C0010C94E5010C94C301F5
:100130000C94C5030C94E2020C941E030C94DB0196
:100140000C94D7010C9440030000210024002700E8
:100150002A002D00300033000101000004010701D6
:100160000A0100002200250028002B002E0031008B
:10017000340002010000050108010B01000020000D
:100180002300260029002C002F003200000100006F
:10019000030106010901050505050705080808080A
:1001A000020202020A0A080804040404010101010F
:1001B000010101010303030303030303040707070A
:1001C0000C0C0C0C0C0C0C0C0202020206060606AF
:1001D000060606060B0B0B0B0B0B0B0B010210207C
:1001E000200808102040102040800201020108046D
:1001F0000201010204081020408080402010080401
:100200000201800402018040201008040201080459
:10021000020101020408102040800102040810209D
:10022000408000000A0B02090C0D0E0807030401B0
:1002300000000000000000000000000000000000BE
:10024000000000000000000000000000000012118B
:10025000100000000000000000000000000000008E
:100260000000000000000000D80611241FBECFEFE0
:10027000D1E2DEBFCDBF00E00CBF12E1A0E0B2E0F2
:10028000E6E3F4E200E00BBF02C007900D92A23655
:10029000B107D9F724E1A2E6B2E101C01D92A23173
:1002A000B207E1F711E0C5E3D1E000E006C0219715
:1002B0000109802FFE010E94FD11C433D10780E0A7
:1002C0000807A9F70E948C070C9419120C940000DF
:1002D000EDE1F3E1A089B18982E08C93A485B58535
:1002E0001C92A685B7858FEC8C93108EA489B58956
:1002F00086E08C93A289B3898C9180618C93A289CA
:10030000B3898C9188608C93A289B3898C91806821
:100310008C930288F389E02D80818F7D80830895FE
:100320008150823108F05AC0E82FF0E08827E45667
:10033000FE4F8F4F0C94FD11BC01C001AE01B40102
:10034000B801EE01C301C901CD01D301D701DB0121
:10035000E101E501EE01E901EF01F3018091800087
:100360008F77809380000895809180008F7DF9CFF2
:1003700080918000877FF5CF84B58F7784BD089505
:1003800084B58F7DFBCF8091B0008F778093B000D4
:1003900008958091B0008F7DF9CF809190008F7784
:1003A000809390000895809190008F7DF9CF809187
:1003B0009000877FF5CF8091A0008F778093A00079
:1003C00008958091A0008F7DF9CF8091A000877F54
:1003D000F5CF809120018F7780932001089580913F
:1003E00020018F7DF9CF80912001877FF5CFCF93BA
:1003F000DF93282F30E0F901EE5DFD4F8491F90184
:10040000E452FE4FD491F901EA56FE4FC491CC2339
:10041000A1F081110E949001EC2FF0E0EE0FFF1F80
:10042000E458FE4FA591B491EC91ED2381E090E06A
:1004300009F480E0DF91CF91089580E090E0FACF59
:100440001F93CF93DF93282F30E0F901EE5DFD4F2E
:100450008491F901E452FE4FD491F901EA56FE4F1E
:10046000C491CC23A9F0162F81110E949001EC2F8A
:10047000F0E0EE0FFF1FEE59FE4FA591B4918FB73C
:10048000F894EC91111108C0D095DE23DC938FBF56
:10049000DF91CF911F910895DE2BF8CFCF93DF939B
:1004A00090E0FC01E452FE4F24918A569E4FFC01DD
:1004B00084918823D1F090E0880F991FFC01E85BBC
:1004C000FE4FA591B491FC01EE59FE4FC591D49118
:1004D00061110EC09FB7F8948C91E22FE0958E23A6
:1004E0008C932881E223E8839FBFDF91CF91089509
:1004F0008FB7F894EC91E22BEC938FBFF6CF3FB718
:10050000F8948091191390911A13A0911B13B09134
:100510001C1326B5A89B05C02F3F19F00196A11DFD
:10052000B11D3FBFBA2FA92F982F8827BC01CD013D
:10053000620F711D811D911D42E0660F771F881F9C
:10054000991F4A95D1F708958F929F92AF92BF92CB
:10055000CF92DF92EF92FF924B015C010E947F02EB
:100560006B017C010E947F026C197D098E099F0935
:10057000683E734081059105A8F321E0821A910835
:10058000A108B10888EEC80E83E0D81EE11CF11C5A
:1005900081149104A104B10429F7FF90EF90DF903A
:1005A000CF90BF90AF909F908F9008952FB7F89401
:1005B0006091151370911613809117139091181371
:1005C0002FBF0895AF92BF92CF92DF92EF92FF922A
:1005D0000F931F93CF93DF936C017B018B01040F6B
:1005E000151FEB015E01AE18BF08C017D10759F007
:1005F0006991D601ED91FC910190F081E02DC60149
:100600001995892B79F7C501DF91CF911F910F9132
:10061000FF90EF90DF90CF90BF90AF900895FC01D6
:10062000538D448D252F30E0842F90E0821B930B57
:10063000541710F0CF96089501970895FC01918DFD
:10064000828D981761F0A28DAE0FBF2FB11D5D9600
:100650008C91928D9F5F9F73928F90E008958FEFA2
:100660009FEF0895FC01918D828D981731F0828D56
:10067000E80FF11D858D90E008958FEF9FEF0895AD
:10068000FC01918D228D892F90E0805C9F4F821B11
:1006900091098F73992708958DE193E10E9440039A
:1006A00021E0892B09F420E0822F0895FC01A48D1C
:1006B000A80FB92FB11DA35ABF4F2C91848D90E084
:1006C00001968F739927848FA689B7892C93A08967
:1006D000B1898C91837080648C93938D848D9813F1
:1006E00006C00288F389E02D80818F7D8083089584
:1006F000EF92FF920F931F93CF93DF93EC0181E072
:10070000888F9B8D8C8D98131AC0E889F989808118
:1007100085FF15C09FB7F894EE89FF896083E8894B
:10072000F98980818370806480839FBF81E090E03D
:10073000DF91CF911F910F91FF90EF900895F62ECA
:100740000B8D10E00F5F1F4F0F731127E02E8C8D64
:100750008E110CC00FB607FCFACFE889F9898081A9
:1007600085FFF5CFCE010E945603F1CFEB8DEC0F44
:10077000FD2FF11DE35AFF4FF0829FB7F8940B8FC6
:10078000EA89FB8980818062CFCFCF93DF93EC0130
:10079000888D8823B9F0AA89BB89E889F9898C9169
:1007A00085FD03C0808186FD0DC00FB607FCF7CF25
:1007B0008C9185FFF2CF808185FFEDCFCE010E9425
:1007C0005603E9CFDF91CF91089580E090E0892B27
:1007D00029F00E944C0381110E94000080E090E00B
:1007E000892B49F080E090E0892B29F00E940000DD
:1007F00081110E94000080E090E0892B49F080E0A8
:1008000090E0892B29F00E94000081110E940000D5
:1008100080E090E0892B49F080E090E0892B29F07E
:100820000E94000081110C9400000895CF93DF9383
:10083000C82FDEE0D60F60E08D2F0E942002CA5E36
:1008400061E08C2F0E94200261E070E080E090E087
:100850000E94A40261E08D2F0E94200260E08C2F94
:10086000DF91CF910C942002CF92DF92EF92FF9212
:100870000F931F93CF93DF931F921F92CDB7DEB7D5
:1008800069834A83880F991F0091101410911114E5
:10089000000F111FEAEBF3E19F012A5B33412017A0
:1008A000310714F41192F8CF2981FC01E654FC4E73
:1008B00021838A81808360E080910E140E9420024F
:1008C0001016110604F501501109F801E654FC4E0A
:1008D000E080D0900C14C0900A1488E0F82E6E2DA1
:1008E000661F6627661F8C2D0E942002EE0C61E0B9
:1008F0008D2D0E94200260E08D2D0E942002FA942E
:10090000F110EDCFDDCF61E080910E140F900F90CC
:10091000DF91CF911F910F91FF90EF90DF90CF90DB
:100920000C942002EF92FF920F931F93CF937C01C0
:100930008C0183E0000F111F8A95E1F706531C4ECE
:10094000C1E0F80111928F0140E06C2FC7010E94B5
:100950003404CF5FC930A9F7CF911F910F91FF9059
:10096000EF9008952091101430911114121613066F
:10097000FCF488309105E1F068307105C9F020E899
:1009800030E002C0359527956A95E2F7FC01E65400
:10099000FC4E5089442349F0252B208B61E0680FE1
:1009A000408990E080E00C94340420952523F5CF15
:1009B0000895AF92BF92CF92DF92EF92FF920F9382
:1009C0001F93CF93DF9332E6E32E32E1F32E10E054
:1009D00000E0D0E0C0E041E0F701EC0FFD1F8081B6
:1009E000813009F040E0BE01C8010E94B2042196A6
:1009F000C830D10581F70F5F1F4F80E1E80EF11C71
:100A00000830110531F793E0E92EF12C23ECA22EEA
:100A1000B12C82E6C82E82E1D82E10E000E0C8E0BA
:100A2000D0E0F601EC0FFD1F8081813001F5B801A7
:100A3000CE0108970E9416042196C031D10589F78E
:100A40000F5F1F4F80E1C80ED11C0830110539F728
:100A500081E0E81AF108E9F6DF91CF911F910F913B
:100A6000FF90EF90DF90CF90BF90AF900895C501B9
:100A70000197F1F7E1CFCF92DF92EF92FF920F93C0
:100A80001F93CF93DF932EE4E22E22E0F22E670134
:100A900010E000E0D0E0C0E0FE01EE0FFF1FEC0D23
:100AA000FD1D41E080819181019709F040E0BE0188
:100AB000C8010E94B2042196C830D10569F70F5FC2
:100AC0001F4F80E2C80ED11C0830110519F710E045
:100AD00000E0C8E0D0E0FE01EE0FFF1FEE0DFF1DAD
:100AE00080819181019729F4B801CE0108970E9475
:100AF00016042196C031D10571F70F5F1F4F80E2B8
:100B0000E80EF11C0830110521F7DF91CF911F91FC
:100B10000F91FF90EF90DF90CF900895FC0101902E
:100B20000020E9F73197AF01481B590BBC018DE15B
:100B300093E10C94E2028F929F92AF92BF920F9337
:100B40001F93CF93DF93CDB7DEB7A1970FB6F8947D
:100B5000DEBF0FBECDBF19A2423008F44AE08E01BD
:100B60000F5D1F4F842E912CB12CA12CA501940157
:100B70000E94B811E62FB901CA01EA30F4F4E05D31
:100B8000D801EE938D01232B242B252B79F790E0B0
:100B900080E0109719F0CD010E948E05A1960FB646
:100BA000F894DEBF0FBECDBFDF91CF911F910F91A3
:100BB000BF90AF909F908F900895E95CE1CFCF9266
:100BC000DF92EF92FF92CF93DF936C01990FEE08C3
:100BD000FF08F7FE1FC06DE28DE193E10E947803EC
:100BE000EC0166277727CB016C197D098E099F09D7
:100BF0004AE00E949B05C80FD91F88E392E10E943A
:100C00008E058C0F9D1FDF91CF91FF90EF90DF90AD
:100C1000CF9008954AE0C701B6010E949B05EC0100
:100C2000ECCFCF93DF930E948E05EC0188E392E135
:100C30000E948E058C0F9D1FDF91CF910895CF9359
:100C4000DF934AE00E949B05EC0188E392E10E9459
:100C50008E058C0F9D1FDF91CF9108951F920F92EB
:100C60000FB60F9211242F933F938F939F93AF93BF
:100C7000BF938091151390911613A0911713B09103
:100C800018133091141323E0230F2D3758F50196D4
:100C9000A11DB11D20931413809315139093161367
:100CA000A0931713B09318138091191390911A13EE
:100CB000A0911B13B0911C130196A11DB11D80932F
:100CC000191390931A13A0931B13B0931C13BF9185
:100CD000AF919F918F913F912F910F900FBE0F90E9
:100CE0001F90189526E8230F0296A11DB11DD2CFA3
:100CF0001F920F920FB60F9211240BB60F922F93E3
:100D00003F934F935F936F937F938F939F93AF9393
:100D1000BF93EF93FF938DE193E10E945603FF9100
:100D2000EF91BF91AF919F918F917F916F915F9163
:100D30004F913F912F910F900BBE0F900FBE0F90D0
:100D40001F9018951F920F920FB60F9211240BB699
:100D50000F922F938F939F93EF93FF93E0912D1317
:100D6000F0912E138081E0913313F091341382FDC2
:100D70001DC09081809136138F5F8F732091371340
:100D8000821741F0E0913613F0E0E35EFC4E958F60
:100D900080933613FF91EF919F918F912F910F9038
:100DA0000BBE0F900FBE0F901F9018958081F2CF51
:100DB000CF93DF931092201310921F1388EE93E0CD
:100DC000A0E0B0E08093211390932213A09323130B
:100DD000B09324138AE292E190931E1380931D1323
:100DE00085EC90E090932A138093291384EC90E093
:100DF00090932C1380932B1380EC90E090932E1300
:100E000080932D1381EC90E09093301380932F13F7
:100E100082EC90E0909332138093311386EC90E053
:100E20009093341380933313109236131092371328
:100E30001092381310923913C7E0D0E0D0930B14FE
:100E4000C0930A1486E090E090930D1480930C14E4
:100E500085E090E090930F1480930E1481E090E071
:100E6000909311148093101461E087E00E944E0269
:100E700061E080910C140E944E0261E080910E149A
:100E80000E944E0261E080910E140E942002D093D5
:100E90000B14C0930A14EAECF3E1119284E1EA30F6
:100EA000F807D9F7D0E0C0E08091101490911114A8
:100EB000C817D90774F540E06FE0CE010E943404F2
:100EC0008091101490911114C817D9072CF447E0A1
:100ED0006BE0CE010E94340440E069E0CE010E9444
:100EE00034048091101490911114C817D9071CF480
:100EF000CE010E9492048091101490911114C81791
:100F0000D9072CF440E06CE0CE010E943404219615
:100F1000CBCFDF91CF910895789484B5826084BD62
:100F200084B5816084BD85B5826085BD85B58160ED
:100F300085BD80916E00816080936E00109281006B
:100F40008091810082608093810080918100816026
:100F500080938100809180008160809380008091E7
:100F6000B10084608093B1008091B0008160809373
:100F7000B0008091910082608093910080919100F7
:100F800081608093910080919000816080939000B7
:100F90008091A10082608093A1008091A100816076
:100FA0008093A1008091A00081608093A000809137
:100FB00021018260809321018091210181608093D1
:100FC00021018091200181608093200180917A002D
:100FD000846080937A0080917A00826080937A00A6
:100FE00080917A00816080937A0080917A00806895
:100FF00080937A001092C100809110149091111486
:101000001816190634F441E06CE090E080E00E948C
:10101000340480911014909111141816190634F4A8
:1010200048E06AE090E080E00E943404CEE061E0B5
:101030008C2F0E944E02CF5FC631C9F761E08C2F22
:101040000E944E02CF5FCE31C9F7CEE061E08C2F17
:101050000E942002CF5FC631C9F760E08C2F0E944A
:101060002002CF5FCE31C9F760E08DE00E944E02D2
:1010700060E08CE00E944E0260E08BE00E944E0235
:1010800060E08AE00E944E02CBEC8C2EC7E09C2EE2
:10109000D3E04D2E512C612C712C17E0212E312CD8
:1010A0008091121390911313892B09F083C10E9430
:1010B00068018DE00E94F701EC018AE00E94F701CF
:1010C0008C010E94D602C090EE12D090EF12E090F8
:1010D000F012F090F1126C197D098E099F096639A2
:1010E000710581059105C4F00E94D6026093EE124D
:1010F0007093EF128093F0129093F112809102029C
:10110000909103022091000230910102820F931FFF
:1011100090930302809302028091E8129091E91269
:10112000C817D90751F00E94D6026093E412709359
:10113000E5128093E6129093E7128091FE1290914F
:10114000FF120817190759F10E94D6026093021383
:1011500070930313809304139093051301301105CA
:1011600071F48BE392E10E9411060E94D602609313
:10117000FA127093FB128093FC129093FD12209749
:1011800071F484E492E10E9411060E94D6026093F9
:10119000F6127093F7128093F8129093F9120E944E
:1011A000D602C090E412D090E512E090E612F090E2
:1011B000E7126C197D098E099F096333710581055A
:1011C0009105D8F08091E2129091E312C817D907E7
:1011D000A1F0D093E312C093E212C130D10569F4BB
:1011E0008091000290910102019709F0BAC18FEF3E
:1011F0009FEF90930102809300020E94D602C0905C
:10120000FA12D090FB12E090FC12F090FD126C19D3
:101210007D098E099F090E941F066091FA12709144
:10122000FB128091FC129091FD120E941F066091AA
:10123000F6127091F7128091F8129091F9120E94B3
:101240001F068DE492E10E941106C090FA12D09020
:10125000FB12E090FC12F090FD128091F61290913A
:10126000F712A091F812B091F912C816D906EA0641
:10127000FB0601F101151105E9F48C199D09AE0970
:10128000BF09803D9740A105B105A0F064E670E07C
:1012900080E090E00E94A402C092F612D092F71271
:1012A000E092F812F092F91281E090E0909313131B
:1012B000809312131093FF120093FE12D093E91241
:1012C000C093E812E0900202F0900302E2E6F2E13D
:1012D0008F01D0E0C0E04BE730E020E04C9FC00140
:1012E0004D9F900D1124BC01625B7C4F6B01C701C7
:1012F000820F931F6BE770E00E94E911D601A80FDF
:10130000B91F8C91D801A20FB31F813009F02EC1F3
:101310008C932F5F3F4F2031310549F72196005FB5
:101320001F4FC830D105C1F678E7E716F104C4F0C5
:1013300082E692E130E020E0DC01A20FB31F1C92B4
:101340002F5F3F4F20313105B9F74096A2E1823E31
:101350009A0781F78CEF9FEF90930302809302022C
:1013600080910202909103028B3F9F4FACF490E07A
:1013700080E0DF01A80FB91F1C9201968031910512
:10138000C1F7709622E1E23EF20789F769E670E064
:10139000709303026093020262E070E080E090E0EC
:1013A0000E94A4020E94D90461E070E080E090E015
:1013B0000E94A40280911213909113138130910521
:1013C00009F00EC182E692E142EE52E130E020E007
:1013D000FC01E20FF31F10822F5F3F4F20313105D8
:1013E000B9F740964817590789F76AE070E080E03E
:1013F00090E00E94A4020E943B058CE00E94F7014D
:101400008C0180911013909111130817190751F056
:101410000E94D60260930C1370930D1380930E13E9
:1014200090930F130E94D602C0900C13D0900D130E
:10143000E0900E13F0900F136C197D098E099F092F
:10144000633371058105910508F4C3C080910A13C7
:1014500090910B130817190709F4BBC010930B13D5
:1014600000930A130130110509F0B3C083E090E046
:10147000909349028093480280E592E10E94110610
:1014800080910813909109130E94DF0583E090E09A
:101490000E94DF058CE592E10E94110680910813FD
:1014A000909109130E94DF0583E090E00E94DF0520
:1014B000809108139091091303970CF059C00E9472
:1014C000D602611571058105910511F00E947D110B
:1014D0000E942E112FE030E040E050E00E94861183
:1014E0006B015B01C4010197F1F70E94D6026F5FA7
:1014F0007F4F8F4F9F4F11F00E947D110E942E1140
:10150000F4013197F1F7E601CC0FDD1FCC0FDD1FA1
:10151000C85FDD4F2A813B81232B51F6A301920145
:101520000E9486116B017C01AFEFCA1ADA0AEA0A3F
:10153000FA0ADB82CA8280910813909109130196FE
:1015400090930913809308130E94DF05C5010E9440
:10155000DF05C6010E94DF0588E392E10E948E0547
:10156000A7CFD0930102C093000247CE1C92D1CEE8
:10157000E8E0F2E068E472E0C1E0428153814115A5
:101580005105B9F030E020E02417350794F4C1018B
:10159000821B930BA4E0880F991FAA95E1F78E593F
:1015A0009D4EA081B181A80FB91FCC932F5F3F4FF3
:1015B000EBCF34966E177F0701F764E670E080E0AA
:1015C00090E00E94A40282E090E090931313809335
:1015D000121310931113009310130E94E50360CDB2
:1015E0008230910509F0B9C18DE00E94F701EC014C
:1015F000E090EA12F090EB120091EC121091ED12D3
:10160000F701B4E0EE0FFF1FBA95E1F7EE59FD4E7A
:10161000E00FF11F1082BFEFEB1AFB0AC70124E0B5
:10162000880F991F2A95E1F78E599D4EFC01E00F16
:10163000F11F10820F5F1F4F800F911FDC011C9262
:1016400012820E94D6022091EE123091EF12409148
:10165000F0125091F112621B730B840B950B683CD6
:101660007105810591050CF48AC00E94D602609331
:10167000EE127093EF128093F0129093F1120031FA
:101680001105D9F11093ED120093EC12809106022E
:10169000909107028F3F980709F471C0BC016F5FFA
:1016A0007F4F2091040230910502FB01A4E0EE0F70
:1016B000FF1FAA95E1F7EE59FD4EE20FF31F40819F
:1016C000413009F048C0A901440F551F440F551F70
:1016D000FA01E85FFD4F02811381F901EE59FD4ED9
:1016E00070E060E070976017710784F4DF01A05824
:1016F000BF4F1C926F5F7F4FF5CF1092ED1210928B
:10170000EC12F092EB12E092EA12C0CF485F5D4F0C
:10171000FA0113821282409108135091091341502B
:101720005109509309134093081344E0880F991FFF
:101730004A95E1F78E599D4E820F931FDC011C9252
:101740008FEF9FEF9093050280930402909307021E
:101750008093060214C0AC0104E0440F551F0A95A3
:10176000E1F74E595D4E240F351FD9011C920797A2
:101770003CF7709307026093060281E080838091BA
:10178000E8129091E912C817D90751F00E94D602C9
:101790006093E4127093E5128093E6129093E7123F
:1017A0000E94D6022091EC123091ED12A091EA1223
:1017B000B091EB12C090E412D090E512E090E612E6
:1017C000F090E712AB01BC014C195D096E097F096D
:1017D000433351056105710588F14091E212509142
:1017E000E312C417D50751F1D093E312C093E2126C
:1017F000C130D10519F540910402509105024F3FC7
:101800005F4FE1F440910602509107024F3F5F4F56
:10181000A9F43093050220930402FD013296F0935F
:101820000702E093060214E0EE0FFF1F1A95E1F79E
:10183000EE59FD4EE20FF31F41E04083D093E912D1
:10184000C093E812AD01D4E0440F551FDA95E1F7DB
:101850004E585D4EF9013296E40FF51F60816130FC
:1018600009F068C0CD0102979093EB128093EA12C1
:10187000225031093093ED122093EC1280914802EE
:101880009091490201979093490280934802892BD5
:1018900071F481E090E090931313809312131092EF
:1018A000ED121092EC121092EB121092EA120E94BA
:1018B000D9048AE00E94F701EC018091061390910F
:1018C0000713C817D90751F00E94D602609302137C
:1018D0007093031380930413909305130E94D60210
:1018E00000910213109103132091041330910513FA
:1018F000601B710B820B930B63337105810591059E
:10190000A0F08091001390910113C817D90769F0D6
:10191000D0930113C0930013C130D10531F483E09B
:1019200090E09093131380931213D0930713C093F6
:10193000061353CEC4E0AA0FBB1FCA95E1F7AE59F8
:10194000BD4EA20FB31F81E08C93DA01A20FB31F2B
:101950008C9311968C938083AACF039709F03DCE88
:101960008091480290914902009709F04DC1C091C1
:10197000F212D091F312C431D10508F02FC1E6E282
:10198000CE2EE7E0DE2E5601F12CE12C08E010E02F
:10199000F801EE0FFF1FEA0DFB1D41E080819181F0
:1019A000019709F040E0B80168507109C7010E9431
:1019B000B2040F5F1F4F0031110551F72FEFE21AEC
:1019C000F20A60E2A60EB11C78E0E716F104F1F627
:1019D000F12CE12C10E000E0F801EE0FFF1FEC0D00
:1019E000FD1D80819181019721F4B701C8010E94FA
:1019F00016040F5F1F4F0830110571F78FEFE81ABB
:101A0000F80A90E2C90ED11CA8E0EA16F10411F719
:101A10002196D093F312C093F2120E94680164E6FB
:101A200070E080E090E00E94A4028AE00E94F7014A
:101A3000EC018091FE129091FF12C817D907E1F0D6
:101A40000E94D602609302137093031380930413D1
:101A500090930513C130D10509F0A2C38BE392E145
:101A60000E9411060E94D6026093FA127093FB1234
:101A70008093FC129093FD120E94D60200910213F3
:101A8000109103132091041330910513601B710B07
:101A9000820B930B633371058105910558F080919A
:101AA000F4129091F512C817D90721F0D093F512CE
:101AB000C093F4120E94D6020091FA121091FB1208
:101AC0002091FC123091FD12601B710B820B930B65
:101AD0000E941F066091FA127091FB128091FC1215
:101AE0009091FD120E941F066091F6127091F712FC
:101AF0008091F8129091F9120E941F068DE492E1F4
:101B00000E941106C090FA12D090FB12E090FC12D5
:101B1000F090FD128091F6129091F712A091F812B8
:101B2000B091F912C816D906EA06FB0609F451C0AD
:101B3000209709F04EC08C199D09AE09BF09883B5A
:101B40009B40A105B10510F1E8E0F2E088E492E0E5
:101B50001382128234968E179F07D1F710920913C1
:101B600010920813C092F612D092F712E092F81277
:101B7000F092F91264E670E080E090E00E94A40226
:101B800081E090E090931313809312138091F612EA
:101B90009091F712A091F812B091F912805D9740E0
:101BA000A109B1098C199D09AE09BF09883E93406E
:101BB000A105B10570F482E090E090931313809337
:101BC0001213C092F612D092F712E092F812F0922D
:101BD000F912D093FF12C093FE12FFCCCE014497AE
:101BE0000A9718F40E94D90413CF0E943B058091F4
:101BF000101490911114181619060CF00ECF90E0E5
:101C000080E00E94920409CF8130910509F043C021
:101C100056E2E52E58E0F52E670110E000E0D0E036
:101C2000C0E0FE01EE0FFF1FEC0DFD1D41E08081C5
:101C30009181019709F040E0BE01C8010E94B20401
:101C40002196C830D10569F70F5F1F4FB0E2CB0E68
:101C5000D11C0830110519F710E000E0C8E0D0E011
:101C6000FE01EE0FFF1FEE0DFF1D80819181019798
:101C700029F4B801CE0108970E9416042196C031BC
:101C8000D10571F70F5F1F4FE0E2EE0EF11C083037
:101C9000110521F7C2CE8230910509F043C026E23A
:101CA000E22E29E0F22E670110E000E0D0E0C0E073
:101CB000FE01EE0FFF1FEC0DFD1D41E080819181C3
:101CC000019709F040E0BE01C8010E94B2042196CC
:101CD000C830D10569F70F5F1F4FF0E2CF0ED11C5E
:101CE0000830110519F710E000E0C8E0D0E0FE016F
:101CF000EE0FFF1FEE0DFF1D80819181019729F4EA
:101D0000B801CE0108970E9416042196C031D10572
:101D100071F70F5F1F4F20E2E20EF11C0830110532
:101D200021F77BCE8330910509F043C0C6E2EC2E4B
:101D3000CAE0FC2E670110E000E0D0E0C0E0FE0148
:101D4000EE0FFF1FEC0DFD1D41E080819181019799
:101D500009F040E0BE01C8010E94B2042196C830DB
:101D6000D10569F70F5F1F4F60E2C60ED11C083026
:101D7000110519F710E000E0C8E0D0E0FE01EE0F19
:101D8000FF1FEE0DFF1D80819181019729F4B8019D
:101D9000CE0108970E9416042196C031D10571F733
:101DA0000F5F1F4F70E2E70EF11C0830110521F79D
:101DB00034CE8430910509F044C0E6E2EE2EEBE02B
:101DC000FE2E670110E000E0C8E0D0E0FE01EE0F5B
:101DD000FF1FEC0DFD1D41E080819181019709F00D
:101DE00040E0BE0168507109C8010E94B20421960A
:101DF000C031D10559F70F5F1F4F80E2C80ED11CCB
:101E00000830110509F710E000E0D0E0C0E0FE0165
:101E1000EE0FFF1FEE0DFF1D80819181019721F4D0
:101E2000B801CE010E9416042196C830D10579F779
:101E30000F5F1F4F90E2E90EF11C0830110529F7E2
:101E4000ECCD8530910509F044C056E2E52E5CE00A
:101E5000F52E670110E000E0C8E0D0E0FE01EE0FD3
:101E6000FF1FEC0DFD1D41E080819181019709F07C
:101E700040E0BE0168507109C8010E94B204219679
:101E8000C031D10559F70F5F1F4FA0E2CA0ED11C18
:101E90000830110509F710E000E0D0E0C0E0FE01D5
:101EA000EE0FFF1FEE0DFF1D80819181019721F440
:101EB000B801CE010E9416042196C830D10579F7E9
:101EC0000F5F1F4FB0E2EB0EF11C0830110529F730
:101ED000A4CD8630910509F044C026E2E22E2DE023
:101EE000F22E670110E000E0C8E0D0E0FE01EE0F46
:101EF000FF1FEC0DFD1D41E080819181019709F0EC
:101F000040E0BE0168507109C8010E94B2042196E8
:101F1000C031D10559F70F5F1F4FE0E2CE0ED11C43
:101F20000830110509F710E000E0D0E0C0E0FE0144
:101F3000EE0FFF1FEE0DFF1D80819181019721F4AF
:101F4000B801CE010E9416042196C830D10579F758
:101F50000F5F1F4FF0E2EF0EF11C0830110529F75B
:101F60005CCD8730910509F044C0C6E2EC2ECEE08E
:101F7000FC2E670110E000E0C8E0D0E0FE01EE0FAB
:101F8000FF1FEC0DFD1D41E080819181019709F05B
:101F900040E0BE0168507109C8010E94B204219658
:101FA000C031D10559F70F5F1F4F20E2C20ED11C7F
:101FB0000830110509F710E000E0D0E0C0E0FE01B4
:101FC000EE0FFF1FEE0DFF1D80819181019721F41F
:101FD000B801CE010E9416042196C830D10579F7C8
:101FE0000F5F1F4F60E2E60EF11C0830110529F764
:101FF00014CD8830910509F044C0E6E2EE2EEFE002
:10200000FE2E670110E000E0C8E0D0E0FE01EE0F18
:10201000FF1FEC0DFD1D41E080819181019709F0CA
:1020200040E0BE0168507109C8010E94B2042196C7
:10203000C031D10559F70F5F1F4F70E2C70ED11C99
:102040000830110509F710E000E0D0E0C0E0FE0123
:10205000EE0FFF1FEE0DFF1D80819181019721F48E
:10206000B801CE010E9416042196C830D10579F737
:102070000F5F1F4F80E2E80EF11C0830110529F7B1
:10208000CCCC8930910509F044C056E2E52E50E1F0
:10209000F52E670110E000E0C8E0D0E0FE01EE0F91
:1020A000FF1FEC0DFD1D41E080819181019709F03A
:1020B00040E0BE0168507109C8010E94B204219637
:1020C000C031D10559F70F5F1F4F90E2C90ED11CE7
:1020D0000830110509F710E000E0D0E0C0E0FE0193
:1020E000EE0FFF1FEE0DFF1D80819181019721F4FE
:1020F000B801CE010E9416042196C830D10579F7A7
:102100000F5F1F4FA0E2EA0EF11C0830110529F7FE
:1021100084CC0A9709F081CC26E2E22E21E1F22E4E
:10212000670110E000E0C8E0D0E0FE01EE0FFF1F05
:10213000EC0DFD1D41E080819181019709F040E0A7
:10214000BE0168507109C8010E94B2042196C031D5
:10215000D10559F70F5F1F4FB0E2CB0ED11C0830ED
:10216000110509F710E000E0D0E0C0E0FE01EE0F3D
:10217000FF1FEE0DFF1D80819181019721F4B801B1
:10218000CE010E9416042196C830D10579F70F5F61
:102190001F4FE0E2EE0EF11C0830110529F73DCC8F
:1021A000209709F069CC84E492E10E9411060E9414
:1021B000D6026093F6127093F7128093F812909300
:1021C000F9125ACC8F929F92AF92BF92CF92DF9228
:1021D000EF92FF92CF93DF93EC01688179818A813E
:1021E0009B81611571058105910521F464E279ED0A
:1021F0008BE597E02DE133EF41E050E00E9486113E
:1022000049015A019B01AC01A7EAB1E40E94A51162
:102210006B017C01ACEEB4EFA50194010E94B311F7
:10222000C60ED71EE81EF91EF7FE06C081E0C81ACA
:10223000D108E10880E8F80AC882D982EA82FB82E4
:10224000C701B6019F77DF91CF91FF90EF90DF90AC
:10225000CF90BF90AF909F908F9008958F929F9254
:10226000AF92BF92CF92DF92EF92FF9260914A02BB
:1022700070914B0280914C0290914D026115710555
:102280008105910521F464E279ED8BE597E02DE17C
:1022900033EF41E050E00E94861149015A019B0151
:1022A000AC01A7EAB1E40E94A5116B017C01ACEE80
:1022B000B4EFA50194010E94B311C60ED71EE81E0B
:1022C000F91EF7FE06C081E0C81AD108E10880E8CF
:1022D000F80AC0924A02D0924B02E0924C02F0926D
:1022E0004D02C701B6019F77FF90EF90DF90CF902E
:1022F000BF90AF909F908F90089560934A02709323
:102300004B0280934C0290934D020895052E97FB4B
:102310001EF400940E949D1157FD07D00E94B81131
:1023200007FC03D04EF40C949D11509540953095C8
:1023300021953F4F4F4F5F4F089590958095709531
:1023400061957F4F8F4F9F4F08950E94DA11A59F8F
:10235000900DB49F900DA49F800D911D11240895A0
:10236000B7FF0C94A5110E94A511821B930B089531
:10237000A1E21A2EAA1BBB1BFD010DC0AA1FBB1F89
:10238000EE1FFF1FA217B307E407F50720F0A21BFB
:10239000B30BE40BF50B661F771F881F991F1A9468
:1023A00069F760957095809590959B01AC01BD0192
:1023B000CF010895A29FB001B39FC001A39F700DEC
:1023C000811D1124911DB29F700D811D1124911D3D
:1023D000089597FB072E16F4009407D077FD09D0D7
:1023E0000E94051207FC05D03EF4909581959F4F01
:1023F0000895709561957F4F0895EE0FFF1F881F18
:102400008BBF0790F691E02D1994AA1BBB1B51E1DD
:1024100007C0AA1FBB1FA617B70710F0A61BB70B54
:10242000881F991F5A95A9F780959095BC01CD01F9
:062430000895F894FFCFAF
:102436000100FCFFFFFFFFFF00000000010000009D
:102446000200000003000000040000000500000078
:102456000600000007000000080000000900000058
:102466000A0000000B0000000C0000000D00000038
:102476000E0000000F000000010001000000000037
:102486000000000000000000010001000100010042
:102496000100010000000000000000000000000034
:1024A6000000000000000000010001000100010022
:1024B6000100010000000000000000000000000014
:1024C6000100000000000000010000000100010002
:1024D60001000100000000000100010000000000F2
:1024E60001000100010000000100000001000100E0
:1024F60000000100000001000000000000000000D4
:1025060000000000000000000100000000000100C3
:1025160000000100000001000000000000000000B3
:1025260000000100000000000100000000000000A3
:102536000000010000000000010001000000000092
:102546000000000000000000010001000100010081
:102556000100010000000000000000000000000073
:102566000000000000000000010001000100010061
:102576000100010000000000000000000000000053
:102586000000000000000000000000000000000045
:102596000000000000000000000000000000000035
:1025A6000000000000000000000000000000000025
:1025B6000000000000000000000000000000000015
:1025C6000000000000000000000000000000000005
:1025D60000000000000000000000000000000000F5
:1025E60000000000000000000000000000000000E5
:1025F60000000000000000000000000000000000D5
:1026060000000000000000000101010000000101BF
:1026160000000001000000000000000000000000B3
:10262600010000000000010101000101010100019B
:10263600010100010101000000000100000101008C
:10264600000101010000010000010001010100007C
:102656000001010000000000000001000100000070
:102666000000000000000000000000000000000064
:102676000000000000000000000000000000010152
:10268600010000010000010001000001000101003D
:102696000000000000000000000000010000000033
:1026A6000000000100010000010000000100000020
:1026B600010000000100000100000100010000010E
:1026C60000010000010001000001000100000100FE
:1026D60000000000010100000100000000000000F1
:1026E60000000000000000000000000000000000E4
:1026F60000000000000000000001000001000100D1
:1027060000010001000001000001000000000000BF
:1027160000000000000001000000000000000100B1
:10272600010000010000000100000001000001009E
:10273600000001000001000100000100010000018D
:10274600000100000100010000010000000001007E
:102756000100000001000000000000000000000071
:102766000000000000000000000000000000000063
:10277600000000000100000100010101000001014C
:10278600010100000100010101000100010000003B
:10279600000100010101000101010001000001002A
:1027A600010101000101010001000000000001011A
:1027B6000100010101010001000001000101010009
:1027C60000010000010000000100000100000000FF
:1027D60001000000000000000000000000000000F2
:1027E60000000000000000000000000000000001E2
:1027F60001010000010001000001000001000001CC
:1028060000000000000100010000000001000000BF
:1028160000000100000001000001000100000000AE
:10282600000100000100000000000001000100019D
:10283600000001000001000100000000010000018D
:10284600000000010101010000000100000000007D
:102856000000000000000000000000000000000072
:102866000000000000000000000001000000000160
:10287600000001000100000100000100000000004E
:10288600010001000100000100000000000100003D
:10289600000100000100010000000000010000002E
:1028A600010000010000010001000001000100001C
:1028B600010001000000000100000100000000000E
:1028C6000001000001000000000000000000000000
:1028D60000000000000000000000000000000000F2
:1028E60000000000000100000000010000010001DE
:1028F60000000100000100000000000001000000CF
:1029060001010000000000000101010001010101B8
:1029160000010101000101010000000001000001A9
:10292600010000010000010000010100000100009B
:10293600000000010100000000000000010001008D
:102946000000000000000000000000000000000081
:102956000000000000000000000000000000000071
:102966000000000000000000000000000000000061
:102976000000000000000000000000000000000051
:10298600000001000100010001000000000000003D
:102996000000000000000000000000000000000031
:1029A600000001000000000001000000000000001F
:1029B6000000000000000000000000000000000011
:1029C60000000100000000000100000000000000FF
:1029D60000000000000000000000000000000000F1
:1029E60000000100000000000100000000000000DF
:1029F60000000000000000000000000000000000D1
:102A060000000100000000000100000000000000BE
:102A160000000000000000000000000000000000B0
:102A2600000001000000000001000000000000009E
:102A36000000000000000000000000000000000090
:102A4600000001000100010001000000000000007C
:102A56000000000000000000000000000000000070
:102A66000000000000000000000000000000000060
:102A76000000000000000000000000000000000050
:102A8600000000000000010000000000000000003F
:102A96000000000000000000000000000000000030
:102AA600000000000100010000000000000000001E
:102AB6000000000000000000000000000000000010
:102AC60000000000000001000000000000000000FF
:102AD60000000000000000000000000000000000F0
:102AE60000000000000001000000000000000000DF
:102AF60000000000000000000000000000000000D0
:102B060000000000000001000000000000000000BE
:102B160000000000000000000000000000000000AF
:102B2600000000000000010000000000000000009E
:102B3600000000000000000000000000000000008F
:102B4600000000000000000000000000000000007F
:102B5600000000000000000000000000000000006F
:102B6600000000000000000000000000000000005F
:102B7600000000000000000000000000000000004F
:102B8600000000000000000000000000000000003F
:102B9600000000000000000000000000000000002F
:102BA600000001000100010000000000000000001C
:102BB600000000000000000000000000000000000F
:102BC60000000000000001000000000000000000FE
:102BD60000000000000000000000000000000000EF
:102BE60000000100010001000000000000000000DC
:102BF60000000000000000000000000000000000CF
:102C060000000100000000000000000000000000BD
:102C160000000000000000000000000000000000AE
:102C2600000001000100010000000000000000009B
:102C3600000000000000000000000000000000008E
:102C4600000000000000000000000000000000007E
:102C5600000000000000000000000000000000006E
:102C6600000000000000000000000000000000005E
:102C7600000000000000000000000000000000004E
:102C8600000000000000000000000000000000003E
:102C9600000000000000000000000000000000002E
:102CA600000001000100010000000000000000001B
:102CB600000000000000000000000000000000000E
:102CC60000000000000001000000000000000000FD
:102CD60000000000000000000000000000000000EE
:102CE60000000100010001000000000000000000DB
:102CF60000000000000000000000000000000000CE
:102D060000000000000001000000000000000000BC
:102D160000000000000000000000000000000000AD
:102D2600000001000100010000000000000000009A
:102D3600000000000000000000000000000000008D
:102D4600000000000000000000000000000000007D
:102D5600000000000000000000000000000000006D
:102D6600000000000000000000000000000000005D
:102D7600000000000000000000000000000000004D
:102D8600000000000000010000000000000000003C
:102D9600000000000000000000000000000000002D
:102DA600000000000100010000000000000000001B
:102DB600000000000000000000000000000000000D
:102DC60000000100000001000000000000000000FB
:102DD60000000000000000000000000000000000ED
:102DE60001000100010001000100000000000000D8
:102DF60000000000000000000000000000000000CD
:102E060000000000000001000000000000000000BB
:102E160000000000000000000000000000000000AC
:102E2600000000000000010000000000000000009B
:102E3600000000000000000000000000000000008C
:102E4600000000000000010000000000000000007B
:102E5600000000000000000000000000000000006C
:102E6600000000000000000000000000000000005C
:102E7600000000000000000000000000000000004C
:102E8600000000000000000000000000000000003C
:102E9600000000000000000000000000000000002C
:102EA6000000010001000100000000000000000019
:102EB600000000000000000000000000000000000C
:102EC60000000100000000000000000000000000FB
:102ED60000000000000000000000000000000000EC
:102EE60000000100010001000000000000000000D9
:102EF60000000000000000000000000000000000CC
:102F060000000000000001000000000000000000BA
:102F160000000000000000000000000000000000AB
:102F26000000010001000100000000000000000098
:102F3600000000000000000000000000000000008B
:102F4600000000000000000000000000000000007B
:102F5600000000000000000000000000000000006B
:102F6600000000000000000000000000000000005B
:102F7600000000000000000000000000000000004B
:102F86000000010001000100000000000000000038
:102F9600000000000000000000000000000000002B
:102FA600000001000000000000000000000000001A
:102FB600000000000000000000000000000000000B
:102FC60000000100000000000000000000000000FA
:102FD60000000000000000000000000000000000EB
:102FE60000000100010001000000000000000000D8
:102FF60000000000000000000000000000000000CB
:1030060000000100000001000000000000000000B8
:1030160000000000000000000000000000000000AA
:103026000000010001000100000000000000000097
:10303600000000000000000000000000000000008A
:10304600000000000000000000000000000000007A
:10305600000000000000000000000000000000006A
:10306600000000000000000000000000000000005A
:10307600000000000000000000000000000000004A
:103086000000010001000100000000000000000037
:10309600000000000000000000000000000000002A
:1030A6000000000000000100000000000000000019
:1030B600000000000000000000000000000000000A
:1030C60000000000000001000000000000000000F9
:1030D60000000000000000000000000000000000EA
:1030E60000000000010001000100000000000000D7
:1030F60000000000000000000000000000000000CA
:1031060000000000000001000000000000000000B8
:1031160000000000000000000000000000000000A9
:103126000000000000000100000000000000000098
:103136000000000000000000000000000000000089
:103146000000000000000000000000000000000079
:103156000000000000000000000000000000000069
:103166000000000000000000000000000000000059
:103176000000000000000000000000000000000049
:103186000000000000000000000000000000000039
:103196000000000000000000000000000000000029
:1031A6000000010001000100000000000000000016
:1031B6000000000000000000000000000000000009
:1031C60000000100000001000000000000000000F7
:1031D60000000000000000000000000000000000E9
:1031E60000000100010001000000000000000000D6
:1031F60000000000000000000000000000000000C9
:1032060000000100000001000000000000000000B6
:1032160000000000000000000000000000000000A8
:103226000000010001000100000000000000000095
:103236000000000000000000000000000000000088
:103246000000000000000000000000000000000078
:103256000000000000000000000000000000000068
:103266000000000000000000000000000000000058
:103276000000000000000000000000000000000048
:103286000000000000000000000000000000000038
:103296000000000000000000000000000000000028
:1032A6000000010001000100000000000000000015
:1032B6000000000000000000000000000000000008
:1032C60000000100000001000000000000000000F6
:1032D60000000000000000000000000000000000E8
:1032E60000000100010001000000000000000000D5
:1032F60000000000000000000000000000000000C8
:1033060000000000000001000000000000000000B6
:1033160000000000000000000000000000000000A7
:103326000000010001000100000000000000000094
:103336000000000000000000000000000000000087
:103346000000000000000000000000000000000077
:103356000000000000000000000000000000000067
:103366000000000000000000000000000000000057
:103376000000000000000000000000000000000047
:103386000000010000000000010001000100000033
:103396000000000000000000000000000000000027
:1033A6000100010000000000010000000100000013
:1033B6000000000000000000000000000000000007
:1033C60000000100000000000100000001000000F4
:1033D60000000000000000000000000000000000E7
:1033E60000000100000000000100000001000000D4
:1033F60000000000000000000000000000000000C7
:1034060000000100000000000100000001000000B3
:1034160000000000000000000000000000000000A6
:103426000000010000000000010001000100000092
:103436000000000000000000000000000000000086
:103446000000000000000000000000000000000076
:10345600000000000000000000007803E2020F03F5
:10346600C50340031E0332030D0A007465737469B5
:103476006E67310074657374696E673200202000D0
:103486007474747474747474743A200078787878E8
:023496007800BC
:00000001FF
