:100000000C9427010C9458010C9458010C9458013D
:100010000C9458010C9458010C9458010C945801FC
:100020000C9458010C9458010C9458010C945801EC
:100030000C9458010C9458010C9458010C945801DC
:100040000C9458010C9458010C9458010C945801CC
:100050000C9458010C9458010C9458010C9403040E
:100060000C9458010C9458010C9458010C945801AC
:100070000C9458010C9458010C9458010C9458019C
:100080000C9458010C9458010C9458010C9458018C
:100090000C9458010C9458010C9458010C9458017C
:1000A0000C9458010C9458010C9458010C9458016C
:1000B0000C9458010C9458010C9458010C9458015C
:1000C0000C9458010C9458010C9458010C9458014C
:1000D0000C9458010C9458010C9458010C9458013C
:1000E0000C9458010C94B8010C94B9010C9486013D
:1000F0000C9497010C947E010C9478010C94AB0144
:100100000C94BD010C9493010C94AF010C94A101CB
:100110000C94780A0C948A010C94A5010C94B301F8
:100120000C9482010C949D010C948D01000021001F
:10013000240027002A002D003000330001010000B8
:10014000040107010A0100002200250028002B00FD
:100150002E003100340002010000050108010B01EE
:10016000000020002300260029002C002F00320070
:100170000001000003010601090105050505070549
:1001800008080808020202020A0A08080404040413
:10019000010101010101010103030303030303033F
:1001A000040707070C0C0C0C0C0C0C0C02020202CE
:1001B00006060606060606060B0B0B0B0B0B0B0BB7
:1001C0000102102020080810204010204080020169
:1001D000020108040201010204081020408080404E
:1001E000201008040201800402018040201008044D
:1001F00002010804020101020408102040800102EB
:1002000004081020408000000A0B02090C0D0E08A3
:1002100007030401000000000000000000000000CF
:1002200000000000000000000000000000000000CE
:10023000000012111000000000000000000000008B
:10024000000000000000000000000000780A1124F7
:100250001FBECFEFD1E2DEBFCDBF00E00CBF1EE07E
:10026000A0E0B2E0E8EEF5E100E00BBF02C00790CD
:100270000D92A834B107D9F72FE0A8E4BEE001C081
:100280001D92AB34B207E1F711E0C7E2D1E000E024
:1002900006C021970109802FFE010E94EA0AC6329A
:1002A000D10780E00807A9F70E944D040C94F20AD8
:1002B0000C9400008150823108F05AC0E82FF0E021
:1002C0008827EA59FE4F8F4F0C94EA0A86018A016B
:1002D00078017E018201B8018D01930197019D0192
:1002E000A101A501AB01AF01B801B301B901BD0185
:1002F000809180008F7780938000089580918000A6
:100300008F7DF9CF80918000877FF5CF84B58F777F
:1003100084BD089584B58F7DFBCF8091B0008F7729
:100320008093B00008958091B0008F7DF9CF8091C7
:1003300090008F77809390000895809190008F7D3A
:10034000F9CF80919000877FF5CF8091A0008F77C3
:100350008093A00008958091A0008F7DF9CF8091B7
:10036000A000877FF5CF809120018F7780932001B7
:100370000895809120018F7DF9CF80912001877FA2
:10038000F5CFCF93DF93282F30E0F901EA5FFD4FDF
:100390008491F901E054FE4FD491F901E658FE4FE3
:1003A000C491CC23A1F081110E945A01EC2FF0E0FE
:1003B000EE0FFF1FE05AFE4FA591B491EC91ED2393
:1003C00081E090E009F480E0DF91CF91089580E032
:1003D00090E0FACF1F93CF93DF93282F30E0F901FD
:1003E000EA5FFD4F8491F901E054FE4FD491F90189
:1003F000E658FE4FC491CC23A9F0162F81110E941C
:100400005A01EC2FF0E0EE0FFF1FEA5BFE4FA591C3
:10041000B4918FB7F894EC91111108C0D095DE23F8
:10042000DC938FBFDF91CF911F910895DE2BF8CF22
:10043000CF93DF9390E0FC01E054FE4F2491865867
:100440009E4FFC0184918823D1F090E0880F991F82
:10045000FC01E45DFE4FA591B491FC01EA5BFE4F07
:10046000C591D49161110EC09FB7F8948C91E22F81
:10047000E0958E238C932881E223E8839FBFDF9150
:10048000CF9108958FB7F894EC91E22BEC938FBF46
:10049000F6CF3FB7F8948091EF0E9091F00EA091B7
:1004A000F10EB091F20E26B5A89B05C02F3F19F0B2
:1004B0000196A11DB11D3FBFBA2FA92F982F8827E4
:1004C000BC01CD01620F711D811D911D42E0660FBF
:1004D000771F881F991F4A95D1F708952FB7F89471
:1004E0006091EB0E7091EC0E8091ED0E9091EE0EFE
:1004F0002FBF0895CF92DF92EF92FF92CF93DF93B9
:10050000D82FCEE0C60F60E08C2F0E94EA01DA5EA1
:1005100061E08D2F0E94EA010E9449026B017C017B
:100520000E9449026C197D098E099F09683E73403B
:1005300081059105A8F361E08C2F0E94EA0160E03B
:100540008D2FDF91CF91FF90EF90DF90CF900C94A3
:10055000EA01CF92DF92EF92FF920F931F93CF9316
:10056000DF931F921F92CDB7DEB769834A83880F4E
:10057000991F0091490F10914A0F000F111FE3EFCF
:10058000FEE09F01235F3E402017310714F41192D3
:10059000F8CF2981FC01ED50F14F21838A818083BE
:1005A00060E08091470F0E94EA011016110604F5E1
:1005B00001501109F801ED50F14FE080D090450F46
:1005C000C090430F88E0F82E6E2D661F6627661FC9
:1005D0008C2D0E94EA01EE0C61E08D2D0E94EA0153
:1005E00060E08D2D0E94EA01FA94F110EDCFDDCF8D
:1005F00061E08091470F0F900F90DF91CF911F9195
:100600000F91FF90EF90DF90CF900C94EA01EF9262
:10061000FF920F931F93CF937C018C0183E0000F17
:10062000111F8A95E1F70D5F104FC1E0F80111929B
:100630008F0140E06C2FC7010E94A902CF5FC93033
:10064000A9F7CF911F910F91FF90EF9008952091FE
:10065000490F30914A0F12161306FCF488309105A9
:10066000E1F068307105C9F020E830E002C035954E
:1006700027956A95E2F7FC01ED50F14F508944232C
:1006800049F0252B208B61E0680F408990E080E0E5
:100690000C94A90220952523F5CF0895AF92BF921F
:1006A000CF92DF92EF92FF920F931F93CF93DF933E
:1006B00030E5E32E3EE0F32E10E000E0D0E0C0E0B5
:1006C00041E0F701EC0FFD1F8081813009F040E02F
:1006D000BE01C8010E9427032196C830D10581F7C9
:1006E0000F5F1F4F80E1E80EF11C0830110531F754
:1006F00093E0E92EF12C23ECA22EB12C80E5C82E3C
:100700008EE0D82E10E000E0C8E0D0E0F601EC0F5B
:10071000FD1F8081813001F5B801CE0108970E944C
:100720007A022196C031D10589F70F5F1F4F80E112
:10073000C80ED11C0830110539F781E0E81AF1081C
:10074000E9F6DF91CF911F910F91FF90EF90DF902D
:10075000CF90BF90AF900895C5010197F1F7E1CF19
:10076000CF92DF92EF92FF920F931F93CF93DF937D
:1007700028E4E22E22E0F22E670110E000E0D0E053
:10078000C0E0FE01EE0FFF1FEC0DFD1D41E080817A
:100790009181019709F040E0BE01C8010E94270342
:1007A0002196C830D10569F70F5F1F4F80E2C80E50
:1007B000D11C0830110519F710E000E0C8E0D0E0C6
:1007C000FE01EE0FFF1FEE0DFF1D8081918101974D
:1007D00029F4B801CE0108970E947A022196C0310F
:1007E000D10571F70F5F1F4F80E2E80EF11C083052
:1007F000110521F7DF91CF911F910F91FF90EF909D
:10080000DF90CF9008951F920F920FB60F92112490
:100810002F933F938F939F93AF93BF938091EB0E52
:100820009091EC0EA091ED0EB091EE0E3091EA0E8B
:1008300023E0230F2D3758F50196A11DB11D2093FC
:10084000EA0E8093EB0E9093EC0EA093ED0EB09316
:10085000EE0E8091EF0E9091F00EA091F10EB091FE
:10086000F20E0196A11DB11D8093EF0E9093F00E34
:10087000A093F10EB093F20EBF91AF919F918F9123
:100880003F912F910F900FBE0F901F90189526E863
:10089000230F0296A11DB11DD2CF789484B582603A
:1008A00084BD84B5816084BD85B5826085BD85B514
:1008B000816085BD80916E00816080936E00109292
:1008C000810080918100826080938100809181000D
:1008D000816080938100809180008160809380009E
:1008E0008091B10084608093B1008091B0008160FC
:1008F0008093B000809191008260809391008091FC
:10090000910081608093910080919000816080933C
:1009100090008091A10082608093A1008091A1004D
:1009200081608093A1008091A00081608093A000ED
:100930008091210182608093210180912101816059
:10094000809321018091200181608093200180911A
:100950007A00846080937A0080917A00826080932C
:100960007A0080917A00816080937A0080917A0089
:10097000806880937A001092C1008091490F909115
:100980004A0F1816190634F441E06CE090E080E05C
:100990000E94A9028091490F90914A0F18161906DA
:1009A00034F448E06AE090E080E00E94A902CEE0E2
:1009B00061E08C2F0E941802CF5FC631C9F761E059
:1009C0008C2F0E941802CF5FCE31C9F7CEE061E0D4
:1009D0008C2F0E94EA01CF5FC631C9F760E08C2FEF
:1009E0000E94EA01CF5FCE31C9F760E08DE00E943E
:1009F000180260E08CE00E94180260E08BE00E9428
:100A0000180260E08AE00E9418027724739433E0B1
:100A1000432E512C22242394312CEE24EA94FE2CD4
:100A200080914602909147028130910509F04EC0B5
:100A30000E94B0038CE00E94C101EC0180914E0E37
:100A400090914F0EC817D90751F00E946E02609323
:100A50004A0E70934B0E80934C0E90934D0E0E9455
:100A60006E0200914A0E10914B0E20914C0E309167
:100A70004D0E601B710B820B930B63337105810567
:100A80009105C0F08091480E9091490EC817D90782
:100A900089F0D093490EC093480EC130D10551F46E
:100AA00082E090E090934702809346025092450284
:100AB00040924402D0934F0EC0934E0E80E090E0DF
:100AC000892B09F4ADCF0E940000A1CF823091059F
:100AD00009F0CBC18DE00E94C101EC01C090D80E9D
:100AE000D090D90E0091DA0E1091DB0EF601B4E031
:100AF000EE0FFF1FBA95E1F7E05BF14FE00FF11F3A
:100B000010822FEFC21AD20AC60124E0880F991F63
:100B10002A95E1F7805B914FFC01E00FF11F1082F5
:100B20000F5F1F4F800F911FDC011C9212820E94E9
:100B30006E028090DC0E9090DD0EA090DE0EB090E4
:100B4000DF0E681979098A099B09663971058105E3
:100B500091050CF47CC00E946E026093DC0E7093D1
:100B6000DD0E8093DE0E9093DF0E00311105D1F182
:100B70001093DB0E0093DA0E8091420290914302B3
:100B80008F3F980709F463C0BC016F5F7F4F2091CE
:100B9000000230910102FB01A4E0EE0FFF1FAA95B5
:100BA000E1F7E05BF14FE20FF31F40814130E1F5E7
:100BB000A901440F551F440F551FFA01EE5FFD4F69
:100BC00002811381F901E05BF14F70E060E0709702
:100BD0006017710784F4DF01A058BF4F1C926F5F4C
:100BE0007F4FF5CF1092DB0E1092DA0ED092D90E15
:100BF000C092D80EC1CF4E5F5D4FFA0113821282B0
:100C000044E0880F991F4A95E1F7805B914F280FC8
:100C1000391FD9011C92F0920102E0920002F09279
:100C20004302E092420213C0AC0104E0440F551F9E
:100C30000A95E1F7405B514F240F351FD9011C92F3
:100C400007974CF770934302609342027082809141
:100C5000D60E9091D70EC817D90751F00E946E0298
:100C60006093D20E7093D30E8093D40E9093D50ED2
:100C70000E946E022091DA0E3091DB0EA091D80E08
:100C8000B091D90E8090D20E9090D30EA090D40E39
:100C9000B090D50EAB01BC01481959096A097B090E
:100CA000433351056105710580F14091D00E50919B
:100CB000D10EC417D50749F1D093D10EC093D00EF1
:100CC000C130D10511F540910002509101024F3F12
:100CD0005F4FD9F440914202509143024F3F5F4F22
:100CE000A1F43093010220930002FD013296F093AB
:100CF0004302E093420214E0EE0FFF1F1A95E1F762
:100D0000E05BF14FE20FF31F7082D093D70EC093D8
:100D1000D60EAD01D4E0440F551FDA95E1F7405AE5
:100D2000514FF9013296E40FF51F6081613009F0EF
:100D300043C0CD0102979093D90E8093D80E2250D4
:100D400031093093DB0E2093DA0E809144029091AA
:100D5000450201979093450280934402892B61F4E8
:100D600030924702209246021092DB0E1092DA0E69
:100D70001092D90E1092D80EE2E0F2E04281538137
:100D80004115510559F130E020E02417350734F5BD
:100D900087E090E0821B930BA4E0880F991FAA952F
:100DA000E1F7805B914F60817181860F971FDC01B5
:100DB0007C922F5F3F4FE9CFC4E0AA0FBB1FCA95BB
:100DC000E1F7A05BB14FA20FB31F7C92DA01A20F33
:100DD000B31F7C9211967C927082CECF349682E4BF
:100DE00092E08E179F0751F60E944E038AE00E9400
:100DF000C101EC018091E80E9091E90EC817D90766
:100E000051F00E946E026093E40E7093E50E8093A1
:100E1000E60E9093E70E0E946E020091E40E109190
:100E2000E50E2091E60E3091E70E601B710B820BF0
:100E3000930B633371058105910590F08091E20E6B
:100E40009091E30EC817D90759F0D093E30EC093E1
:100E5000E20EC130D10521F4509247024092460281
:100E6000D093E90EC093E80E29CE039709F026CE61
:100E70008091440290914502009709F06DC0C091A5
:100E8000E00ED091E10EC431D10508F04FC0E8E486
:100E9000AE2EE3E0BE2E4501D12CC12C08E010E0BF
:100EA000F801EE0FFF1FE80DF91D41E080819181EF
:100EB000019709F040E0B80168507109C6010E942D
:100EC00027030F5F1F4F0031110551F79FEFC91A1C
:100ED000D90AA0E28A0E911CB8E0CB16D104F1F633
:100EE000D12CC12C10E000E0F801EE0FFF1FEA0D3D
:100EF000FB1D80819181019721F4B601C8010E94F8
:100F00007A020F5F1F4F0830110571F7EFEFCE1A0D
:100F1000DE0AF0E2AF0EB11C28E0C216D10411F7D0
:100F20002196D093E10EC093E00EC8CDCE01449738
:100F30000A9718F40E944E03F3CF0E94B0038091E9
:100F4000490F90914A0F181619060CF0B7CD90E092
:100F500080E00E940703B2CD8130910509F043C0C3
:100F600058E4C52E54E0D52E560110E000E0D0E044
:100F7000C0E0FE01EE0FFF1FEA0DFB1D41E0808186
:100F80009181019709F040E0BE01C8010E9427034A
:100F90002196C830D10569F70F5F1F4F80E2A80E78
:100FA000B11C0830110519F710E000E0C8E0D0E0EE
:100FB000FE01EE0FFF1FEC0DFD1D80819181019759
:100FC00029F4B801CE0108970E947A022196C03117
:100FD000D10571F70F5F1F4F90E2C90ED11C083089
:100FE000110521F76BCD8230910509F043C028E44B
:100FF000C22E25E0D22E560110E000E0D0E0C0E085
:10100000FE01EE0FFF1FEA0DFB1D41E08081918183
:10101000019709F040E0BE01C8010E942703219614
:10102000C830D10569F70F5F1F4FA0E2AA0EB11CAF
:101030000830110519F710E000E0C8E0D0E0FE012B
:10104000EE0FFF1FEC0DFD1D80819181019729F4AA
:10105000B801CE0108970E947A022196C031D105CD
:1010600071F70F5F1F4FB0E2CB0ED11C0830110596
:1010700021F724CD8330910509F043C0C8E4CC2E7C
:10108000C6E0DC2E560110E000E0D0E0C0E0FE013A
:10109000EE0FFF1FEA0DFB1D41E08081918101975A
:1010A00009F040E0BE01C8010E9427032196C83024
:1010B000D10569F70F5F1F4FE0E2AE0EB11C08309B
:1010C000110519F710E000E0C8E0D0E0FE01EE0FD6
:1010D000FF1FEC0DFD1D80819181019729F4B8015E
:1010E000CE0108970E947A022196C031D10571F78E
:1010F0000F5F1F4FF0E2CF0ED11C0830110521F712
:10110000DDCC8430910509F044C0E8E4CE2EE7E060
:10111000DE2E560110E000E0C8E0D0E0FE01EE0F48
:10112000FF1FEA0DFB1D41E080819181019709F0CD
:1011300040E0BE0168507109C8010E942703219652
:10114000C031D10559F70F5F1F4F20E2A20EB11C2D
:101150000830110509F710E000E0D0E0C0E0FE0122
:10116000EE0FFF1FEC0DFD1D80819181019721F491
:10117000B801CE010E947A022196C830D10579F7D4
:101180000F5F1F4F80E2C80ED11C0830110529F7F0
:1011900095CC8530910509F044C058E4C52E58E03F
:1011A000D52E560110E000E0C8E0D0E0FE01EE0FC1
:1011B000FF1FEA0DFB1D41E080819181019709F03D
:1011C00040E0BE0168507109C8010E9427032196C2
:1011D000C031D10559F70F5F1F4F90E2A90EB11C26
:1011E0000830110509F710E000E0D0E0C0E0FE0192
:1011F000EE0FFF1FEC0DFD1D80819181019721F401
:10120000B801CE010E947A022196C830D10579F743
:101210000F5F1F4FA0E2CA0ED11C0830110529F73D
:101220004DCC8630910509F044C028E4C22E29E057
:10123000D22E560110E000E0C8E0D0E0FE01EE0F33
:10124000FF1FEA0DFB1D41E080819181019709F0AC
:1012500040E0BE0168507109C8010E942703219631
:10126000C031D10559F70F5F1F4FB0E2AB0EB11C73
:101270000830110509F710E000E0D0E0C0E0FE0101
:10128000EE0FFF1FEC0DFD1D80819181019721F470
:10129000B801CE010E947A022196C830D10579F7B3
:1012A0000F5F1F4FE0E2CE0ED11C0830110529F769
:1012B00005CC8730910509F044C0C8E4CC2ECAE0C3
:1012C000DC2E560110E000E0C8E0D0E0FE01EE0F99
:1012D000FF1FEA0DFB1D41E080819181019709F01C
:1012E00040E0BE0168507109C8010E9427032196A1
:1012F000C031D10559F70F5F1F4FF0E2AF0EB11C9F
:101300000830110509F710E000E0D0E0C0E0FE0170
:10131000EE0FFF1FEC0DFD1D80819181019721F4DF
:10132000B801CE010E947A022196C830D10579F722
:101330000F5F1F4F20E2C20ED11C0830110529F7A4
:10134000BDCB8830910509F044C0E8E4CE2EEBE037
:10135000DE2E560110E000E0C8E0D0E0FE01EE0F06
:10136000FF1FEA0DFB1D41E080819181019709F08B
:1013700040E0BE0168507109C8010E942703219610
:10138000C031D10559F70F5F1F4F80E2A80EB11C85
:101390000830110509F710E000E0D0E0C0E0FE01E0
:1013A000EE0FFF1FEC0DFD1D80819181019721F44F
:1013B000B801CE010E947A022196C830D10579F792
:1013C0000F5F1F4F90E2C90ED11C0830110529F79D
:1013D00075CB8930910509F044C058E4C52E5CE016
:1013E000D52E560110E000E0C8E0D0E0FE01EE0F7F
:1013F000FF1FEA0DFB1D41E080819181019709F0FB
:1014000040E0BE0168507109C8010E94270321967F
:10141000C031D10559F70F5F1F4FA0E2AA0EB11CD2
:101420000830110509F710E000E0D0E0C0E0FE014F
:10143000EE0FFF1FEC0DFD1D80819181019721F4BE
:10144000B801CE010E947A022196C830D10579F701
:101450000F5F1F4FB0E2CB0ED11C0830110529F7EA
:101460002DCB0A9709F02ACB28E4C22E2DE0D22EEC
:10147000560110E000E0C8E0D0E0FE01EE0FFF1FD3
:10148000EA0DFB1D41E080819181019709F040E068
:10149000BE0168507109C8010E9427032196C0311E
:1014A000D10559F70F5F1F4FE0E2AE0EB11C0830B7
:1014B000110509F710E000E0D0E0C0E0FE01EE0FFA
:1014C000FF1FEC0DFD1D80819181019721F4B80172
:1014D000CE010E947A022196C830D10579F70F5FBC
:1014E0001F4FF0E2CF0ED11C0830110529F7E6CAD4
:1014F000CF93DF93C7E0D0E0D093440FC093430F66
:1015000086E090E09093460F8093450F85E090E051
:101510009093480F8093470F81E090E090934A0F9B
:101520008093490F61E087E00E94180261E080919A
:10153000450F0E94180261E08091470F0E94180237
:1015400061E08091470F0E94EA01D093440FC0935D
:10155000430FE3E0FFE011928FE0E334F807D9F79F
:10156000D0E0C0E08091490F90914A0FC817D90789
:1015700074F540E06FE0CE010E94A9028091490F0E
:1015800090914A0FC817D9072CF447E06BE0CE01C1
:101590000E94A90240E069E0CE010E94A902809168
:1015A000490F90914A0FC817D9071CF4CE010E9429
:1015B00007038091490F90914A0FC817D9072CF45F
:1015C00040E06CE0CE010E94A9022196CBCFDF91D2
:1015D000CF910895EE0FFF1F881F8BBF0790F691E4
:0815E000E02D1994F894FFCFEF
:1015E800FFFF0000000001000300020003000300E9
:1015F80000000400000005000000060000000700CD
:10160800000008000400090000000A0000000B00A8
:1016180000000C0000000D0000000E0000000F008C
:101628000000FFFF010001000000000000000000B2
:10163800000001000100010001000100010000009C
:101648000000000000000000000000000000000092
:10165800000001000100010001000100010000007C
:101668000000000000000000000001000000000071
:10167800000001000000010001000100010000005D
:10168800000001000100000000000100010001004D
:10169800000001000000010001000000010000003E
:1016A8000100000000000000000000000000000031
:1016B800000001000000000001000000010000001F
:1016C8000100000000000000000000000100000010
:1016D8000000010000000000000000000100000000
:1016E80000000100010000000000000000000000F0
:1016F80000000100010001000100010001000000DC
:1017080000000000000000000000000000000000D1
:1017180000000100010001000100010001000000BB
:1017280000000000000000000000000000000000B1
:1017380000000000000000000000000000000000A1
:101748000000000000000000000000000000000091
:10175800000000000100010001000100000000007D
:101768000000000000000000000000000000000071
:10177800000000000100000000000100000000005F
:101788000000000000000000000000000000000051
:10179800000000000100000000000100000000003F
:1017A8000000000000000000000000000000000031
:1017B800000000000100000000000100000000001F
:1017C8000000000000000000000000000000000011
:1017D80000000000010000000000010000000000FF
:1017E80000000000000000000000000000000000F1
:1017F80000000000010000000000010000000000DF
:1018080000000000000000000000000000000000D0
:1018180000000000010001000100010000000000BC
:1018280000000000000000000000000000000000B0
:1018380000000000000000000000000000000000A0
:101848000000000000000000000000000000000090
:10185800000000000000000001000000000000007F
:101868000000000000000000000000000000000070
:10187800000000000000010001000000000000005E
:101888000000000000000000000000000000000050
:10189800000000000100000001000000000000003E
:1018A8000000000000000000000000000000000030
:1018B800000000000000000001000000000000001F
:1018C8000000000000000000000000000000000010
:1018D80000000000000000000100000000000000FF
:1018E80000000000000000000000000000000000F0
:1018F80000000000000000000100000000000000DF
:1019080000000000000000000000000000000000CF
:1019180000000000000000000000000000000000BF
:1019280000000000000000000000000000000000AF
:10193800000000000000000000000000000000009F
:10194800000000000000000000000000000000008F
:10195800000000000000000000000000000000007F
:10196800000000000000000000000000000000006F
:10197800000000000100010001000000000000005C
:10198800000000000000000000000000000000004F
:10199800000000000000000001000000000000003E
:1019A800000000000000000000000000000000002F
:1019B800000000000100010001000000000000001C
:1019C800000000000000000000000000000000000F
:1019D80000000000010000000000000000000000FE
:1019E80000000000000000000000000000000000EF
:1019F80000000000010001000100000000000000DC
:101A080000000000000000000000000000000000CE
:101A180000000000000000000000000000000000BE
:101A280000000000000000000000000000000000AE
:101A3800000000000000000000000000000000009E
:101A4800000000000000000000000000000000008E
:101A5800000000000000000000000000000000007E
:101A6800000000000000000000000000000000006E
:101A7800000000000100010001000000000000005B
:101A8800000000000000000000000000000000004E
:101A9800000000000000000001000000000000003D
:101AA800000000000000000000000000000000002E
:101AB800000000000100010001000000000000001B
:101AC800000000000000000000000000000000000E
:101AD80000000000000000000100000000000000FD
:101AE80000000000000000000000000000000000EE
:101AF80000000000010001000100000000000000DB
:101B080000000000000000000000000000000000CD
:101B180000000000000000000000000000000000BD
:101B280000000000000000000000000000000000AD
:101B3800000000000000000000000000000000009D
:101B4800000000000000000000000000000000008D
:101B5800000000000000000001000000000000007C
:101B6800000000000000000000000000000000006D
:101B7800000000000000010001000000000000005B
:101B8800000000000000000000000000000000004D
:101B9800000000000100000001000000000000003B
:101BA800000000000000000000000000000000002D
:101BB800000001000000000001000000000000001B
:101BC800000000000000000000000000000000000D
:101BD80000000100010001000100000000000000F9
:101BE80000000000000000000000000000000000ED
:101BF80000000000000000000100000000000000DC
:101C080000000000000000000000000000000000CC
:101C180000000000000000000100000000000000BB
:101C280000000000000000000000000000000000AC
:101C3800000000000000000000000000000000009C
:101C4800000000000000000000000000000000008C
:101C5800000000000000000000000000000000007C
:101C6800000000000000000000000000000000006C
:101C78000000000001000100010000000000000059
:101C8800000000000000000000000000000000004C
:101C9800000000000100000000000000000000003B
:101CA800000000000000000000000000000000002C
:101CB8000000000001000100010000000000000019
:101CC800000000000000000000000000000000000C
:101CD80000000000000000000100000000000000FB
:101CE80000000000000000000000000000000000EC
:101CF80000000000010001000100000000000000D9
:101D080000000000000000000000000000000000CB
:101D180000000000000000000000000000000000BB
:101D280000000000000000000000000000000000AB
:101D3800000000000000000000000000000000009B
:101D4800000000000000000000000000000000008B
:101D5800000000000000000000000000000000007B
:101D6800000000000000000000000000000000006B
:101D78000000000001000100010000000000000058
:101D8800000000000000000000000000000000004B
:101D9800000000000100000000000000000000003A
:101DA800000000000000000000000000000000002B
:101DB8000000000001000100010000000000000018
:101DC800000000000000000000000000000000000B
:101DD80000000000010000000100000000000000F9
:101DE80000000000000000000000000000000000EB
:101DF80000000000010001000100000000000000D8
:101E080000000000000000000000000000000000CA
:101E180000000000000000000000000000000000BA
:101E280000000000000000000000000000000000AA
:101E3800000000000000000000000000000000009A
:101E4800000000000000000000000000000000008A
:101E5800000000000000000000000000000000007A
:101E6800000000000000000000000000000000006A
:101E78000000000001000100010000000000000057
:101E8800000000000000000000000000000000004A
:101E98000000000000000000010000000000000039
:101EA800000000000000000000000000000000002A
:101EB8000000000001000100010001000000000016
:101EC800000000000000000000000000000000000A
:101ED80000000000000000000100000000000000F9
:101EE80000000000000000000000000000000000EA
:101EF80000000000000000000100000000000000D9
:101F080000000000000000000000000000000000C9
:101F180000000000000000000000000000000000B9
:101F280000000000000000000000000000000000A9
:101F38000000000000000000000000000000000099
:101F48000000000000000000000000000000000089
:101F58000000000000000000000000000000000079
:101F68000000000000000000000000000000000069
:101F78000000000001000100010000000000000056
:101F88000000000000000000000000000000000049
:101F98000000000001000000010000000000000037
:101FA8000000000000000000000000000000000029
:101FB8000000000001000100010000000000000016
:101FC8000000000000000000000000000000000009
:101FD80000000000010000000100000000000000F7
:101FE80000000000000000000000000000000000E9
:101FF80000000000010001000100000000000000D6
:1020080000000000000000000000000000000000C8
:1020180000000000000000000000000000000000B8
:1020280000000000000000000000000000000000A8
:102038000000000000000000000000000000000098
:102048000000000000000000000000000000000088
:102058000000000000000000000000000000000078
:102068000000000000000000000000000000000068
:102078000000000001000100010000000000000055
:102088000000000000000000000000000000000048
:102098000000000001000000010000000000000036
:1020A8000000000000000000000000000000000028
:1020B8000000000001000100010000000000000015
:1020C8000000000000000000000000000000000008
:1020D80000000000000000000100000000000000F7
:1020E80000000000000000000000000000000000E8
:1020F80000000000010001000100000000000000D5
:1021080000000000000000000000000000000000C7
:1021180000000000000000000000000000000000B7
:1021280000000000000000000000000000000000A7
:102138000000000000000000000000000000000097
:102148000000000000000000000000000000000087
:102158000000000001000000000001000100010073
:102168000000000000000000000000000000000067
:102178000000010001000000000001000000010053
:102188000000000000000000000000000000000047
:102198000100000001000000000001000000010033
:1021A8000000000000000000000000000000000027
:1021B8000000000001000000000001000000010014
:1021C8000000000000000000000000000000000007
:1021D80000000000010000000000010000000100F4
:1021E80000000000000000000000000000000000E7
:1021F80000000000010000000000010001000100D3
:1022080000000000000000000000000000000000C6
:1022180000000000000000000000000000000000B6
:082228000000000000000000AE
:00000001FF
