:100000000C9435010C9466010C9466010C94660105
:100010000C9466010C9466010C9466010C946601C4
:100020000C9466010C9466010C9466010C946601B4
:100030000C9466010C9466010C9466010C946601A4
:100040000C9466010C9466010C9466010C94660194
:100050000C9466010C9466010C9466010C94240ABD
:100060000C9466010C94980A0C946E0A0C94660128
:100070000C9466010C9466010C9466010C94660164
:100080000C9466010C9466010C9466010C94660154
:100090000C9466010C9466010C9466010C94660144
:1000A0000C9466010C9466010C9466010C94660134
:1000B0000C9466010C9466010C9466010C94660124
:1000C0000C9466010C9466010C9466010C94660114
:1000D0000C9466010C9466010C9466010C94660104
:1000E0000C9466010C94C3010C94DB010C94AE01DA
:1000F0000C94F9020C94F3010C94C9010C94D701EF
:100100000C94CE0A0C94EF010C948F030C94E10133
:100110000C9426030C9449030C94C0010C94CD015B
:100120000C94D3010C9435030C94B8010C94B401D5
:100130000C94E9010C94DC030C9457030C94BC015F
:100140000C94E5010C94EE0100002100240027002E
:100150002A002D00300033000101000004010701D6
:100160000A0100002200250028002B002E0031008B
:10017000340002010000050108010B01000020000D
:100180002300260029002C002F003200000100006F
:10019000030106010901050505050705080808080A
:1001A000020202020A0A080804040404010101010F
:1001B000010101010303030303030303040707070A
:1001C0000C0C0C0C0C0C0C0C0202020206060606AF
:1001D000060606060B0B0B0B0B0B0B0B010210207C
:1001E000200808102040102040800201020108046D
:1001F0000201010204081020408080402010080401
:100200000201800402018040201008040201080459
:10021000020101020408102040800102040810209D
:10022000408000000A0B02090C0D0E0807030401B0
:1002300000000000000000000000000000000000BE
:10024000000000000000000000000000000012118B
:10025000100000000000000000000000000000008E
:100260000000000000000000CE0A11241FBECFEFE6
:10027000D1E2DEBFCDBF00E00CBF12E1A0E0B2E0F2
:10028000ECEEFAE300E00BBF02C007900D92AC3B2E
:10029000B107D9F724E1ACEBB2E101C01D92A4385B
:1002A000B207E1F711E0C5E3D1E000E006C0219715
:1002B0000109802FFE010E94581DC433D10780E040
:1002C0000807A9F70E94820B0C94741D0C9400007F
:1002D000EFE8F3E1A089B18982E08C93A485B5852C
:1002E0001C92A685B7858FEC8C93108EA489B58956
:1002F00086E08C93A289B3898C9180618C93A289CA
:10030000B3898C9188608C93A289B3898C91806821
:100310008C930288F389E02D80818F7D80830895FE
:100320008150823108F05AC0E82FF0E08827E45667
:10033000FE4F8F4F0C94581DBC01C001AE01B4019B
:10034000B801EE01C301C901CD01D301D701DB0121
:10035000E101E501EE01E901EF01F3018091800087
:100360008F77809380000895809180008F7DF9CFF2
:1003700080918000877FF5CF84B58F7784BD089505
:1003800084B58F7DFBCF8091B0008F778093B000D4
:1003900008958091B0008F7DF9CF809190008F7784
:1003A000809390000895809190008F7DF9CF809187
:1003B0009000877FF5CF8091A0008F778093A00079
:1003C00008958091A0008F7DF9CF8091A000877F54
:1003D000F5CF809120018F7780932001089580913F
:1003E00020018F7DF9CF80912001877FF5CFCF93BA
:1003F000DF93282F30E0F901EE5DFD4F8491F90184
:10040000E452FE4FD491F901EA56FE4FC491CC2339
:10041000A1F081110E949001EC2FF0E0EE0FFF1F80
:10042000E458FE4FA591B491EC91ED2381E090E06A
:1004300009F480E0DF91CF91089580E090E0FACF59
:100440001F93CF93DF93282F30E0F901EE5DFD4F2E
:100450008491F901E452FE4FD491F901EA56FE4F1E
:10046000C491CC23A9F0162F81110E949001EC2F8A
:10047000F0E0EE0FFF1FEE59FE4FA591B4918FB73C
:10048000F894EC91111108C0D095DE23DC938FBF56
:10049000DF91CF911F910895DE2BF8CFCF93DF939B
:1004A00090E0FC01E452FE4F24918A569E4FFC01DD
:1004B00084918823D1F090E0880F991FFC01E85BBC
:1004C000FE4FA591B491FC01EE59FE4FC591D49118
:1004D00061110EC09FB7F8948C91E22FE0958E23A6
:1004E0008C932881E223E8839FBFDF91CF91089509
:1004F0008FB7F894EC91E22BEC938FBFF6CF9091ED
:100500007B00977F90937B008653806480937C0070
:1005100080917A00806480937A0080917A0086FDD1
:10052000FCCF809178009091790008953FB7F894BE
:1005300080918B1390918C13A0918D13B0918E1399
:1005400026B5A89B05C02F3F19F00196A11DB11D2E
:100550003FBFBA2FA92F982F8827BC01CD01620F6A
:10056000711D811D911D42E0660F771F881F991F25
:100570004A95D1F708958F929F92AF92BF92CF92F2
:10058000DF92EF92FF924B015C010E9496026B0199
:100590007C010E9496026C197D098E099F09683EB4
:1005A000734081059105A8F321E0821A9108A10802
:1005B000B10888EEC80E83E0D81EE11CF11C81143E
:1005C0009104A104B10429F7FF90EF90DF90CF9040
:1005D000BF90AF909F908F9008952FB7F89460913F
:1005E0008713709188138091891390918A132FBF7C
:1005F0000895AF92BF92CF92DF92EF92FF920F9346
:100600001F93CF93DF936C017B018B01040F151FA8
:10061000EB015E01AE18BF08C017D10759F0699110
:10062000D601ED91FC910190F081E02DC601199564
:10063000892B79F7C501DF91CF911F910F91FF9021
:10064000EF90DF90CF90BF90AF900895FC01538D55
:10065000448D252F30E0842F90E0821B930B54179C
:1006600010F0CF96089501970895FC01918D828D29
:10067000981761F0A28DAE0FBF2FB11D5D968C91C2
:10068000928D9F5F9F73928F90E008958FEF9FEF01
:100690000895FC01918D828D981731F0828DE80FBD
:1006A000F11D858D90E008958FEF9FEF0895FC0177
:1006B000918D228D892F90E0805C9F4F821B910944
:1006C0008F73992708958FE893E10E94570321E0E3
:1006D000892B09F420E0822F0895FC01A48DA80F36
:1006E000B92FB11DA35ABF4F2C91848D90E0019674
:1006F0008F739927848FA689B7892C93A089B18994
:100700008C91837080648C93938D848D981306C034
:100710000288F389E02D80818F7D80830895EF9298
:10072000FF920F931F93CF93DF93EC0181E0888FAB
:100730009B8D8C8D98131AC0E889F989808185FF7B
:1007400015C09FB7F894EE89FF896083E889F9891D
:1007500080818370806480839FBF81E090E0DF911F
:10076000CF911F910F91FF90EF900895F62E0B8D72
:1007700010E00F5F1F4F0F731127E02E8C8D8E112D
:100780000CC00FB607FCFACFE889F989808185FF94
:10079000F5CFCE010E946D03F1CFEB8DEC0FFD2F55
:1007A000F11DE35AFF4FF0829FB7F8940B8FEA894F
:1007B000FB8980818062CFCFCF93DF93EC01888D5E
:1007C0008823B9F0AA89BB89E889F9898C9185FDCC
:1007D00003C0808186FD0DC00FB607FCF7CF8C915A
:1007E00085FFF2CF808185FFEDCFCE010E946D03A2
:1007F000E9CFDF91CF91089580E090E0892B29F037
:100800000E94630381110E94000080E090E0892B28
:1008100049F080E090E0892B29F00E9400008111CE
:100820000E94000080E090E0892B49F080E090E099
:10083000892B29F00E94000081110E94000080E0B5
:1008400090E0892B49F080E090E0892B29F00E940C
:10085000000081110C9400000895CF93DF93209144
:10086000601330916113C0916213D0916313F90149
:1008700084E0EE0FFF1F8A95E1F7E452FD4EEC0F86
:10088000FD1F1082E0E1F0E0CE01BF010E94441D97
:1008900044E0220F331F4A95E1F724513D4ED90120
:1008A000A80FB91F1C92CE010196BF010E94441DE2
:1008B000D901A80FB91F1C92CE010296BF010E9458
:1008C000441D280F391FF9011082DF91CF9108953F
:1008D000CF93DF93C82FDEE0D60F60E08D2F0E940C
:1008E0002002CA5E61E08C2F0E94200261E070E06D
:1008F00080E090E00E94BB0261E08D2F0E94200208
:1009000060E08C2FDF91CF910C9420028CED92E16E
:1009100030E020E0FC01E20FF31F10822F5F3F4F19
:1009200020313105B9F7409623E18C35920781F7E4
:100930000895CF92DF92EF92FF920F931F93CF9380
:10094000DF931F921F92CDB7DEB769834A83880F6A
:10095000991F0091821410918314000F111FECE273
:10096000F4E19F012C5234412017310714F4119205
:10097000F8CF2981FC01E45DFB4E21838A818083CD
:1009800060E0809180140E9420021016110604F588
:1009900001501109F801E45DFB4EE080D0907E1417
:1009A000C0907C1488E0F82E6E2D661F6627661FA7
:1009B0008C2D0E942002EE0C61E08D2D0E94200201
:1009C00060E08D2D0E942002FA94F110EDCFDDCF72
:1009D00061E0809180140F900F90DF91CF911F9173
:1009E0000F91FF90EF90DF90CF900C942002EF9248
:1009F000FF920F931F93CF937C018C0183E0000F34
:100A0000111F8A95E1F7045C1B4EC1E0F8011192B9
:100A10008F0140E06C2FC7010E949904CF5FC9305D
:100A2000A9F7CF911F910F91FF90EF90089520911A
:100A300082143091831412161306FCF48830910549
:100A4000E1F068307105C9F020E830E002C035956A
:100A500027956A95E2F7FC01E45DFB4E508944233B
:100A600049F0252B208B61E0680F408990E080E001
:100A70000C94990420952523F5CF0895AF92BF9249
:100A8000CF92DF92EF92FF920F931F93CF93DF935A
:100A90003CEDE32E32E1F32E10E000E0D0E0C0E0C8
:100AA00041E0F701EC0FFD1F8081813009F040E04B
:100AB000BE01C8010E9417052196C830D10581F7F3
:100AC0000F5F1F4F80E1E80EF11C0830110531F770
:100AD00093E0E92EF12C23ECA22EB12C8CEDC82E44
:100AE00082E1D82E10E000E0C8E0D0E0F601EC0F83
:100AF000FD1F8081813001F5B801CE0108970E9469
:100B000068042196C031D10589F70F5F1F4F80E13E
:100B1000C80ED11C0830110539F781E0E81AF10838
:100B2000E9F6DF91CF911F910F91FF90EF90DF9049
:100B3000CF90BF90AF900895C5010197F1F7E1CF35
:100B4000CF92DF92EF92FF920F931F93CF93DF9399
:100B500028EAE22E2DE0F22E670110E000E0D0E05E
:100B6000C0E0FE01EE0FFF1FEC0DFD1D41E0808196
:100B70009181019709F040E0BE01C8010E9417056C
:100B80002196C830D10569F70F5F1F4F80E2C80E6C
:100B9000D11C0830110519F710E000E0C8E0D0E0E2
:100BA000FE01EE0FFF1FEE0DFF1D80819181019769
:100BB00029F4B801CE0108970E9468042196C0313B
:100BC000D10571F70F5F1F4F80E2E80EF11C08306E
:100BD000110521F7DF91CF911F910F91FF90EF90B9
:100BE000DF90CF900895CF92DF92EF92FF920F9314
:100BF0001F93CF93DF9328EAE22E2CE0F22E6701B9
:100C000010E000E0D0E0C0E0FE01EE0FFF1FEC0DB1
:100C1000FD1D41E080819181019709F040E0BE0116
:100C2000C8010E9417052196C830D10569F70F5FEA
:100C30001F4F80E2C80ED11C0830110519F710E0D3
:100C400000E0C8E0D0E0FE01EE0FFF1FEE0DFF1D3B
:100C500080819181019729F4B801CE0108970E9403
:100C600068042196C031D10571F70F5F1F4F80E2F4
:100C7000E80EF11C0830110521F7DF91CF911F918B
:100C80000F91FF90EF90DF90CF900895CF92DF9279
:100C9000EF92FF920F931F93CF93DF9328EAE22EF8
:100CA0002BE0F22E670110E000E0D0E0C0E0FE0192
:100CB000EE0FFF1FEC0DFD1D41E08081918101973A
:100CC00009F040E0BE01C8010E9417052196C83016
:100CD000D10569F70F5F1F4F80E2C80ED11C0830A5
:100CE000110519F710E000E0C8E0D0E0FE01EE0FBA
:100CF000FF1FEE0DFF1D80819181019729F4B8013E
:100D0000CE0108970E9468042196C031D10571F781
:100D10000F5F1F4F80E2E80EF11C0830110521F72C
:100D2000DF91CF911F910F91FF90EF90DF90CF90C7
:100D30000895CF92DF92EF92FF920F931F93CF937C
:100D4000DF9328EAE22E2AE0F22E670110E000E0AD
:100D5000D0E0C0E0FE01EE0FFF1FEC0DFD1D41E0F5
:100D600080819181019709F040E0BE01C8010E9495
:100D700017052196C830D10569F70F5F1F4F80E234
:100D8000C80ED11C0830110519F710E000E0C8E0CA
:100D9000D0E0FE01EE0FFF1FEE0DFF1D808191815F
:100DA000019729F4B801CE0108970E9468042196A2
:100DB000C031D10571F70F5F1F4F80E2E80EF11CC3
:100DC0000830110521F7DF91CF911F910F91FF900E
:100DD000EF90DF90CF900895CF92DF92EF92FF9245
:100DE0000F931F93CF93DF9328EAE22E29E0F22E90
:100DF000670110E000E0D0E0C0E0FE01EE0FFF1F51
:100E0000EC0DFD1D41E080819181019709F040E0EA
:100E1000BE01C8010E9417052196C830D10569F7A7
:100E20000F5F1F4F80E2C80ED11C0830110519F763
:100E300010E000E0C8E0D0E0FE01EE0FFF1FEE0D75
:100E4000FF1D80819181019729F4B801CE01089797
:100E50000E9468042196C031D10571F70F5F1F4FC2
:100E600080E2E80EF11C0830110521F7DF91CF91E7
:100E70001F910F91FF90EF90DF90CF900895CF9248
:100E8000DF92EF92FF920F931F93CF93DF9328EAA5
:100E9000E22E28E0F22E670110E000E0D0E0C0E092
:100EA000FE01EE0FFF1FEC0DFD1D41E080819181E1
:100EB000019709F040E0BE01C8010E941705219684
:100EC000C830D10569F70F5F1F4F80E2C80ED11CF3
:100ED0000830110519F710E000E0C8E0D0E0FE018D
:100EE000EE0FFF1FEE0DFF1D80819181019729F408
:100EF000B801CE0108970E9468042196C031D1053F
:100F000071F70F5F1F4F80E2E80EF11C08301105EA
:100F100021F7DF91CF911F910F91FF90EF90DF901C
:100F2000CF900895CF92DF92EF92FF920F931F938D
:100F3000CF93DF9328EAE22E27E0F22E670110E03C
:100F400000E0D0E0C0E0FE01EE0FFF1FEC0DFD1D44
:100F500041E080819181019709F040E0BE01C80124
:100F60000E9417052196C830D10569F70F5F1F4F02
:100F700080E2C80ED11C0830110519F710E000E01E
:100F8000C8E0D0E0FE01EE0FFF1FEE0DFF1D8081D7
:100F90009181019729F4B801CE0108970E94680455
:100FA0002196C031D10571F70F5F1F4F80E2E80E27
:100FB000F11C0830110521F7DF91CF911F910F919E
:100FC000FF90EF90DF90CF900895CF92DF92EF9255
:100FD000FF920F931F93CF93DF9328EAE22E26E030
:100FE000F22E670110E000E0D0E0C0E0FE01EE0F5D
:100FF000FF1FEC0DFD1D41E080819181019709F0FB
:1010000040E0BE01C8010E9417052196C830D105F5
:1010100069F70F5F1F4F80E2C80ED11C0830110521
:1010200019F710E000E0C8E0D0E0FE01EE0FFF1F6E
:10103000EE0DFF1D80819181019729F4B801CE0149
:1010400008970E9468042196C031D10571F70F5F9F
:101050001F4F80E2E80EF11C0830110521F7DF91E7
:10106000CF911F910F91FF90EF90DF90CF90089557
:10107000CF92DF92EF92FF920F931F93CF93DF9364
:1010800028EAE22E25E0F22E670110E000E0D0E031
:10109000C0E0FE01EE0FFF1FEC0DFD1D41E0808161
:1010A0009181019709F040E0BE01C8010E94170537
:1010B0002196C830D10569F70F5F1F4F80E2C80E37
:1010C000D11C0830110519F710E000E0C8E0D0E0AD
:1010D000FE01EE0FFF1FEE0DFF1D80819181019734
:1010E00029F4B801CE0108970E9468042196C03106
:1010F000D10571F70F5F1F4F80E2E80EF11C083039
:10110000110521F7DF91CF911F910F91FF90EF9083
:10111000DF90CF900895CF92DF92EF92FF920F93DE
:101120001F93CF93DF9328EAE22E24E0F22E67018B
:1011300010E000E0D0E0C0E0FE01EE0FFF1FEC0D7C
:10114000FD1D41E080819181019709F040E0BE01E1
:10115000C8010E9417052196C830D10569F70F5FB5
:101160001F4F80E2C80ED11C0830110519F710E09E
:1011700000E0C8E0D0E0FE01EE0FFF1FEE0DFF1D06
:1011800080819181019729F4B801CE0108970E94CE
:1011900068042196C031D10571F70F5F1F4F80E2BF
:1011A000E80EF11C0830110521F7DF91CF911F9156
:1011B0000F91FF90EF90DF90CF900895CF92DF9244
:1011C000EF92FF920F931F93CF93DF9328EAE22EC3
:1011D00023E0F22E670110E000E0D0E0C0E0FE0165
:1011E000EE0FFF1FEC0DFD1D41E080819181019705
:1011F00009F040E0BE01C8010E9417052196C830E1
:10120000D10569F70F5F1F4F80E2C80ED11C08306F
:10121000110519F710E000E0C8E0D0E0FE01EE0F84
:10122000FF1FEE0DFF1D80819181019729F4B80108
:10123000CE0108970E9468042196C031D10571F74C
:101240000F5F1F4F80E2E80EF11C0830110521F7F7
:10125000DF91CF911F910F91FF90EF90DF90CF9092
:101260000895CF92DF92EF92FF920F931F93CF9347
:10127000DF9328EAE22E22E0F22E670110E000E080
:10128000D0E0C0E0FE01EE0FFF1FEC0DFD1D41E0C0
:1012900080819181019709F040E0BE01C8010E9460
:1012A00017052196C830D10569F70F5F1F4F80E2FF
:1012B000C80ED11C0830110519F710E000E0C8E095
:1012C000D0E0FE01EE0FFF1FEE0DFF1D808191812A
:1012D000019729F4B801CE0108970E94680421966D
:1012E000C031D10571F70F5F1F4F80E2E80EF11C8E
:1012F0000830110521F7DF91CF911F910F91FF90D9
:10130000EF90DF90CF900895FC0101900020E9F765
:101310003197AF01481B590BBC018FE893E10C9446
:10132000F9028F929F92AF92BF920F931F93CF9328
:10133000DF93CDB7DEB7A1970FB6F894DEBF0FBE2F
:10134000CDBF19A2423008F44AE08E010F5D1F4F55
:10135000842E912CB12CA12CA50194010E94D01AAD
:10136000E62FB901CA01EA30F4F4E05DD801EE934A
:101370008D01232B242B252B79F790E080E010970B
:1013800019F0CD010E948409A1960FB6F894DEBF32
:101390000FBECDBFDF91CF911F910F91BF90AF9046
:1013A0009F908F900895E95CE1CFCF92DF92EF920A
:1013B000FF92CF93DF936C01990FEE08FF08F7FEC1
:1013C0001FC06DE28FE893E10E948F03EC01662756
:1013D0007727CB016C197D098E099F094AE00E948D
:1013E0009109C80FD91F82E992E10E9484098C0FEC
:1013F0009D1FDF91CF91FF90EF90DF90CF900895E8
:101400004AE0C701B6010E949109EC01ECCFCF93ED
:10141000DF930E948409EC0182E992E10E94840931
:101420008C0F9D1FDF91CF910895CF93DF934AE0FA
:101430000E949109EC0182E992E10E9484098C0FDB
:101440009D1FDF91CF9108951F920F920FB60F92BB
:1014500011242F933F938F939F93AF93BF938091CA
:10146000871390918813A0918913B0918A133091BA
:10147000861323E0230F2D3758F50196A11DB11DCA
:10148000209386138093871390938813A0938913D6
:10149000B0938A1380918B1390918C13A0918D132C
:1014A000B0918E130196A11DB11D80938B13909363
:1014B0008C13A0938D13B0938E13BF91AF919F9116
:1014C0008F913F912F910F900FBE0F901F90189505
:1014D00026E8230F0296A11DB11DD2CF1F920F92B5
:1014E0000FB60F9211240BB60F922F933F934F9389
:1014F0005F936F937F938F939F93AF93BF93EF937C
:10150000FF938FE893E10E946D03FF91EF91BF91EC
:10151000AF919F918F917F916F915F914F913F918B
:101520002F910F900BBE0F900FBE0F901F9018952C
:101530001F920F920FB60F9211240BB60F922F939A
:101540008F939F93EF93FF93E0919F13F091A013DC
:101550008081E091A513F091A61382FD1DC09081BA
:101560008091A8138F5F8F732091A913821741F088
:10157000E091A813F0E0E157FC4E958F8093A813FB
:10158000FF91EF919F918F912F910F900BBE0F9034
:101590000FBE0F901F9018958081F2CFCF93DF93ED
:1015A000109292131092911388EE93E0A0E0B0E0B5
:1015B0008093931390939413A0939513B0939613E1
:1015C00084E892E19093901380938F1385EC90E0E0
:1015D00090939C1380939B1384EC90E090939E13C4
:1015E00080939D1380EC90E09093A01380939F13C1
:1015F00081EC90E09093A2138093A11382EC90E091
:101600009093A4138093A31386EC90E09093A61379
:101610008093A5131092A8131092A9131092AA13E5
:101620001092AB13C7E0D0E0D0937D14C0937C142C
:1016300086E090E090937F1480937E1485E090E0A4
:10164000909381148093801481E090E090938314B0
:101650008093821461E087E00E944E0261E08091F5
:101660007E140E944E0261E0809180140E944E021E
:1016700061E0809180140E942002D0937D14C09379
:101680007C14ECE3F4E1119284E1EC37F807D9F72C
:10169000D0E0C0E08091821490918314C817D907DC
:1016A00074F540E06FE0CE010E94990480918214AD
:1016B00090918314C817D9072CF447E06BE0CE0152
:1016C0000E94990440E069E0CE010E949904809153
:1016D000821490918314C817D9071CF4CE010E947C
:1016E000F7048091821490918314C817D9072CF4C1
:1016F00040E06CE0CE010E9499042196CBCFDF91AF
:10170000CF910895CF93DF9300D000D0CDB7DEB74F
:10171000789484B5826084BD84B5816084BD85B5CC
:10172000826085BD85B5816085BD80916E008160D8
:1017300080936E001092810080918100826080937E
:101740008100809181008160809381008091800080
:101750008160809380008091B10084608093B100AB
:101760008091B00081608093B00080919100826090
:10177000809391008091910081608093910080918D
:1017800090008160809390008091A100826080939E
:10179000A1008091A10081608093A1008091A000B0
:1017A00081608093A000809121018260809321015B
:1017B00080912101816080932101809120018160CD
:1017C0008093200180917A00846080937A008091D8
:1017D0007A00826080937A0080917A0081608093A1
:1017E0007A0080917A00806880937A001092C1001C
:1017F00080918214909183141816190634F441E0F4
:101800006CE090E080E00E949904809182149091B5
:1018100083141816190634F448E06AE090E080E07A
:101820000E9499040EE0098361E089810E944E02C2
:1018300019811F5F19831631B9F761E089810E9410
:101840004E0209810F5F09830E31B9F71EE019833B
:1018500061E089810E94200209810F5F09830631BE
:10186000B9F760E089810E94200219811F5F198306
:101870001E31B9F760E08DE00E944E0260E08CE01E
:101880000E944E0260E08BE00E944E0260E08AE01F
:101890000E944E02412C74E0572E612C712CEBEC0F
:1018A0002E2EE7E03E2E8091841390918513892B94
:1018B00009F09EC10E9468018DE00E94F7019A83A1
:1018C00089838AE00E94F7018C010E94ED02C0909A
:1018D000C412D090C512E090C612F090C712AB01AE
:1018E000BC014C195D096E097F09809198029091A5
:1018F0009902092E000CAA0BBB0B481759076A075F
:101900007B07C4F00E94ED026093C4127093C5126D
:101910008093C6129093C7128091020290910302A5
:101920002091000230910102820F931F90930302D5
:10193000809302028091C2129091C31229813A8150
:101940002817390751F00E94ED026093BE12709380
:10195000BF128093C0129093C1128091DA129091BD
:10196000DB120817190769F10E94ED0260936A13F0
:1019700070936B1380936C1390936D13013011056A
:1019800071F485E992E10E94070A0E94ED026093DA
:10199000D6127093D7128093D8129093D91249819E
:1019A0005A81452B71F48EE992E10E94070A0E9448
:1019B000ED026093D2127093D3128093D41290935D
:1019C000D5120E94ED02C090BE12D090BF12E090DE
:1019D000C012F090C1126C197D098E099F09633302
:1019E000710581059105E8F08091BC129091BD12BE
:1019F00069817A8168177907A1F07093BD126093AD
:101A0000BC126130710569F480910002909101026D
:101A1000019709F006C28FEF9FEF90930102809328
:101A200000020E94ED02C090D612D090D712E09032
:101A3000D812F090D9126C197D098E099F090E9465
:101A4000150A6091D6127091D7128091D812909198
:101A5000D9120E94150A6091D2127091D31280910E
:101A6000D4129091D5120E94150A87EA92E10E9441
:101A7000070AC090D612D090D712E090D812F090FA
:101A8000D9128091D2129091D312A091D412B09118
:101A9000D512C816D906EA06FB0601F10115110593
:101AA000E9F48C199D09AE09BF09803D9740A10555
:101AB000B105A0F064E670E080E090E00E94BB0217
:101AC000C092D212D092D312E092D412F092D512D8
:101AD00081E090E090938513809384131093DB1240
:101AE0000093DA1209811A811093C3120093C21273
:101AF000C0900202D0900302ECEDF2E18F011A8255
:101B000019824BE730E020E069817A81469FC0016D
:101B1000479F900D1124DC01A855B14F7D01C601EE
:101B2000820F931F6BE770E00E94441DD701A80F3E
:101B3000B91F8C91D801A20FB31F813009F074C175
:101B40008C932F5F3F4F2031310549F729813A812E
:101B50002F5F3F4F3A832983005F1F4F28303105A5
:101B600089F638E7C316D104C4F08CED92E130E079
:101B700020E0DC01A20FB31F1C922F5F3F4F2031EA
:101B80003105B9F7409643E18C35940781F78CEF26
:101B90009FEF909303028093020280910202909142
:101BA00003028B3F9F4FB4F42CE533E190E080E0DB
:101BB000DF01A80FB91F1C92019680319105C1F772
:101BC00070962E173F0791F789E690E090930302F5
:101BD0008093020262E070E080E090E00E94BB022D
:101BE0000E943E0561E070E080E090E00E94BB0250
:101BF00080918413909185138130910509F016C16D
:101C00000E9486046AE070E080E090E00E94BB02DF
:101C10000E94A0058CE00E94F7019A8389838BE0E3
:101C20000E94F7018C018DE00E94F7017C018091F8
:101C300082139091831369817A816817790751F033
:101C40000E94ED0260937E1370937F138093801344
:101C50009093811380917C1390917D13081719073D
:101C600051F00E94ED026093781370937913809382
:101C70007A1390937B130E94ED0280907E139090D4
:101C80007F13A0908013B0908113681979098A0995
:101C90009B09633371058105910508F456C0809155
:101CA000761390917713A981BA81A817B90709F41F
:101CB0004CC0B0937713A0937613119709F045C0E9
:101CC0008091A2029091A3029093A1028093A0021E
:101CD000109275131092741380919E0290919F023E
:101CE000019690939F0280939E02E8E0F2E088E4E0
:101CF00092E01382128234968E179F07D1F71092CA
:101D0000CB121092CA1283E090E090939D028093D0
:101D10009C0281E090E090939B0280939A020E9443
:101D2000ED0260937013709371138093721390930C
:101D3000731362E370E080E090E00E94BB0285E0F4
:101D400090E090938513809384130E94ED0280901D
:101D5000781390907913A0907A13B0907B13681940
:101D600079098A099B096333710581059105D0F0D2
:101D700080916E1390916F130817190799F01093C3
:101D80006F1300936E130130110561F464E670E087
:101D900080E090E00E94BB0284E090E09093851385
:101DA000809384130E94ED0280906A1390906B13CD
:101DB000A0906C13B0906D13681979098A099B097A
:101DC0006333710581059105D8F080916813909176
:101DD0006913E816F906A1F0F0926913E09268130E
:101DE000B1E0EB16F10461F464E670E080E090E0AD
:101DF0000E94BB0286E090E0909385138093841349
:101E000010937D1300937C1309811A81109383131F
:101E100000938213F0926713E09266130E94FC0312
:101E200042CD89819A81F9CD1C928BCE8230910569
:101E300009F041C28DE00E94F7017C010E942D044F
:101E40000E94ED020091C4121091C5122091C61299
:101E50003091C712AB01BC01401B510B620B730BDD
:101E60008091980290919902092E000CAA0BBB0B4D
:101E7000481759076A077B070CF4CDC0009162131D
:101E8000109163130E94ED026093C4127093C51207
:101E90008093C6129093C7120F5F1F4F1A83098356
:101EA0000031110509F441C01093631300936213CC
:101EB00020910602309107022F3F320709F4ABC090
:101EC000A9014F5F5F4FE0910402F0910502DA0132
:101ED00064E0AA0FBB1F6A95E1F7A452BD4EAE0F96
:101EE000BF1F8C91813009F082C0CF01880F991FEC
:101EF000880F991FDC01A85FBD4F12964D915C9130
:101F00005A834983BF0164527D4E50E040E06051E6
:101F10007109A981BA814A175B0764F4DB01A058F3
:101F2000BF4F1C924F5F5F4FF2CF1092631310921E
:101F30006213BECF885F9D4FDC0113961C921E92E8
:101F4000129700917413109175130F5F1F4F1A832E
:101F500009831093751300937413C80165E070E052
:101F60000E94441D892B59F4012B49F08091A00255
:101F70009091A10201969093A1028093A00280917A
:101F8000CA129091CB1201979093CB128093CA12F0
:101F9000892BC1F480919A0290919B0201969093B3
:101FA0009B0280939A0280919C0290919D020196DF
:101FB00090939D0280939C0285E090E0909385131E
:101FC0008093841304E0220F331F0A95E1F7245213
:101FD0003D4EE20FF31F10828FEF9FEF90930502AB
:101FE00080930402909307028093060214C0C901F3
:101FF00014E0880F991F1A95E1F784529D4EE80F5F
:10200000F91F1082273031053CF7509307024093A7
:10201000060281E08C930E94ED02009170131091F2
:1020200071132091721330917313601B710B820B2B
:10203000930B683E734081059105A0F000916013F9
:10204000109161130E94ED026093701370937113ED
:1020500080937213909373130F5F1F4F109361134C
:10206000009360138091C2129091C312E816F90692
:1020700051F00E94ED026093BE127093BF128093E4
:10208000C0129093C1120E94ED0220916213309110
:10209000631340916013509161138090BE12909031
:1020A000BF12A090C012B090C112681979098A09B4
:1020B0009B09633371058105910580F18091BC1204
:1020C0009091BD12E816F90649F1F092BD12E09226
:1020D000BC1211E0E116F10409F58091040290911F
:1020E00005020196D9F480910602909107020196AB
:1020F000A9F43093050220930402FA013296F0937A
:102100000702E093060274E0EE0FFF1F7A95E1F7F5
:10211000E452FD4EE20FF31F81E08083F092C31280
:10212000E092C21289010E5F1F4FFA0164E0EE0FC8
:10213000FF1F6A95E1F7E451FD4EDF01A00FB11FCB
:102140008C91813009F08FC0425051095093611336
:10215000409360132250310930936313209362132C
:102160008091A0029091A10201979093A102809387
:10217000A002892B71F5109285131092841310928E
:102180006313109262131092611310926013809186
:102190009E0290919F0265E070E00E94441DDC0168
:1021A00094E0AA0FBB1F9A95E1F7A85BBD4FBA83D5
:1021B000A9836091741370917513072E000C880B1E
:1021C000990B0E941D1CE981FA81648375838683C3
:1021D00097830E943E058AE00E94F7019A838983D3
:1021E000809166139091671309811A810817190766
:1021F00051F00E94ED0260936A1370936B13809309
:102200006C1390936D130E94ED0200916A1310916C
:102210006B1320916C1330916D13601B710B820B4B
:10222000930B6333710581059105B0F080916813BC
:102230009091691309811A810817190769F01093A1
:102240006913009368130130110531F483E090E0C5
:10225000909385138093841309811A8110936713D7
:1022600000936613DBCDDA0184E0AA0FBB1F8A95C9
:10227000E1F7A452BD4EA20FB31F41E04C93C90138
:1022800060E170E00E94441DDF01A80FB91F4C936C
:10229000C901019660E170E00E94441DDF01A80FB2
:1022A000B91F4C93C80160E170E00E94441DE80F23
:1022B000F91F40838ECF8330910509F098C180913A
:1022C000A0029091A102009709F041C10091C812AB
:1022D0001091C9121A8309830431110508F01EC137
:1022E0000E9431090F5F1F4F1093C9120093C8124B
:1022F0000E94680164E670E080E090E00E94BB020A
:102300008AE00E94F7019A8389838091DA12909182
:10231000DB1209811A8108171907E1F00E94ED020A
:1023200060936A1370936B1380936C1390936D1387
:102330000130110509F047C185E992E10E94070AC1
:102340000E94ED026093D6127093D7128093D81238
:102350009093D9120E94ED0200916A1310916B13B1
:1023600020916C1330916D13601B710B820B930BDA
:10237000633371058105910568F08091D0129091C9
:10238000D11209811A810817190721F01093D1126F
:102390000093D0120E94ED020091D6121091D71234
:1023A0002091D8123091D912601B710B820B930BC4
:1023B0000E94150A6091D6127091D7128091D8129E
:1023C0009091D9120E94150A6091D2127091D31285
:1023D0008091D4129091D5120E94150A87EA92E159
:1023E0000E94070AC090D612D090D712E090D8125F
:1023F000F090D9128091D2129091D312A091D41260
:10240000B091D512C816D906EA06FB0609F47FC0BA
:1024100009811A81012B09F07AC08C199D09AE0936
:10242000BF09883B9B40A105B10508F443C0E8E023
:10243000F2E088E492E01382128234968E179F07AE
:10244000D1F71092CB121092CA12C092D212D0922F
:10245000D312E092D412F092D51280919E02909104
:102460009F0265E070E00E94441D8C01F4E0000FC3
:10247000111FFA95E1F7085B1D4F6091741370917D
:102480007513072E000C880B990B0E941D1CD80198
:1024900014966D937D938D939C93179764E670E0EB
:1024A00080E090E00E94BB0281E090E09093851371
:1024B000809384138091D2129091D312A091D41260
:1024C000B091D512805D9740A109B1098C199D0981
:1024D000AE09BF09883E9340A105B105C0F40E9432
:1024E000ED02609370137093711380937213909345
:1024F0007313C092D212D092D312E092D412F092FF
:10250000D51282E090E09093851380938413098123
:102510001A811093DB120093DA1280CC89819A81A0
:1025200044970A9728F40E943E0509811A81DACE61
:102530000E94A005809182149091831418161906A8
:102540000CF0D6CE90E080E00E94F704D1CE81302E
:10255000910519F40E94DE08CBCE8230910519F462
:102560000E948B08C5CE8330910519F40E9438086B
:10257000BFCE8430910519F40E94E507B9CE8530AD
:10258000910519F40E949207B3CE8630910519F493
:102590000E943F07ADCE8730910519F40E94EC06EA
:1025A000A7CE8830910519F40E949906A1CE8930F2
:1025B000910519F40E9446069BCE0A9709F098CE21
:1025C0000E94F30595CE09811A81012B09F0C2CE34
:1025D0008EE992E10E94070A0E94ED026093D212F6
:1025E0007093D3128093D4129093D512B3CE8430CB
:1025F000910509F072C18091641390916513892B44
:1026000059F40E9486040E943E0581E090E0909378
:1026100065138093641302CC86E30E947F02BC01A1
:10262000990F880B990B53E0660F771F881F991F2E
:102630005A95D1F7A30192010E949E1A69013A832B
:10264000298330935D1320935C1387E30E947F02FC
:10265000BC01990F880B990BE3E0660F771F881F69
:10266000991FEA95D1F7A30192010E949E1AC90110
:1026700061EF86016003F001619FF00D1124BF013D
:1026800068537F4F709399026093980289010D5FA0
:102690001F4F1093A3020093A202ECEDF2E1DF01C1
:1026A00030E020E041E009811A81021713070CF0A5
:1026B000F0C050961C9250972F5F3F4F11962031DB
:1026C000310589F730E020E041E009811A810217E5
:1026D00013070CF0E2C010A22F5F3F4F319620315C
:1026E000310599F750E040E061E09A01205C3F4FEE
:1026F000841795070CF0D3C024523D4ED9011C928B
:102700004F5F5F4F4031510581F750E040E061E09D
:102710009A01205B3F4F841795070CF0C5C02452E7
:102720003D4ED9011C924F5F5F4F4031510581F7FB
:102730008AE00E94F7019A8389838091DA1290914E
:10274000DB1209811A8108171907E1F00E94ED02D6
:1027500060936A1370936B1380936C1390936D1353
:102760000130110509F0A5C085E992E10E94070A30
:102770000E94ED026093D6127093D7128093D81204
:102780009093D9120E94ED0200916A1310916B137D
:1027900020916C1330916D13601B710B820B930BA6
:1027A000633371058105910568F08091D012909195
:1027B000D11209811A810817190721F01093D1123B
:1027C0000093D0120E94ED020091D6121091D71200
:1027D0002091D8123091D912601B710B820B930B90
:1027E0000E94150A6091D6127091D7128091D8126A
:1027F0009091D9120E94150A6091D2127091D31251
:102800008091D4129091D5120E94150A87EA92E124
:102810000E94070A4091D6125091D7126091D812A7
:102820007091D9128091D2129091D312A091D412AA
:10283000B091D512481759076A077B0709F109813A
:102840001A81012BE9F4841B950BA60BB70B883B6F
:102850009B40A105B105A0F04093D2125093D31232
:102860006093D4127093D51264E670E080E090E03B
:102870000E94BB0281E090E09093851380938413C3
:1028800009811A811093DB120093DA120E943E052F
:10289000C5CA50964C9350970FCF40A31DCF2452DA
:1028A0003D4EF90160832CCF24523D4EF9016083E7
:1028B0003ACF09811A81012B09F064CF8EE992E1A8
:1028C0000E94070A0E94ED026093D2127093D31205
:1028D0008093D4129093D51255CF8530910509F08D
:1028E0001EC180919A0290919B02009709F09AC0B4
:1028F0000E94310980918214909183141816190650
:1029000024F490E080E00E94F7040E94ED02009120
:102910007013109171132091721330917313601B17
:10292000710B820B930B603D77408105910508F494
:1029300075CA0E942D048AEA92E10E94070A8091DA
:10294000CA129091CB120E94D50980919C0290915D
:102950009D020E94D5092091CA123091CB1280911C
:102960009C0290919D02281739070CF097C00E9495
:10297000ED02611571058105910511F00E94951A0E
:102980000E94461A2FE030E040E050E00E949E1A7C
:102990006B018B01C1010197F1F70E94ED026F5F9E
:1029A0007F4F8F4F9F4F11F00E94951A0E94461A39
:1029B000F1013197F1F79601220F331F220F331FD8
:1029C000285F3D4F3A832983D90112962D913C917E
:1029D000232B09F0C0CF23E030E040E050E00E941C
:1029E0009E1A6B017C01BFEFCB1ADB0AEB0AFB0AD4
:1029F000E981FA81D382C2828091CA129091CB126E
:102A000001969093CB128093CA120E94D509C801F7
:102A10000E94D509C6010E94D50982E992E10E946F
:102A2000840999CF8130910519F40E94DE0862CFA4
:102A30008230910519F40E948B085CCF8330910598
:102A400019F40E94380856CF8430910519F40E9479
:102A5000E50750CF8530910519F40E9492074ACFBF
:102A60008630910519F40E943F0744CF87309105C5
:102A700019F40E94EC063ECF8830910519F40E94AB
:102A8000990638CF8930910519F40E94460632CF55
:102A90000A9709F02FCF0E94F3052CCFE8E0F2E06F
:102AA00008E412E0FF24F3946281738161157105DB
:102AB000C9F030E020E026173707A4F487E090E063
:102AC000821B930BB4E0880F991FBA95E1F78452EB
:102AD0009D4E40815181840F951FDC01FC922F5F38
:102AE0003F4FE9CF34960E171F07F1F6109263138C
:102AF0001092621310926113109260130E94ED0203
:102B00006093701370937113809372139093731387
:102B100082E090E090938513809384137FC9069799
:102B200009F07CC980915E1390915F13892B09F0A5
:102B300089C00E94680108E412E01E830D83609141
:102B4000CE127091CF12072E000C880B990B0E94A9
:102B50001D1CD80114962D913D914D915C911797B4
:102B60000E94021B0E94E51B7093CF126093CE124D
:102B7000CB010E94D509005F1F4FB2E008391B0747
:102B8000F1F601E010E06091CE127091CF12072EA5
:102B9000000C880B990B0E941D1C9B01AC01ED8160
:102BA000FE8164817581868197810E94731B20E07C
:102BB00030E048EC52E40E94D21C6B017C0120E022
:102BC00030E0A9010E946E1B811177C21092CD12D4
:102BD0001092CC126091CC127091CD12072E000C85
:102BE000880B990B0E941D1C6B017C014B015C0141
:102BF000AD81BE811896CD92DD92ED92FC921B972D
:102C0000AC019B010E943F1D882309F429C380EB7E
:102C100092E10E94840982E992E10E9484094D8137
:102C20005E81405F5F4F5E834D834859524009F09B
:102C3000AACF80915E1390915F13019690935F13DA
:102C400080935E1386E30E947F02BC01990F880B7C
:102C5000990BE3E0660F771F881F991FEA95D1F75C
:102C6000A30192010E949E1A690130935D13209383
:102C70005C1387E30E947F0241EF860140039001CD
:102C8000419F300D112428533F4F309399022093D8
:102C90009802092E000CAA0BBB0BBC01CD01F3E07E
:102CA000660F771F881F991FFA95D1F7A30192012C
:102CB0000E949E1A2D5F3F4F3093A3022093A202E1
:102CC0008090500290905102A0905202B090530216
:102CD0000CED12E11A830983A7E0EA2EF12CDD2422
:102CE000D394B7010F2C000C880B990B0E941D1C6C
:102CF000A50194010E946E1B87FD4DC3D80111965A
:102D00001C9221E0E21AF108005F1F4F3FEFE3162B
:102D1000F30639F70CED12E177E0E72EF12CDD2414
:102D2000D394B7010F2C000C880B990B0E941D1C2B
:102D30009B01AC01C501B4010E94CD1C18160CF416
:102D40002DC3D80112961C92F1E0EF1AF108005F32
:102D50001F4F2FEFE216F20621F78090600290904D
:102D60006102A0906202B09063020CED12E167E094
:102D7000E62EF12CDD24D394B7010F2C000C880B28
:102D8000990B0E941D1CA50194010E946E1B87FDDA
:102D900008C3D80114961C92F1E0EF1AF108005F05
:102DA0001F4F2FEFE216F20639F70CED12E157E054
:102DB000E52EF12CDD24D394B7010F2C000C880BE9
:102DC000990B0E941D1C9B01AC01C501B4010E941E
:102DD000CD1C18160CF4E8C2D80115961C92F1E02F
:102DE000EF1AF108005F1F4F2FEFE216F20621F7EE
:102DF0008090700290907102A0907202B090730265
:102E00000CED12E147E0E42EF12CDD24D394B70160
:102E10000F2C000C880B990B0E941D1CA50194011E
:102E20000E946E1B87FDC3C2D80117961C92F1E069
:102E3000EF1AF108005F1F4F2FEFE216F20639F785
:102E40000CED12E137E0E32EF12CDD24D394B70131
:102E50000F2C000C880B990B0E941D1C9B01AC01D0
:102E6000C501B4010E94CD1C18160CF4A3C2D801F0
:102E700018961C92F1E0EF1AF108005F1F4F2FEF38
:102E8000E216F20621F78090800290908102A090D5
:102E90008202B09083020CED12E127E0E22EF12CC9
:102EA000DD24D394B7010F2C000C880B990B0E94E2
:102EB0001D1C9B01AC01C501B4010E94CD1C18165C
:102EC0000CF47BC2D8011A961C92F1E0EF1AF108BB
:102ED000005F1F4F2FEFE216F20621F70CED12E113
:102EE00097E0E92EF12CDD24D394B7010F2C000CD0
:102EF000880B990B0E941D1CA50194010E946E1B5A
:102F000087FD5EC2D8011B961C92F1E0EF1AF10812
:102F1000005F1F4F2FEFE216F20639F78090900204
:102F200090909102A0909202B09093020CED12E169
:102F300087E0E82EF12CDD24D394B7010F2C000C90
:102F4000880B990B0E941D1CA50194010E946E1B09
:102F500087FD39C2D8011D961C92F1E0EF1AF108E5
:102F6000005F1F4F2FEFE216F20639F707E010E07F
:102F7000FF24F394B801012E000C880B990B0E94DA
:102F80001D1C9B01AC01C501B4010E94CD1C18168B
:102F90000CF41CC2A981BA811E961C920150110921
:102FA00029813A81205F3F4F3A8329830F3F1007E1
:102FB00009F78AE00E94F7019A8389838091DA12E7
:102FC0009091DB1209811A8108171907C1F00E943C
:102FD000ED0260936A1370936B1380936C1390935C
:102FE0006D130130110509F0F5C10E94ED026093E7
:102FF000D6127093D7128093D8129093D9120E9450
:10300000ED0200916A1310916B1320916C133091B3
:103010006D13601B710B820B930B6333710581057C
:10302000910568F08091D0129091D11209811A8196
:103030000817190721F01093D1120093D012409174
:10304000D6125091D7126091D8127091D9128091F6
:10305000D2129091D312A091D412B091D5124817E8
:1030600059076A077B0709F40BCC09811A81012BE8
:1030700009F006CC841B950BA60BB70B883B9B4035
:10308000A105B10508F4FCCB4093D2125093D312A2
:103090006093D4127093D51264E670E080E090E003
:1030A0000E94BB0281E090E090938513809384138B
:1030B00010925F1310925E13E3CB20E030E0A90181
:1030C000C701B6010E94CD1C18167CF420E030E048
:1030D00040E551E4C701B6010E946E1B18162CF0A2
:1030E0001093CD120093CC1275CD20E030E040E576
:1030F00051E4C701B6010E94CD1C18166CF420E003
:1031000030E048EC51E4C701B6010E946E1B22E09A
:1031100030E018160CF09FC020E030E048EC51E49D
:10312000C701B6010E94CD1C18168CF420E030E0D7
:1031300048E152E4C701B6010E946E1B18163CF02C
:1031400043E050E05093CD124093CC1243CD20E0A9
:1031500030E048E152E4C701B6010E94CD1C1816C8
:103160008CF420E030E048E452E4C701B6010E944C
:103170006E1B18163CF064E070E07093CD12609303
:10318000CC1228CD20E030E048E452E4C701B6017B
:103190000E94CD1C18168CF420E030E044E552E487
:1031A000C701B6010E946E1B18163CF085E090E046
:1031B0009093CD128093CC120DCD20E030E044E509
:1031C00052E4C701B6010E94CD1C18168CF420E011
:1031D00030E046E952E4C701B6010E946E1B1816A2
:1031E0003CF0A6E0B0E0B093CD12A093CC12F2CCAC
:1031F00020E030E046E952E4C701B6010E94CD1C50
:1032000018168CF420E030E040EB52E4C701B60120
:103210000E946E1B18163CF0E7E0F0E0F093CD1230
:10322000E093CC12D7CC20E030E040EB52E4C70171
:10323000B6010E94CD1C18160CF0CCCC20E030E07A
:1032400048EC52E4C701B6010E946E1B18160CF43C
:10325000C1CC28E030E03093CD122093CC12BACC10
:10326000A70196015F7729833A834B835C832FEF15
:103270003FEF4FE75FE769817A818B819C810E94F4
:103280003F1D81110FC02FEF3FEF4FE75FE76981CF
:103290007A818B819C810E946E1B18161CF484EB32
:1032A00092E1B7CC2FEF3FEF4FE75FE4C701B601E4
:1032B0000E94CD1C18161CF488EB92E1AACC2FEFCB
:1032C0003FEF4FE75FECC701B6010E946E1B87FD21
:1032D000F3CF20E030E0A901C701B6010E946E1BC8
:1032E00087FF0BC06DE28FE893E10E948F034601D8
:1032F0005701B7FAB094B7F8B0942AE037ED43EA33
:103300005BE3C501B4010E94021B4B015C010E94FA
:10331000EC1B6B017C010E941B1C9B01AC01C501D5
:10332000B4010E94011B4B015C014AE0C701B601D8
:103330000E9491096EE28FE893E10E948F0320E0E2
:1033400030E040E251E4C501B4010E94D21C4B01BF
:103350005C010E94EC1B6B01F12CE12C4AE0C701DF
:10336000B6010E949109C701B6010E941B1C9B0176
:10337000AC01C501B4010E94011B20E030E040E235
:1033800051E40E94D21C0E94EC1B90E080E04AE0D5
:103390000E94910940CCF801D182B3CCF801D282CD
:1033A000D3CCF801D482F8CCF801D58218CDF8013D
:1033B000D7823DCDF801D0865DCDF801D28685CD8E
:1033C000F801D386A2CDF801D586C7CDE981FA816F
:1033D000F686E4CD09811A81012B09F010CE0E94F6
:1033E000ED026093D2127093D3128093D412909313
:1033F000D51205CE8F929F92AF92BF92CF92DF925D
:10340000EF92FF92CF93DF93EC01688179818A81FB
:103410009B81611571058105910521F464E279EDC7
:103420008BE597E02DE133EF41E050E00E949E1ADA
:1034300049015A019B01AC01A7EAB1E40E94BD1AFF
:103440006B017C01ACEEB4EFA50194010E94CB1A94
:10345000C60ED71EE81EF91EF7FE06C081E0C81A88
:10346000D108E10880E8F80AC882D982EA82FB82A2
:10347000C701B6019F77DF91CF91FF90EF90DF906A
:10348000CF90BF90AF909F908F9008958F929F9212
:10349000AF92BF92CF92DF92EF92FF926091A4021F
:1034A0007091A5028091A6029091A7026115710505
:1034B0008105910521F464E279ED8BE597E02DE13A
:1034C00033EF41E050E00E949E1A49015A019B01EE
:1034D000AC01A7EAB1E40E94BD1A6B017C01ACEE1D
:1034E000B4EFA50194010E94CB1AC60ED71EE81EA8
:1034F000F91EF7FE06C081E0C81AD108E10880E88D
:10350000F80AC092A402D092A502E092A602F0921C
:10351000A702C701B6019F77FF90EF90DF90CF9091
:10352000BF90AF909F908F9008956093A402709386
:10353000A5028093A6029093A7020895052E97FBFB
:103540001EF400940E94B51A57FD07D00E94D01AAD
:1035500007FC03D04EF40C94B51A50954095309565
:1035600021953F4F4F4F5F4F0895909580957095EF
:1035700061957F4F8F4F9F4F08950E94F21AA59F2C
:10358000900DB49F900DA49F800D911D112408955E
:10359000B7FF0C94BD1A0E94BD1A821B930B0895AD
:1035A000A1E21A2EAA1BBB1BFD010DC0AA1FBB1F47
:1035B000EE1FFF1FA217B307E407F50720F0A21BB9
:1035C000B30BE40BF50B661F771F881F991F1A9426
:1035D00069F760957095809590959B01AC01BD0150
:1035E000CF010895A29FB001B39FC001A39F700DAA
:1035F000811D1124911DB29F700D811D1124911DFB
:1036000008955058BB27AA270E94191B0C94931C9D
:103610000E94851C38F00E948C1C20F039F49F3FDA
:1036200019F426F40C94821C0EF4E095E7FB0C943C
:103630007C1CE92F0E94A41C58F3BA176207730779
:103640008407950720F079F4A6F50C94C61C0EF4B7
:10365000E0950B2EBA2FA02D0B01B90190010C01A2
:10366000CA01A0011124FF27591B99F0593F50F4BA
:10367000503E68F11A16F040A22F232F342F442712
:10368000585FF3CF469537952795A795F04053950A
:10369000C9F77EF41F16BA0B620B730B840BBAF0DA
:1036A0009150A1F0FF0FBB1F661F771F881FC2F745
:1036B0000EC0BA0F621F731F841F48F48795779559
:1036C0006795B795F7959E3F08F0B0CF9395880F13
:1036D00008F09927EE0F9795879508950E94581C3A
:1036E00008F481E008950E94871B0C94931C0E94AB
:1036F0008C1C58F00E94851C40F029F45F3F29F093
:103700000C947C1C51110C94C71C0C94821C0E94BC
:10371000A41C68F39923B1F3552391F3951B550B22
:10372000BB27AA2762177307840738F09F5F5F4F94
:10373000220F331F441FAA1FA9F335D00E2E3AF0D3
:10374000E0E832D091505040E695001CCAF72BD0EB
:10375000FE2F29D0660F771F881FBB1F261737073C
:103760004807AB07B0E809F0BB0B802DBF01FF276E
:1037700093585F4F3AF09E3F510578F00C947C1CB3
:103780000C94C71C5F3FE4F3983ED4F3869577957D
:103790006795B795F7959F5FC9F7880F911D969527
:1037A000879597F90895E1E0660F771F881FBB1F83
:1037B000621773078407BA0720F0621B730B840B30
:1037C000BA0BEE1F88F7E09508950E94EC1B6894F1
:1037D000B1110C94C71C08950E94AC1C88F09F572F
:1037E00098F0B92F9927B751B0F0E1F0660F771F25
:1037F000881F991F1AF0BA95C9F714C0B13091F01B
:103800000E94C61CB1E008950C94C61C672F782F47
:103810008827B85F39F0B93FCCF3869577956795DF
:10382000B395D9F73EF490958095709561957F4F4B
:103830008F4F9F4F0895E89409C097FB3EF49095F1
:103840008095709561957F4F8F4F9F4F9923A9F079
:10385000F92F96E9BB279395F69587957795679508
:10386000B795F111F8CFFAF4BB0F11F460FF1BC04C
:103870006F5F7F4F8F4F9F4F16C0882311F096E9DF
:1038800011C0772321F09EE8872F762F05C066238D
:1038900071F096E8862F70E060E02AF09A95660F46
:1038A000771F881FDAF7880F9695879597F90895FF
:1038B000990F0008550FAA0BE0E8FEEF1616170641
:1038C000E807F907C0F012161306E407F50798F0A9
:1038D000621B730B840B950B39F40A2661F0232BC2
:1038E000242B252B21F408950A2609F4A140A6953E
:1038F0008FEF811D811D089597F99F6780E870E023
:1039000060E008959FEF80EC089500240A94161655
:10391000170618060906089500240A9412161306BD
:10392000140605060895092E0394000C11F488234B
:1039300052F0BB0F40F4BF2B11F460FF04C06F5F67
:103940007F4F8F4F9F4F089557FD9058440F551F3D
:1039500059F05F3F71F04795880F97FB991F61F011
:103960009F3F79F087950895121613061406551F88
:10397000F2CF4695F1DF08C0161617061806991FF4
:10398000F1CF86957105610508940895E894BB27E9
:1039900066277727CB0197F908950E94581C08F4F1
:1039A0008FEF08950E94E51C0C94931C0E94851CC7
:1039B00038F00E948C1C20F0952311F00C947C1C94
:1039C0000C94821C11240C94C71C0E94A41C70F33C
:1039D000959FC1F3950F50E0551F629FF001729FB4
:1039E000BB27F00DB11D639FAA27F00DB11DAA1FC3
:1039F000649F6627B00DA11D661F829F2227B00D10
:103A0000A11D621F739FB00DA11D621F839FA00D9A
:103A1000611D221F749F3327A00D611D231F849FEA
:103A2000600D211D822F762F6A2F11249F57504041
:103A30009AF0F1F088234AF0EE0FFF1FBB1F661FBC
:103A4000771F881F91505040A9F79E3F510580F085
:103A50000C947C1C0C94C71C5F3FE4F3983ED4F399
:103A6000869577956795B795F795E7959F5FC1F729
:103A7000FE2B880F911D9695879597F908950E94C2
:103A8000581C880B990B089597FB072E16F4009489
:103A900007D077FD09D00E94601D07FC05D03EF4D9
:103AA000909581959F4F0895709561957F4F0895EA
:103AB000EE0FFF1F881F8BBF0790F691E02D199422
:103AC000AA1BBB1B51E107C0AA1FBB1FA617B70744
:103AD00010F0A61BB70B881F991F5A95A9F7809560
:0C3AE0009095BC01CD010895F894FFCF33
:103AEC000100FCFFFFFFFFFF0000000001000000D1
:103AFC0002000000030000000400000005000000AC
:103B0C00060000000700000008000000090000008B
:103B1C000A0000000B0000000C0000000D0000006B
:103B2C000E0000000F0000000000803F00000000AD
:103B3C000000000000000000000000400000000039
:103B4C0000000000000000000000404000000000E9
:103B5C000000000000000000000080400000000099
:103B6C0000000000000000000000A0400000000069
:103B7C000000000000000000960001000300FFFFA1
:103B8C000100030001000000000000000000000024
:103B9C000000000000000000000000000000000019
:103BAC000000000000000000000000000000000009
:103BBC0000000000010001000100010000000000F5
:103BCC0000000000000000000000000000000000E9
:103BDC0000000000010000000000010000000000D7
:103BEC0000000000000000000000000000000000C9
:103BFC0000000000010000000000010000000000B7
:103C0C0000000000000000000000000000000000A8
:103C1C000000000001000000000001000000000096
:103C2C000000000000000000000000000000000088
:103C3C000000000001000000000001000000000076
:103C4C000000000000000000000000000000000068
:103C5C000000000001000000000001000000000056
:103C6C000000000000000000000000000000000048
:103C7C000000000001000100010001000000000034
:103C8C000000000000000000000000000000000028
:103C9C000000000000000000000000000000000018
:103CAC000000000000000000000000000000000008
:103CBC0000000000000000000100000000000000F7
:103CCC0000000000000000000000000000000000E8
:103CDC0000000000000001000100000000000000D6
:103CEC0000000000000000000000000000000000C8
:103CFC0000000000000000000100000000000000B7
:103D0C0000000000000000000000000000000000A7
:103D1C000000000000000000010000000000000096
:103D2C000000000000000000000000000000000087
:103D3C000000000000000000010000000000000076
:103D4C000000000000000000000000000000000067
:103D5C000000000000000000010000000000000056
:103D6C000000000000000000000000000000000047
:103D7C000000000000000000000000000000000037
:103D8C000000000000000000000000000000000027
:103D9C000000000000000000000000000000000017
:103DAC000000000000000000000000000000000007
:103DBC0000000000000000000000000000000000F7
:103DCC0000000000000000000000000000000000E7
:103DDC0000000000010001000100000000000000D4
:103DEC0000000000000000000000000000000000C7
:103DFC0000000000000000000100000000000000B6
:103E0C0000000000000000000000000000000000A6
:103E1C000000000001000100010000000000000093
:103E2C000000000000000000000000000000000086
:103E3C000000000001000000000000000000000075
:103E4C000000000000000000000000000000000066
:103E5C000000000001000100010000000000000053
:103E6C000000000000000000000000000000000046
:103E7C000000000000000000000000000000000036
:103E8C000000000000000000000000000000000026
:103E9C000000000000000000000000000000000016
:103EAC000000000000000000000000000000000006
:103EBC0000000000000000000000000000000000F6
:103ECC0000000000000000000000000000000000E6
:103EDC0000000000010001000100000000000000D3
:103EEC0000000000000000000000000000000000C6
:103EFC0000000000000000000100000000000000B5
:103F0C0000000000000000000000000000000000A5
:103F1C000000000001000100010000000000000092
:103F2C000000000000000000000000000000000085
:103F3C000000000000000000010000000000000074
:103F4C000000000000000000000000000000000065
:103F5C000000000001000100010000000000000052
:103F6C000000000000000000000000000000000045
:103F7C000000000000000000000000000000000035
:103F8C000000000000000000000000000000000025
:103F9C000000000000000000000000000000000015
:103FAC000000000000000000000000000000000005
:103FBC0000000000000000000100000000000000F4
:103FCC0000000000000000000000000000000000E5
:103FDC0000000000000001000100000000000000D3
:103FEC0000000000000000000000000000000000C5
:103FFC0000000000010000000100000000000000B3
:10400C0000000000000000000000000000000000A4
:10401C00000001000100010001000100000000008F
:10402C000000000000000000000000000000000084
:10403C000000000000000000010000000000000073
:10404C000000000000000000000000000000000064
:10405C000000000000000000010000000000000053
:10406C000000000000000000000000000000000044
:10407C000000000000000000010000000000000033
:10408C000000000000000000000000000000000024
:10409C000000000000000000000000000000000014
:1040AC000000000000000000000000000000000004
:1040BC0000000000000000000000000000000000F4
:1040CC0000000000000000000000000000000000E4
:1040DC0000000000010001000100000000000000D1
:1040EC0000000000000000000000000000000000C4
:1040FC0000000000010000000000000000000000B3
:10410C0000000000000000000000000000000000A3
:10411C000000000001000100010000000000000090
:10412C000000000000000000000000000000000083
:10413C000000000000000000010000000000000072
:10414C000000000000000000000000000000000063
:10415C000000000001000100010000000000000050
:10416C000000000000000000000000000000000043
:10417C000000000000000000000000000000000033
:10418C000000000000000000000000000000000023
:10419C000000000000000000000000000000000013
:1041AC000000000000000000000000000000000003
:1041BC0000000000010001000100000000000000F0
:1041CC0000000000000000000000000000000000E3
:1041DC0000000000010000000000000000000000D2
:1041EC0000000000000000000000000000000000C3
:1041FC0000000000010000000000000000000000B2
:10420C0000000000000000000000000000000000A2
:10421C00000000000100010001000000000000008F
:10422C000000000000000000000000000000000082
:10423C000000000001000000010000000000000070
:10424C000000000000000000000000000000000062
:10425C00000000000100010001000000000000004F
:10426C000000000000000000000000000000000042
:10427C000000000000000000000000000000000032
:10428C000000000000000000000000000000000022
:10429C000000000000000000000000000000000012
:1042AC000000000000000000000000000000000002
:1042BC0000000000010001000100000000000000EF
:1042CC0000000000000000000000000000000000E2
:1042DC0000000000000000000100000000000000D1
:1042EC0000000000000000000000000000000000C2
:1042FC0000000000000000000100000000000000B1
:10430C0000000000000000000000000000000000A1
:10431C00000000000000010001000100000000008E
:10432C000000000000000000000000000000000081
:10433C000000000000000000010000000000000070
:10434C000000000000000000000000000000000061
:10435C000000000000000000010000000000000050
:10436C000000000000000000000000000000000041
:10437C000000000000000000000000000000000031
:10438C000000000000000000000000000000000021
:10439C000000000000000000000000000000000011
:1043AC000000000000000000000000000000000001
:1043BC0000000000000000000000000000000000F1
:1043CC0000000000000000000000000000000000E1
:1043DC0000000000010001000100000000000000CE
:1043EC0000000000000000000000000000000000C1
:1043FC0000000000010000000100000000000000AF
:10440C0000000000000000000000000000000000A0
:10441C00000000000100010001000000000000008D
:10442C000000000000000000000000000000000080
:10443C00000000000100000001000000000000006E
:10444C000000000000000000000000000000000060
:10445C00000000000100010001000000000000004D
:10446C000000000000000000000000000000000040
:10447C000000000000000000000000000000000030
:10448C000000000000000000000000000000000020
:10449C000000000000000000000000000000000010
:1044AC000000000000000000000000000000000000
:1044BC0000000000000000000000000000000000F0
:1044CC0000000000000000000000000000000000E0
:1044DC0000000000010001000100000000000000CD
:1044EC0000000000000000000000000000000000C0
:1044FC0000000000010000000100000000000000AE
:10450C00000000000000000000000000000000009F
:10451C00000000000100010001000000000000008C
:10452C00000000000000000000000000000000007F
:10453C00000000000000000001000000000000006E
:10454C00000000000000000000000000000000005F
:10455C00000000000100010001000000000000004C
:10456C00000000000000000000000000000000003F
:10457C00000000000000000000000000000000002F
:10458C00000000000000000000000000000000001F
:10459C00000000000000000000000000000000000F
:1045AC0000000000000000000000000000000000FF
:1045BC0000000000010000000000010001000100EB
:1045CC0000000000000000000000000000000000DF
:1045DC0000000100010000000000010000000100CB
:1045EC0000000000000000000000000000000000BF
:1045FC0000000000010000000000010000000100AC
:10460C00000000000000000000000000000000009E
:10461C00000000000100000000000100000001008B
:10462C00000000000000000000000000000000007E
:10463C00000000000100000000000100000001006B
:10464C00000000000000000000000000000000005E
:10465C00000000000100000000000100010001004A
:10466C00000000000000000000000000000000003E
:10467C00000000000000000000000000000000002E
:10468C00000000000000000000000000000000001E
:10469C000000010001000100010001000100000008
:1046AC0000000000000000000000000000000000FE
:1046BC0000000100010001000100010001000000E8
:1046CC0000000000000000000000010000000000DD
:1046DC0000000100000001000100010001000000C9
:1046EC0000000100010000000000010001000100B9
:1046FC0000000100000001000100000001000000AA
:10470C00010000000000000000000000000000009C
:10471C00000001000000000001000000010000008A
:10472C00010000000000000000000000010000007B
:10473C00000001000000000000000000010000006B
:10474C00000001000100000000000000000000005B
:10475C000000010001000100010001000100000047
:10476C00000000000000000000000000000000003D
:10477C000000010001000100010001000100000027
:10478C00000000000000000000000000000000001D
:10479C00000000000000000000000000000000000D
:1047AC0000000000000000000000000000000000FD
:1047BC0000000000000000000000000000000000ED
:1047CC0000000000000000000000000000000000DD
:1047DC0000000000000000000000000000000000CD
:1047EC0000000000000000000000000000000000BD
:1047FC0000000000000000000000000000000000AD
:10480C00000000000000000000000000000000009C
:10481C000000010101000000010100000001000086
:10482C00000000000000000000000100000000007B
:10483C00010101000101010100010101000101015F
:10484C000000000001000001010000010101000056
:10485C000100000100010101000000010100000045
:10486C00000000000100010000000000000000003A
:10487C00000000000000000000000000000000002C
:10488C000000000000000000010101000001000018
:10489C000100010000010001010000000000000007
:1048AC0000000000000100000000000000010001F9
:1048BC0000000100000001000000010000000100E8
:1048CC0000010000010001000001000100000100D6
:1048DC0001000001000100000100000000000101C6
:1048EC0000000100000000000000000000000000BB
:1048FC0000000000000000000000000000000000AC
:10490C000000000100000100010000010001000096
:10491C000100000100000000000000000000000089
:10492C000100000000000000010001000001000077
:10493C000001000000010000010000000100000166
:10494C000001000001000100000100010000010055
:10495C000100000100000000010001000000010046
:10496C00000000000000000000000000000000003B
:10497C00000000000000000000000000000001002A
:10498C000001000101010000010101010000010012
:10499C000101010001000100000000010001010102
:1049AC0000010101000100000100010101000101F1
:1049BC0001000100000000000101010001010101E2
:1049CC0000010000010001010100000100000100D4
:1049DC0000000100000100000000010000000000C8
:1049EC0000000000000000000000000000000000BB
:1049FC0000000000000000000001010100000100A7
:104A0C000100000100000100000100000000000195
:104A1C000001000000000100000000000100000087
:104A2C000100000100010000000000010000010075
:104A3C000000000000010001000100000100000165
:104A4C000001000000000100000100000001010154
:104A5C000100000001000000000000000000000048
:104A6C00000000000000000000000000000000003A
:104A7C000000000001000000000100000100010026
:104A8C000001000001000000000001000100010015
:104A9C000001000000000001000000010000010006
:104AAC0001000000000001000000010000010000F6
:104ABC0001000100000100010000010001000000E4
:104ACC0000010000010000000000000100000100D6
:104ADC0000000000000000000000000000000000CA
:104AEC0000000000000000000000000000000001B9
:104AFC0000000000010000010001000001000001A5
:104B0C000000000000000100000001010000000096
:104B1C00000001010100010101010001010100017E
:104B2C000101000000000100000101000001000073
:104B3C000100000101000001000000000001010063
:104B4C000000000000000100010000000000000057
:104B5C000000000000000000000000000000000049
:104B6C00000000008F03F9022603DC035703350312
:104B7C0049030D0A0074657374696E6731007465BE
:104B8C007374696E6732002020007878787878002A
:0C4B9C006E616E00696E66006F76660048
:00000001FF
