:100000000C9435010C9466010C9466010C94660105
:100010000C9466010C9466010C9466010C946601C4
:100020000C9466010C9466010C9466010C946601B4
:100030000C9466010C9466010C9466010C946601A4
:100040000C9466010C9466010C9466010C94660194
:100050000C9466010C9466010C9466010C94F105F5
:100060000C9466010C9465060C943B060C94660196
:100070000C9466010C9466010C9466010C94660164
:100080000C9466010C9466010C9466010C94660154
:100090000C9466010C9466010C9466010C94660144
:1000A0000C9466010C9466010C9466010C94660134
:1000B0000C9466010C9466010C9466010C94660124
:1000C0000C9466010C9466010C9466010C94660114
:1000D0000C9466010C9466010C9466010C94660104
:1000E0000C9466010C9440030C94E5010C949B065F
:1000F0000C94F3010C94DB010C9432030C94AE01CC
:100100000C94C5030C94EE010C94E1010C94B8011D
:100110000C94EF010C94CD010C941E030C94780305
:100120000C94D7010C94B4010C94E9010C94D30104
:100130000C94C0010C94C9010C94E2020C94C3010C
:100140000C940F030C94BC01000021002400270034
:100150002A002D00300033000101000004010701D6
:100160000A0100002200250028002B002E0031008B
:10017000340002010000050108010B01000020000D
:100180002300260029002C002F003200000100006F
:10019000030106010901050505050705080808080A
:1001A000020202020A0A080804040404010101010F
:1001B000010101010303030303030303040707070A
:1001C0000C0C0C0C0C0C0C0C0202020206060606AF
:1001D000060606060B0B0B0B0B0B0B0B010210207C
:1001E000200808102040102040800201020108046D
:1001F0000201010204081020408080402010080401
:100200000201800402018040201008040201080459
:10021000020101020408102040800102040810209D
:10022000408000000A0B02090C0D0E0807030401B0
:1002300000000000000000000000000000000000BE
:10024000000000000000000000000000000012118B
:10025000100000000000000000000000000000008E
:1002600000000000000000009B0611241FBECFEF1D
:10027000D1E2DEBFCDBF00E00CBF12E1A0E0B2E0F2
:10028000E0E9F0E200E00BBF02C007900D92AC3451
:10029000B107D9F723E1ACE4B2E101C01D92AA3F56
:1002A000B207E1F711E0C5E3D1E000E006C0219715
:1002B0000109802FFE010E942A10C433D10780E07B
:1002C0000807A9F70E944F070C9446100C940000F1
:1002D000E5E0F3E1A089B18982E08C93A485B5853E
:1002E0001C92A685B7858FEC8C93108EA489B58956
:1002F00086E08C93A289B3898C9180618C93A289CA
:10030000B3898C9188608C93A289B3898C91806821
:100310008C930288F389E02D80818F7D80830895FE
:100320008150823108F05AC0E82FF0E08827E45667
:10033000FE4F8F4F0C942A10BC01C001AE01B401D6
:10034000B801EE01C301C901CD01D301D701DB0121
:10035000E101E501EE01E901EF01F3018091800087
:100360008F77809380000895809180008F7DF9CFF2
:1003700080918000877FF5CF84B58F7784BD089505
:1003800084B58F7DFBCF8091B0008F778093B000D4
:1003900008958091B0008F7DF9CF809190008F7784
:1003A000809390000895809190008F7DF9CF809187
:1003B0009000877FF5CF8091A0008F778093A00079
:1003C00008958091A0008F7DF9CF8091A000877F54
:1003D000F5CF809120018F7780932001089580913F
:1003E00020018F7DF9CF80912001877FF5CFCF93BA
:1003F000DF93282F30E0F901EE5DFD4F8491F90184
:10040000E452FE4FD491F901EA56FE4FC491CC2339
:10041000A1F081110E949001EC2FF0E0EE0FFF1F80
:10042000E458FE4FA591B491EC91ED2381E090E06A
:1004300009F480E0DF91CF91089580E090E0FACF59
:100440001F93CF93DF93282F30E0F901EE5DFD4F2E
:100450008491F901E452FE4FD491F901EA56FE4F1E
:10046000C491CC23A9F0162F81110E949001EC2F8A
:10047000F0E0EE0FFF1FEE59FE4FA591B4918FB73C
:10048000F894EC91111108C0D095DE23DC938FBF56
:10049000DF91CF911F910895DE2BF8CFCF93DF939B
:1004A00090E0FC01E452FE4F24918A569E4FFC01DD
:1004B00084918823D1F090E0880F991FFC01E85BBC
:1004C000FE4FA591B491FC01EE59FE4FC591D49118
:1004D00061110EC09FB7F8948C91E22FE0958E23A6
:1004E0008C932881E223E8839FBFDF91CF91089509
:1004F0008FB7F894EC91E22BEC938FBFF6CF3FB718
:10050000F8948091011390910213A0910313B0917C
:10051000041326B5A89B05C02F3F19F00196A11D15
:10052000B11D3FBFBA2FA92F982F8827BC01CD013D
:10053000620F711D811D911D42E0660F771F881F9C
:10054000991F4A95D1F708958F929F92AF92BF92CB
:10055000CF92DF92EF92FF924B015C010E947F02EB
:100560006B017C010E947F026C197D098E099F0935
:10057000683E734081059105A8F321E0821A910835
:10058000A108B10888EEC80E83E0D81EE11CF11C5A
:1005900081149104A104B10429F7FF90EF90DF903A
:1005A000CF90BF90AF909F908F9008952FB7F89401
:1005B0006091FD127091FE128091FF1290910013D4
:1005C0002FBF0895AF92BF92CF92DF92EF92FF922A
:1005D0000F931F93CF93DF936C017B018B01040F6B
:1005E000151FEB015E01AE18BF08C017D10759F007
:1005F0006991D601ED91FC910190F081E02DC60149
:100600001995892B79F7C501DF91CF911F910F9132
:10061000FF90EF90DF90CF90BF90AF900895FC01D6
:10062000538D448D252F30E0842F90E0821B930B57
:10063000541710F0CF96089501970895FC01918DFD
:10064000828D981761F0A28DAE0FBF2FB11D5D9600
:100650008C91928D9F5F9F73928F90E008958FEFA2
:100660009FEF0895FC01918D828D981731F0828D56
:10067000E80FF11D858D90E008958FEF9FEF0895AD
:10068000FC01918D228D892F90E0805C9F4F821B11
:1006900091098F739927089585E093E10E944003A3
:1006A00021E0892B09F420E0822F0895FC01A48D1C
:1006B000A80FB92FB11DA35ABF4F2C91848D90E084
:1006C00001968F739927848FA689B7892C93A08967
:1006D000B1898C91837080648C93938D848D9813F1
:1006E00006C00288F389E02D80818F7D8083089584
:1006F000EF92FF920F931F93CF93DF93EC0181E072
:10070000888F9B8D8C8D98131AC0E889F989808118
:1007100085FF15C09FB7F894EE89FF896083E8894B
:10072000F98980818370806480839FBF81E090E03D
:10073000DF91CF911F910F91FF90EF900895F62ECA
:100740000B8D10E00F5F1F4F0F731127E02E8C8D64
:100750008E110CC00FB607FCFACFE889F9898081A9
:1007600085FFF5CFCE010E945603F1CFEB8DEC0F44
:10077000FD2FF11DE35AFF4FF0829FB7F8940B8FC6
:10078000EA89FB8980818062CFCFCF93DF93EC0130
:10079000888D8823B9F0AA89BB89E889F9898C9169
:1007A00085FD03C0808186FD0DC00FB607FCF7CF25
:1007B0008C9185FFF2CF808185FFEDCFCE010E9425
:1007C0005603E9CFDF91CF91089580E090E0892B27
:1007D00029F00E944C0381110E94000080E090E00B
:1007E000892B49F080E090E0892B29F00E940000DD
:1007F00081110E94000080E090E0892B49F080E0A8
:1008000090E0892B29F00E94000081110E940000D5
:1008100080E090E0892B49F080E090E0892B29F07E
:100820000E94000081110C9400000895CF93DF9383
:10083000C82FDEE0D60F60E08D2F0E942002CA5E36
:1008400061E08C2F0E94200261E070E080E090E087
:100850000E94A40261E08D2F0E94200260E08C2F94
:10086000DF91CF910C942002CF92DF92EF92FF9212
:100870000F931F93CF93DF931F921F92CDB7DEB7D5
:1008800069834A83880F991F0091F8131091F91317
:10089000000F111FE2EAF3E19F01225A33412017B2
:1008A000310714F41192F8CF2981FC01EE55FC4E6A
:1008B00021838A81808360E08091F6130E94200268
:1008C0001016110604F501501109F801EE55FC4E01
:1008D000E080D090F413C090F21388E0F82E6E2DD3
:1008E000661F6627661F8C2D0E942002EE0C61E0B9
:1008F0008D2D0E94200260E08D2D0E942002FA942E
:10090000F110EDCFDDCF61E08091F6130F900F90E5
:10091000DF91CF911F910F91FF90EF90DF90CF90DB
:100920000C942002EF92FF920F931F93CF937C01C0
:100930008C0183E0000F111F8A95E1F70E541C4EC5
:10094000C1E0F80111928F0140E06C2FC7010E94B5
:100950003404CF5FC930A9F7CF911F910F91FF9059
:10096000EF9008952091F8133091F91312161306A1
:10097000FCF488309105E1F068307105C9F020E899
:1009800030E002C0359527956A95E2F7FC01EE55F7
:10099000FC4E5089442349F0252B208B61E0680FE1
:1009A000408990E080E00C94340420952523F5CF15
:1009B0000895AF92BF92CF92DF92EF92FF920F9382
:1009C0001F93CF93DF933CE4E32E32E1F32E10E04C
:1009D00000E0D0E0C0E041E0F701EC0FFD1F8081B6
:1009E000813009F040E0BE01C8010E94B2042196A6
:1009F000C830D10581F70F5F1F4F80E1E80EF11C71
:100A00000830110531F793E0E92EF12C23ECA22EEA
:100A1000B12C8CE4C82E82E1D82E10E000E0C8E0B2
:100A2000D0E0F601EC0FFD1F8081813001F5B801A7
:100A3000CE0108970E9416042196C031D10589F78E
:100A40000F5F1F4F80E1C80ED11C0830110539F728
:100A500081E0E81AF108E9F6DF91CF911F910F913B
:100A6000FF90EF90DF90CF90BF90AF900895C501B9
:100A70000197F1F7E1CFCF92DF92EF92FF920F93C0
:100A80001F93CF93DF932AE4E22E22E0F22E670138
:100A900010E000E0D0E0C0E0FE01EE0FFF1FEC0D23
:100AA000FD1D41E080819181019709F040E0BE0188
:100AB000C8010E94B2042196C830D10569F70F5FC2
:100AC0001F4F80E2C80ED11C0830110519F710E045
:100AD00000E0C8E0D0E0FE01EE0FFF1FEE0DFF1DAD
:100AE00080819181019729F4B801CE0108970E9475
:100AF00016042196C031D10571F70F5F1F4F80E2B8
:100B0000E80EF11C0830110521F7DF91CF911F91FC
:100B10000F91FF90EF90DF90CF900895FC0101902E
:100B20000020E9F73197AF01481B590BBC0185E064
:100B300093E10C94E202CF92DF92EF92FF920F9337
:100B40001F93CF93DF93CDB7DEB7A1970FB6F8947D
:100B5000DEBF0FBECDBF9B01AC0119A28E010F5DA0
:100B60001F4F8AE0C82ED12CE12CF12CCA01B9010B
:100B7000A70196010E940810605DF80162938F0141
:100B8000211531054105510589F73097C9F0CF018D
:100B90000E948E058C0184E392E10E948E05800FF5
:100BA000911FA1960FB6F894DEBF0FBECDBFDF91A7
:100BB000CF911F910F91FF90EF90DF90CF9008950C
:100BC00010E000E0E8CFCF93DF930E948E05EC01A8
:100BD00084E392E10E948E058C0F9D1FDF91CF91DF
:100BE00008951F920F920FB60F9211242F933F93E7
:100BF0008F939F93AF93BF938091FD129091FE12BC
:100C0000A091FF12B09100133091FC1223E0230F4A
:100C10002D3758F50196A11DB11D2093FC1280932C
:100C2000FD129093FE12A093FF12B09300138091D7
:100C3000011390910213A0910313B0910413019634
:100C4000A11DB11D8093011390930213A093031370
:100C5000B0930413BF91AF919F918F913F912F91CA
:100C60000F900FBE0F901F90189526E8230F029645
:100C7000A11DB11DD2CF1F920F920FB60F9211245A
:100C80000BB60F922F933F934F935F936F937F9386
:100C90008F939F93AF93BF93EF93FF9385E093E17F
:100CA0000E945603FF91EF91BF91AF919F918F9159
:100CB0007F916F915F914F913F912F910F900BBE5C
:100CC0000F900FBE0F901F9018951F920F920FB6A6
:100CD0000F9211240BB60F922F938F939F93EF9344
:100CE000FF93E0911513F09116138081E0911B138F
:100CF000F0911C1382FD1DC0908180911E138F5FA7
:100D00008F7320911F13821741F0E0911E13F0E0C2
:100D1000EB5FFC4E958F80931E13FF91EF919F9197
:100D20008F912F910F900BBE0F900FBE0F901F90C1
:100D300018958081F2CFCF93DF9310920813109211
:100D4000071388EE93E0A0E0B0E08093091390933E
:100D50000A13A0930B13B0930C1386E292E19093C5
:100D600006138093051385EC90E090931213809303
:100D7000111384EC90E0909314138093131380EC80
:100D800090E0909316138093151381EC90E090936C
:100D900018138093171382EC90E090931A138093AA
:100DA000191386EC90E090931C1380931B13109200
:100DB0001E1310921F131092201310922113C7E0DC
:100DC000D0E0D093F313C093F21386E090E09093B9
:100DD000F5138093F41385E090E09093F7138093DC
:100DE000F61381E090E09093F9138093F81361E09B
:100DF00087E00E944E0261E08091F4130E944E024F
:100E000061E08091F6130E944E0261E08091F6133A
:100E10000E942002D093F313C093F213E2EBF3E1AC
:100E2000119283E1E23FF807D9F7D0E0C0E080916A
:100E3000F8139091F913C817D90774F540E06FE0E3
:100E4000CE010E9434048091F8139091F913C817D1
:100E5000D9072CF447E06BE0CE010E94340440E057
:100E600069E0CE010E9434048091F8139091F91347
:100E7000C817D9071CF4CE010E9492048091F81380
:100E80009091F913C817D9072CF440E06CE0CE011B
:100E90000E9434042196CBCFDF91CF9108957894AE
:100EA00084B5826084BD84B5816084BD85B582606F
:100EB00085BD85B5816085BD80916E008160809320
:100EC0006E00109281008091810082608093810089
:100ED0008091810081608093810080918000816099
:100EE000809380008091B10084608093B1008091F4
:100EF000B00081608093B000809191008260809307
:100F00009100809191008160809391008091900088
:100F10008160809390008091A10082608093A10005
:100F20008091A10081608093A1008091A0008160E8
:100F30008093A000809121018260809321018091A3
:100F40002101816080932101809120018160809343
:100F5000200180917A00846080937A0080917A00E9
:100F6000826080937A0080917A00816080937A0019
:100F700080917A00806880937A001092C1008091FD
:100F8000F8139091F9131816190634F441E06CE047
:100F900090E080E00E9434048091F8139091F9135E
:100FA0001816190634F448E06AE090E080E00E94E8
:100FB0003404CEE061E08C2F0E944E02CF5FC63138
:100FC000C9F761E08C2F0E944E02CF5FCE31C9F786
:100FD000CEE061E08C2F0E942002CF5FC631C9F7BE
:100FE00060E08C2F0E942002CF5FCE31C9F760E015
:100FF0008DE00E944E0260E08CE00E944E0260E0B4
:101000008BE00E944E0260E08AE00E944E023CEFBC
:10101000232E33243A94CC24C394D12C7724739474
:1010200057E0452E512C8091FA129091FB12892B9A
:1010300009F07FC10E9468018DE00E94F701EC0178
:101040008AE00E94F7018C010E94D6028090D8129B
:101050009090D912A090DA12B090DB126819790939
:101060008A099B096639710581059105C4F00E94C2
:10107000D6026093D8127093D9128093DA129093AB
:10108000DB128091020290910302209100023091C4
:101090000102820F931F90930302809302028091BA
:1010A000D2129091D312C817D90751F00E94D602DC
:1010B0006093CE127093CF128093D0129093D1127E
:1010C0008091E8129091E9120817190759F10E94CE
:1010D000D6026093EC127093ED128093EE1290930F
:1010E000EF120130110571F487E392E10E94E305EC
:1010F0000E94D6026093E4127093E5128093E61288
:101100009093E712209771F480E492E10E94E30546
:101110000E94D6026093E0127093E1128093E21273
:101120009093E3120E94D6028090CE129090CF123C
:10113000A090D012B090D112681979098A099B0940
:101140006333710581059105D8F08091CC1290919F
:10115000CD12C817D907A1F0D093CD12C093CC12ED
:10116000C130D10569F4809100029091010201978C
:1011700009F045C18FEF9FEF909301028093000229
:101180000E94D6028090E4129090E512A090E612A0
:10119000B090E712681979098A099B090E949B059A
:1011A0006091E4127091E5128091E6129091E7123D
:1011B0000E949B056091E0127091E1128091E21211
:1011C0009091E3120E949B0589E492E10E94E3055D
:1011D0008090E4129090E512A090E612B090E71291
:1011E0008091E0129091E112A091E212B091E3128D
:1011F00088169906AA06BB06F1F001151105D9F467
:1012000088199909AA09BB09803D9740A105B10534
:1012100090F064E670E080E090E00E94A40280928A
:10122000E0129092E112A092E212B092E312D092F8
:10123000FB12C092FA121093E9120093E812D093B5
:10124000D312C093D212A0900202B0900302ECE439
:10125000F2E18F01D0E0C0E04BE730E020E04C9FAE
:10126000C0014D9F900D1124BC01665B7C4F7B013A
:10127000C501820F931F6BE770E00E94F40FD70146
:10128000A80FB91F8C91D801A20FB31F813009F0AC
:10129000BBC08C932F5F3F4F2031310549F721961A
:1012A000005F1F4FC830D105C1F678E7A716B1041B
:1012B000B4F08CE492E130E020E0DC01A20FB31F37
:1012C0001C922F5F3F4F20313105B9F74096A2E1C4
:1012D0008C3C9A0781F7309203022092020280919F
:1012E0000202909103028B3F9F4FACF490E080E0AC
:1012F000DF01A80FB91F1C92019680319105C1F73B
:10130000709622E1EC3CF20789F769E670E0709391
:1013100003026093020262E070E080E090E00E94CD
:10132000A4020E94D90461E070E080E090E00E9495
:10133000A4028091FA129091FB128130910509F07C
:1013400065C08CE492E14CEC52E130E020E0FC011D
:10135000E20FF31F10822F5F3F4F20313105B9F7A5
:1013600040964817590789F70E943B058CE00E9478
:10137000F701EC018091F8129091F912C817D90782
:1013800051F00E94D6026093F4127093F51280938C
:10139000F6129093F7120E94D6020091F412109167
:1013A000F5122091F6123091F712601B710B820B2F
:1013B000930B6333710581059105D0F08091F21292
:1013C0009091F312C817D90799F0D093F312C093F4
:1013D000F212C130D10561F482E090E09093FB12EB
:1013E0008093FA1283E090E0909349028093480240
:1013F000D093F912C093F8120E94E50314CED09353
:101400000102C0930002BCCE1C9244CF82309105F1
:1014100009F0CDC18DE00E94F701EC01E090D412FB
:10142000F090D5120091D6121091D712F701B4E0C6
:10143000EE0FFF1FBA95E1F7E45BFD4EE00FF11FE1
:1014400010827FEFE71AF70AC70124E0880F991F7F
:101450002A95E1F7845B9D4EFC01E00FF11F10829D
:101460000F5F1F4F800F911FDC011C9212820E94A0
:10147000D6028090D8129090D912A090DA12B09033
:10148000DB12681979098A099B09683C7105810595
:1014900091050CF47EC00E94D6026093D81270931E
:1014A000D9128093DA129093DB1200311105D1F139
:1014B0001093D7120093D612809146029091470262
:1014C0008F3F980709F465C0BC016F5F7F4F209183
:1014D000040230910502FB01A4E0EE0FFF1FAA9564
:1014E000E1F7E45BFD4EE20FF31F40814130F1F57F
:1014F000A901440F551F440F551FFA01EA5FFD4F24
:1015000002811381F901E45BFD4E70E060E07097A9
:101510006017710784F4DF01A058BF4F1C926F5F02
:101520007F4FF5CF1092D7121092D612F092D512AB
:10153000E092D412C1CF4A5F5D4FFA01138212824A
:1015400044E0880F991F4A95E1F7845B9D4E280F70
:10155000391FD9011C928FEF9FEF90930502809362
:101560000402909347028093460213C0AC0104E04A
:10157000440F551F0A95E1F7445B5D4E240F351F5C
:10158000D9011C9207973CF770934702609346027B
:1015900070828091D2129091D312C817D90751F05E
:1015A0000E94D6026093CE127093CF128093D01215
:1015B0009093D1120E94D6022091D6123091D71268
:1015C000A091D412B091D5128090CE129090CF12EB
:1015D000A090D012B090D112AB01BC0148195909AA
:1015E0006A097B09433351056105710580F140911A
:1015F000CC125091CD12C417D50749F1D093CD121A
:10160000C093CC12C130D10511F540910402509124
:1016100005024F3F5F4FD9F4409146025091470277
:101620004F3F5F4FA1F43093050220930402FD0168
:101630003296F0934702E093460214E0EE0FFF1F4C
:101640001A95E1F7E45BFD4EE20FF31F7082D09331
:10165000D312C093D212AD01D4E0440F551FDA95D6
:10166000E1F7445A5D4EF9013296E40FF51F6081AF
:10167000613009F043C0CD0102979093D512809359
:10168000D412225031093093D7122093D612809170
:101690004802909149020197909349028093480231
:1016A000892B61F4D092FB12C092FA121092D712D9
:1016B0001092D6121092D5121092D412E6E0F2E0F7
:1016C00066E472E0428153814115510549F130E0F1
:1016D00020E02417350724F5C201821B930BA4E0F8
:1016E000880F991FAA95E1F7845B9D4EA081B18177
:1016F000A80FB91F7C922F5F3F4FEBCFC4E0AA0F1A
:10170000BB1FCA95E1F7A45BBD4EA20FB31F7C922D
:10171000DA01A20FB31F7C9211967C927082CECF19
:1017200034966E177F0771F60E94D9048AE00E94F2
:10173000F701EC018091F0129091F112C817D907CE
:1017400051F00E94D6026093EC127093ED128093D8
:10175000EE129093EF120E94D6020091EC121091BB
:10176000ED122091EE123091EF12601B710B820B83
:10177000930B6333710581059105A0F08091EA1206
:101780009091EB12C817D90769F0D093EB12C09370
:10179000EA12C130D10531F483E090E09093FB125E
:1017A0008093FA12D093F112C093F01225CE0397D2
:1017B00009F022CE8091480290914902009709F0E9
:1017C00035C1C091DC12D091DD12C431D10508F0D1
:1017D00017C1E2E2AE2EE7E0BE2E4501F12CE12C6E
:1017E00008E010E0F801EE0FFF1FE80DF91D41E0E1
:1017F00080819181019709F040E0B801685071093A
:10180000C7010E94B2040F5F1F4F0031110551F74D
:101810002FEFE21AF20A60E2860E911C78E0E716DA
:10182000F104F1F6F12CE12C10E000E0F801EE0FEC
:10183000FF1FEA0DFB1D80819181019721F4B70103
:10184000C8010E9416040F5F1F4F0830110571F781
:101850008FEFE81AF80A90E2A90EB11CA8E0EA1688
:10186000F10411F72196D093DD12C093DC120E948F
:10187000680164E670E080E090E00E94A4028AE0E3
:101880000E94F701EC018091E8129091E912C817CB
:10189000D907E1F00E94D6026093EC127093ED122A
:1018A0008093EE129093EF12C130D10509F08AC3F4
:1018B00087E392E10E94E3050E94D6026093E4125E
:1018C0007093E5128093E6129093E7120E94D6027D
:1018D0000091EC121091ED122091EE123091EF1266
:1018E000601B710B820B930B6333710581059105AE
:1018F00058F08091DE129091DF12C817D90721F0BD
:10190000D093DF12C093DE120E94D6020091E4123F
:101910001091E5122091E6123091E712601B710BD5
:10192000820B930B0E949B056091E4127091E5126B
:101930008091E6129091E7120E949B056091E0125F
:101940007091E1128091E2129091E3120E949B0546
:1019500089E492E10E94E3054091E4125091E5127E
:101960006091E6127091E7128091E0129091E1127D
:10197000A091E212B091E312481759076A077B075A
:10198000D1F12097C1F5841B950BA60BB70B883BB3
:101990009B40A105B10560F0D092FB12C092FA12F3
:1019A0004093E0125093E1126093E2127093E312BD
:1019B0008091E0129091E112A091E212B091E312B5
:1019C000805D9740A109B109841B950BA60BB70B4D
:1019D000883E9340A105B10570F482E090E09093B9
:1019E000FB128093FA124093E0125093E11260933D
:1019F000E2127093E312D093E912C093E812FCCC88
:101A0000CE0144970A9718F40E94D9042BCF0E9464
:101A10003B058091F8139091F913181619060CF0F4
:101A200026CF90E080E00E94920421CF8130910582
:101A300009F043C052E2E52E58E0F52E570110E0C0
:101A400000E0D0E0C0E0FE01EE0FFF1FEA0DFB1D3D
:101A500041E080819181019709F040E0BE01C80119
:101A60000E94B2042196C830D10569F70F5F1F4F5D
:101A7000B0E2AB0EB11C0830110519F710E000E020
:101A8000C8E0D0E0FE01EE0FFF1FEE0DFF1D8081CC
:101A90009181019729F4B801CE0108970E9416049C
:101AA0002196C031D10571F70F5F1F4FE0E2EE0EB6
:101AB000F11C0830110521F7DACE8230910509F0CA
:101AC00043C022E2E22E29E0F22E570110E000E0AE
:101AD000D0E0C0E0FE01EE0FFF1FEA0DFB1D41E06C
:101AE00080819181019709F040E0BE01C8010E9408
:101AF000B2042196C830D10569F70F5F1F4FF0E29D
:101B0000AF0EB11C0830110519F710E000E0C8E075
:101B1000D0E0FE01EE0FFF1FEE0DFF1D80819181D1
:101B2000019729F4B801CE0108970E941604219666
:101B3000C031D10571F70F5F1F4F20E2E20EF11C9B
:101B40000830110521F793CE8330910509F043C089
:101B5000C2E2EC2ECAE0FC2E570110E000E0D0E01B
:101B6000C0E0FE01EE0FFF1FEA0DFB1D41E080818A
:101B70009181019709F040E0BE01C8010E94B204C2
:101B80002196C830D10569F70F5F1F4F60E2A60E9E
:101B9000B11C0830110519F710E000E0C8E0D0E0F2
:101BA000FE01EE0FFF1FEE0DFF1D80819181019759
:101BB00029F4B801CE0108970E9416042196C0317D
:101BC000D10571F70F5F1F4F70E2E70EF11C08306F
:101BD000110521F74CCE8430910509F044C0E2E2B2
:101BE000EE2EEBE0FE2E570110E000E0C8E0D0E062
:101BF000FE01EE0FFF1FEA0DFB1D41E08081918188
:101C0000019709F040E0BE0168507109C8010E94C7
:101C1000B2042196C031D10559F70F5F1F4F80E202
:101C2000A80EB11C0830110509F710E000E0D0E063
:101C3000C0E0FE01EE0FFF1FEE0DFF1D80819181C0
:101C4000019721F4B801CE010E9416042196C830F4
:101C5000D10579F70F5F1F4F90E2E90EF11C0830B4
:101C6000110529F704CE8530910509F044C052E2F0
:101C7000E52E5CE0F52E570110E000E0C8E0D0E072
:101C8000FE01EE0FFF1FEA0DFB1D41E080819181F7
:101C9000019709F040E0BE0168507109C8010E9437
:101CA000B2042196C031D10559F70F5F1F4FA0E252
:101CB000AA0EB11C0830110509F710E000E0D0E0D1
:101CC000C0E0FE01EE0FFF1FEE0DFF1D8081918130
:101CD000019721F4B801CE010E9416042196C83064
:101CE000D10579F70F5F1F4FB0E2EB0EF11C083002
:101CF000110529F7BCCD8630910509F044C022E2D8
:101D0000E22E2DE0F22E570110E000E0C8E0D0E016
:101D1000FE01EE0FFF1FEA0DFB1D41E08081918166
:101D2000019709F040E0BE0168507109C8010E94A6
:101D3000B2042196C031D10559F70F5F1F4FE0E281
:101D4000AE0EB11C0830110509F710E000E0D0E03C
:101D5000C0E0FE01EE0FFF1FEE0DFF1D808191819F
:101D6000019721F4B801CE010E9416042196C830D3
:101D7000D10579F70F5F1F4FF0E2EF0EF11C08302D
:101D8000110529F774CD8730910509F044C0C2E2EE
:101D9000EC2ECEE0FC2E570110E000E0C8E0D0E0D1
:101DA000FE01EE0FFF1FEA0DFB1D41E080819181D6
:101DB000019709F040E0BE0168507109C8010E9416
:101DC000B2042196C031D10559F70F5F1F4F20E2B1
:101DD000A20EB11C0830110509F710E000E0D0E0B8
:101DE000C0E0FE01EE0FFF1FEE0DFF1D808191810F
:101DF000019721F4B801CE010E9416042196C83043
:101E0000D10579F70F5F1F4F60E2E60EF11C083035
:101E1000110529F72CCD8830910509F044C0E2E284
:101E2000EE2EEFE0FE2E570110E000E0C8E0D0E01B
:101E3000FE01EE0FFF1FEA0DFB1D41E08081918145
:101E4000019709F040E0BE0168507109C8010E9485
:101E5000B2042196C031D10559F70F5F1F4F70E2D0
:101E6000A70EB11C0830110509F710E000E0D0E022
:101E7000C0E0FE01EE0FFF1FEE0DFF1D808191817E
:101E8000019721F4B801CE010E9416042196C830B2
:101E9000D10579F70F5F1F4F80E2E80EF11C083083
:101EA000110529F7E4CC8930910509F044C052E2CC
:101EB000E52E50E1F52E570110E000E0C8E0D0E03B
:101EC000FE01EE0FFF1FEA0DFB1D41E080819181B5
:101ED000019709F040E0BE0168507109C8010E94F5
:101EE000B2042196C031D10559F70F5F1F4F90E220
:101EF000A90EB11C0830110509F710E000E0D0E090
:101F0000C0E0FE01EE0FFF1FEE0DFF1D80819181ED
:101F1000019721F4B801CE010E9416042196C83021
:101F2000D10579F70F5F1F4FA0E2EA0EF11C0830D0
:101F3000110529F79CCC0A9709F099CC22E2E22EF0
:101F400021E1F22E570110E000E0C8E0D0E0FE01F0
:101F5000EE0FFF1FEA0DFB1D41E08081918101978B
:101F600009F040E0BE0168507109C8010E94B20446
:101F70002196C031D10559F70F5F1F4FB0E2AB0E6C
:101F8000B11C0830110509F710E000E0D0E0C0E016
:101F9000FE01EE0FFF1FEE0DFF1D80819181019765
:101FA00021F4B801CE010E9416042196C830D10553
:101FB00079F70F5F1F4FE0E2EE0EF11C08301105BC
:101FC00029F755CC209709F081CC80E492E10E945A
:101FD000E3050E94D6026093E0127093E1128093B1
:101FE000E2129093E31272CC97FB072E16F4009442
:101FF00007D077FD09D00E94321007FC05D03EF4CF
:10200000909581959F4F0895709561957F4F0895A4
:10201000A1E21A2EAA1BBB1BFD010DC0AA1FBB1FEC
:10202000EE1FFF1FA217B307E407F50720F0A21B5E
:10203000B30BE40BF50B661F771F881F991F1A94CB
:1020400069F760957095809590959B01AC01BD01F5
:10205000CF010895EE0FFF1F881F8BBF0790F691E9
:10206000E02D1994AA1BBB1B51E107C0AA1FBB1F7F
:10207000A617B70710F0A61BB70B881F991F5A9514
:10208000A9F780959095BC01CD010895F894FFCFF4
:102090000100FCFFFFFF0000000001000300020040
:1020A000030003000000040000000500000006001B
:1020B00000000700000008000400090000000A00FA
:1020C00000000B0000000C0000000D0000000E00DE
:1020D00000000F000000FFFF0100000000000000F2
:1020E00000000000010001000100010001000100EA
:1020F00000000000000000000000000000000000E0
:1021000000000000010001000100010001000100C9
:1021100000000000000000000000000001000000BE
:1021200000000000010000000100010001000100AA
:10213000000000000100010000000000010001009B
:10214000010000000100000001000100000001008A
:10215000000001000000000000000000000000007E
:10216000000000000100000000000100000001006C
:10217000000001000000000000000000000001005D
:10218000000000000100000000000000000001004D
:10219000000000000100010000000000000000003D
:1021A0000000000001000100010001000100010029
:1021B000000000000000000000000000000000001F
:1021C0000000000001000100010001000100010009
:1021D00000000000000000000000000000000000FF
:1021E00000000000000000000000000000000000EF
:1021F00000000000000000000000000000000000DF
:1022000000000000000000000000000000000000CE
:1022100000000000000000000000000000000000BE
:1022200000000000000000000000000000000000AE
:10223000000000000000000000000000000000009E
:10224000000000000000000000000000000000008E
:10225000000000000000000000000000000000007E
:102260000000000001010100000001010000000168
:10227000000000000000000000000000010000005D
:102280000000010101000101010100010101000143
:102290000101000000000100000101000001010136
:1022A0000000010000010001010100000001010027
:1022B000000000000000010001000000000000001C
:1022C000000000000000000000000000000000000E
:1022D00000000000000000000000010101000001FA
:1022E00000000100010000010001010000000000E9
:1022F00000000000000000010000000000000001DC
:1023000000010000010000000100000001000000C9
:1023100001000001000001000100000100010000B7
:1023200001000100000100010000010000000000A8
:10233000010100000100000000000000000000009A
:10234000000000000000000000000000000000008D
:102350000000000000010000010001000001000178
:10236000000001000001000000000000000000006B
:102370000000010000000000000001000100000159
:102380000000000100000001000001000000010049
:102390000001000100000100010000010001000037
:1023A0000100010000010000000001000100000028
:1023B000010000000000000000000000000000001C
:1023C000000000000000000000000000000000000D
:1023D00001000001000101010000010101010000F4
:1023E00001000101010001000100000000010001E5
:1023F00001010001010100010000010001010100D3
:1024000001010100010000000000010101000101C3
:1024100001010001000001000101010000010000B4
:1024200001000000010000010000000001000000A8
:10243000000000000000000000000000000000009C
:102440000000000000000000000000010101000089
:102450000100010000010000010000010000000077
:102460000001000100000000010000000000010068
:102470000000010000010001000000000001000058
:102480000100000000000001000100010000010047
:102490000001000100000000010000010000000137
:1024A0000101010000000100000000000000000028
:1024B000000000000000000000000000000000001C
:1024C0000000000000000100000000010000010009
:1024D00001000001000001000000000001000100F7
:1024E00001000001000000000001000000010000E8
:1024F00001000100000000000100000001000001D7
:1025000000000100010000010001000001000100C5
:1025100000000001000001000000000000010000B8
:1025200001000000000000000000000000000000AA
:10253000000000000000000000000000000000009B
:102540000001000000000100000100010000010086
:102550000001000000000000010000000101000077
:102560000000000001010100010101010001010161
:102570000001010100000000010000010100000154
:102580000000010000010100000100000000000146
:102590000100000000000000010001000000000038
:1025A000000000000000000000000000000000002B
:1025B000000000000000000000000000000000001B
:1025C000000000000000000000000000000000000B
:1025D00000000000000000000000000000000100FA
:1025E00001000100010000000000000000000000E8
:1025F00000000000000000000000000000000100DA
:1026000000000000010000000000000000000000C9
:1026100000000000000000000000000000000100B9
:1026200000000000010000000000000000000000A9
:102630000000000000000000000000000000010099
:102640000000000001000000000000000000000089
:102650000000000000000000000000000000010079
:102660000000000001000000000000000000000069
:102670000000000000000000000000000000010059
:102680000000000001000000000000000000000049
:102690000000000000000000000000000000010039
:1026A0000100010001000000000000000000000027
:1026B000000000000000000000000000000000001A
:1026C000000000000000000000000000000000000A
:1026D00000000000000000000000000000000000FA
:1026E00000000100000000000000000000000000E9
:1026F00000000000000000000000000000000000DA
:1027000001000100000000000000000000000000C7
:1027100000000000000000000000000000000000B9
:1027200000000100000000000000000000000000A8
:102730000000000000000000000000000000000099
:102740000000010000000000000000000000000088
:102750000000000000000000000000000000000079
:102760000000010000000000000000000000000068
:102770000000000000000000000000000000000059
:102780000000010000000000000000000000000048
:102790000000000000000000000000000000000039
:1027A0000000000000000000000000000000000029
:1027B0000000000000000000000000000000000019
:1027C0000000000000000000000000000000000009
:1027D00000000000000000000000000000000000F9
:1027E00000000000000000000000000000000000E9
:1027F00000000000000000000000000000000100D8
:1028000001000100000000000000000000000000C6
:1028100000000000000000000000000000000000B8
:1028200000000100000000000000000000000000A7
:102830000000000000000000000000000000010097
:102840000100010000000000000000000000000086
:102850000000000000000000000000000000010077
:102860000000000000000000000000000000000068
:102870000000000000000000000000000000010057
:102880000100010000000000000000000000000046
:102890000000000000000000000000000000000038
:1028A0000000000000000000000000000000000028
:1028B0000000000000000000000000000000000018
:1028C0000000000000000000000000000000000008
:1028D00000000000000000000000000000000000F8
:1028E00000000000000000000000000000000000E8
:1028F00000000000000000000000000000000100D7
:1029000001000100000000000000000000000000C5
:1029100000000000000000000000000000000000B7
:1029200000000100000000000000000000000000A6
:102930000000000000000000000000000000010096
:102940000100010000000000000000000000000085
:102950000000000000000000000000000000000077
:102960000000010000000000000000000000000066
:102970000000000000000000000000000000010056
:102980000100010000000000000000000000000045
:102990000000000000000000000000000000000037
:1029A0000000000000000000000000000000000027
:1029B0000000000000000000000000000000000017
:1029C0000000000000000000000000000000000007
:1029D00000000000000000000000000000000000F7
:1029E00000000100000000000000000000000000E6
:1029F00000000000000000000000000000000000D7
:102A000001000100000000000000000000000000C4
:102A100000000000000000000000000000000100B5
:102A200000000100000000000000000000000000A5
:102A30000000000000000000000000000100010094
:102A40000100010001000000000000000000000083
:102A50000000000000000000000000000000000076
:102A60000000010000000000000000000000000065
:102A70000000000000000000000000000000000056
:102A80000000010000000000000000000000000045
:102A90000000000000000000000000000000000036
:102AA0000000010000000000000000000000000025
:102AB0000000000000000000000000000000000016
:102AC0000000000000000000000000000000000006
:102AD00000000000000000000000000000000000F6
:102AE00000000000000000000000000000000000E6
:102AF00000000000000000000000000000000100D5
:102B000001000100000000000000000000000000C3
:102B100000000000000000000000000000000100B4
:102B200000000000000000000000000000000000A5
:102B30000000000000000000000000000000010094
:102B40000100010000000000000000000000000083
:102B50000000000000000000000000000000000075
:102B60000000010000000000000000000000000064
:102B70000000000000000000000000000000010054
:102B80000100010000000000000000000000000043
:102B90000000000000000000000000000000000035
:102BA0000000000000000000000000000000000025
:102BB0000000000000000000000000000000000015
:102BC0000000000000000000000000000000000005
:102BD00000000000000000000000000000000100F4
:102BE00001000100000000000000000000000000E3
:102BF00000000000000000000000000000000100D4
:102C000000000000000000000000000000000000C4
:102C100000000000000000000000000000000100B3
:102C200000000000000000000000000000000000A4
:102C30000000000000000000000000000000010093
:102C40000100010000000000000000000000000082
:102C50000000000000000000000000000000010073
:102C60000000010000000000000000000000000063
:102C70000000000000000000000000000000010053
:102C80000100010000000000000000000000000042
:102C90000000000000000000000000000000000034
:102CA0000000000000000000000000000000000024
:102CB0000000000000000000000000000000000014
:102CC0000000000000000000000000000000000004
:102CD00000000000000000000000000000000100F3
:102CE00001000100000000000000000000000000E2
:102CF00000000000000000000000000000000000D4
:102D000000000100000000000000000000000000C2
:102D100000000000000000000000000000000000B3
:102D200000000100000000000000000000000000A2
:102D30000000000000000000000000000000000093
:102D40000100010001000000000000000000000080
:102D50000000000000000000000000000000000073
:102D60000000010000000000000000000000000062
:102D70000000000000000000000000000000000053
:102D80000000010000000000000000000000000042
:102D90000000000000000000000000000000000033
:102DA0000000000000000000000000000000000023
:102DB0000000000000000000000000000000000013
:102DC0000000000000000000000000000000000003
:102DD00000000000000000000000000000000000F3
:102DE00000000000000000000000000000000000E3
:102DF00000000000000000000000000000000100D2
:102E000001000100000000000000000000000000C0
:102E100000000000000000000000000000000100B1
:102E200000000100000000000000000000000000A1
:102E30000000000000000000000000000000010091
:102E40000100010000000000000000000000000080
:102E50000000000000000000000000000000010071
:102E60000000010000000000000000000000000061
:102E70000000000000000000000000000000010051
:102E80000100010000000000000000000000000040
:102E90000000000000000000000000000000000032
:102EA0000000000000000000000000000000000022
:102EB0000000000000000000000000000000000012
:102EC0000000000000000000000000000000000002
:102ED00000000000000000000000000000000000F2
:102EE00000000000000000000000000000000000E2
:102EF00000000000000000000000000000000100D1
:102F000001000100000000000000000000000000BF
:102F100000000000000000000000000000000100B0
:102F200000000100000000000000000000000000A0
:102F30000000000000000000000000000000010090
:102F4000010001000000000000000000000000007F
:102F50000000000000000000000000000000000071
:102F60000000010000000000000000000000000060
:102F70000000000000000000000000000000010050
:102F8000010001000000000000000000000000003F
:102F90000000000000000000000000000000000031
:102FA0000000000000000000000000000000000021
:102FB0000000000000000000000000000000000011
:102FC0000000000000000000000000000000000001
:102FD00000000000000000000000000000000100F0
:102FE00000000000010001000100000000000000DE
:102FF00000000000000000000000000001000100CF
:1030000000000000010000000100000000000000BE
:1030100000000000000000000000000000000100AF
:10302000000000000100000001000000000000009E
:10303000000000000000000000000000000001008F
:10304000000000000100000001000000000000007E
:10305000000000000000000000000000000001006F
:10306000000000000100000001000000000000005E
:10307000000000000000000000000000000001004F
:10308000000000000100010001000000000000003D
:103090000000000000000000000000000000000030
:1030A0000000000000000000000000000000000020
:1030B0000000000000007803E2020F03C503400394
:1030C0001E0332030D0A0074657374696E67310064
:0C30D00074657374696E67320020200084
:00000001FF
