:020000040000FA
:100000000C9435010C9466010C9466010C94660105
:100010000C9466010C9466010C9466010C946601C4
:100020000C9466010C9466010C9466010C946601B4
:100030000C9466010C9466010C9466010C946601A4
:100040000C9466010C9466010C9466010C94660194
:100050000C9466010C9466010C9466010C9458068D
:100060000C9466010C94CC060C94A2060C946601C8
:100070000C9466010C9466010C9466010C94660164
:100080000C9466010C9466010C9466010C94660154
:100090000C9466010C9466010C9466010C94660144
:1000A0000C9466010C9466010C9466010C94660134
:1000B0000C9466010C9466010C9466010C94660124
:1000C0000C9466010C9466010C9466010C94660114
:1000D0000C9466010C9466010C9466010C94660104
:1000E0000C9466010C9426030C9457030C94C301E2
:1000F0000C94C9010C9449030C94EE010C94020772
:100100000C94AE010C94BC010C94CD010C94DC0356
:100110000C94EF010C94E1010C94E9010C94E501BD
:100120000C94D3010C94F3010C9435030C94D70177
:100130000C94F9020C94B4010C94DB010C94B801FA
:100140000C94C0010C948F030000210024002700B0
:100150002A002D00300033000101000004010701D6
:100160000A0100002200250028002B002E0031008B
:10017000340002010000050108010B01000020000D
:100180002300260029002C002F003200000100006F
:10019000030106010901050505050705080808080A
:1001A000020202020A0A080804040404010101010F
:1001B000010101010303030303030303040707070A
:1001C0000C0C0C0C0C0C0C0C0202020206060606AF
:1001D000060606060B0B0B0B0B0B0B0B010210207C
:1001E000200808102040102040800201020108046D
:1001F0000201010204081020408080402010080401
:100200000201800402018040201008040201080459
:10021000020101020408102040800102040810209D
:10022000408000000A0B02090C0D0E0807030401B0
:1002300000000000000000000000000000000000BE
:10024000000000000000000000000000000012118B
:10025000100000000000000000000000000000008E
:100260000000000000000000020711241FBECFEFB5
:10027000D1E2DEBFCDBF00E00CBF12E1A0E0B2E0F2
:10028000E0E7F5E200E00BBF02C007900D92A8374F
:10029000B107D9F724E1A8E7B2E101C01D92A43368
:1002A000B207E1F711E0C5E3D1E000E006C0219715
:1002B0000109802FFE010E949A12C433D10780E009
:1002C0000807A9F70E94B6070C94B6120C94000018
:1002D000EFE3F3E1A089B18982E08C93A485B58531
:1002E0001C92A685B7858FEC8C93108EA489B58956
:1002F00086E08C93A289B3898C9180618C93A289CA
:10030000B3898C9188608C93A289B3898C91806821
:100310008C930288F389E02D80818F7D80830895FE
:100320008150823108F05AC0E82FF0E08827E45667
:10033000FE4F8F4F0C949A12BC01C001AE01B40164
:10034000B801EE01C301C901CD01D301D701DB0121
:10035000E101E501EE01E901EF01F3018091800087
:100360008F77809380000895809180008F7DF9CFF2
:1003700080918000877FF5CF84B58F7784BD089505
:1003800084B58F7DFBCF8091B0008F778093B000D4
:1003900008958091B0008F7DF9CF809190008F7784
:1003A000809390000895809190008F7DF9CF809187
:1003B0009000877FF5CF8091A0008F778093A00079
:1003C00008958091A0008F7DF9CF8091A000877F54
:1003D000F5CF809120018F7780932001089580913F
:1003E00020018F7DF9CF80912001877FF5CFCF93BA
:1003F000DF93282F30E0F901EE5DFD4F8491F90184
:10040000E452FE4FD491F901EA56FE4FC491CC2339
:10041000A1F081110E949001EC2FF0E0EE0FFF1F80
:10042000E458FE4FA591B491EC91ED2381E090E06A
:1004300009F480E0DF91CF91089580E090E0FACF59
:100440001F93CF93DF93282F30E0F901EE5DFD4F2E
:100450008491F901E452FE4FD491F901EA56FE4F1E
:10046000C491CC23A9F0162F81110E949001EC2F8A
:10047000F0E0EE0FFF1FEE59FE4FA591B4918FB73C
:10048000F894EC91111108C0D095DE23DC938FBF56
:10049000DF91CF911F910895DE2BF8CFCF93DF939B
:1004A00090E0FC01E452FE4F24918A569E4FFC01DD
:1004B00084918823D1F090E0880F991FFC01E85BBC
:1004C000FE4FA591B491FC01EE59FE4FC591D49118
:1004D00061110EC09FB7F8948C91E22FE0958E23A6
:1004E0008C932881E223E8839FBFDF91CF91089509
:1004F0008FB7F894EC91E22BEC938FBFF6CF9091ED
:100500007B00977F90937B008653806480937C0070
:1005100080917A00806480937A0080917A0086FDD1
:10052000FCCF809178009091790008953FB7F894BE
:1005300080913B1390913C13A0913D13B0913E13D9
:1005400026B5A89B05C02F3F19F00196A11DB11D2E
:100550003FBFBA2FA92F982F8827BC01CD01620F6A
:10056000711D811D911D42E0660F771F881F991F25
:100570004A95D1F708958F929F92AF92BF92CF92F2
:10058000DF92EF92FF924B015C010E9496026B0199
:100590007C010E9496026C197D098E099F09683EB4
:1005A000734081059105A8F321E0821A9108A10802
:1005B000B10888EEC80E83E0D81EE11CF11C81143E
:1005C0009104A104B10429F7FF90EF90DF90CF9040
:1005D000BF90AF909F908F9008952FB7F89460913F
:1005E0003713709138138091391390913A132FBFBC
:1005F0000895AF92BF92CF92DF92EF92FF920F9346
:100600001F93CF93DF936C017B018B01040F151FA8
:10061000EB015E01AE18BF08C017D10759F0699110
:10062000D601ED91FC910190F081E02DC601199564
:10063000892B79F7C501DF91CF911F910F91FF9021
:10064000EF90DF90CF90BF90AF900895FC01538D55
:10065000448D252F30E0842F90E0821B930B54179C
:1006600010F0CF96089501970895FC01918D828D29
:10067000981761F0A28DAE0FBF2FB11D5D968C91C2
:10068000928D9F5F9F73928F90E008958FEF9FEF01
:100690000895FC01918D828D981731F0828DE80FBD
:1006A000F11D858D90E008958FEF9FEF0895FC0177
:1006B000918D228D892F90E0805C9F4F821B910944
:1006C0008F73992708958FE393E10E94570321E0E8
:1006D000892B09F420E0822F0895FC01A48DA80F36
:1006E000B92FB11DA35ABF4F2C91848D90E0019674
:1006F0008F739927848FA689B7892C93A089B18994
:100700008C91837080648C93938D848D981306C034
:100710000288F389E02D80818F7D80830895EF9298
:10072000FF920F931F93CF93DF93EC0181E0888FAB
:100730009B8D8C8D98131AC0E889F989808185FF7B
:1007400015C09FB7F894EE89FF896083E889F9891D
:1007500080818370806480839FBF81E090E0DF911F
:10076000CF911F910F91FF90EF900895F62E0B8D72
:1007700010E00F5F1F4F0F731127E02E8C8D8E112D
:100780000CC00FB607FCFACFE889F989808185FF94
:10079000F5CFCE010E946D03F1CFEB8DEC0FFD2F55
:1007A000F11DE35AFF4FF0829FB7F8940B8FEA894F
:1007B000FB8980818062CFCFCF93DF93EC01888D5E
:1007C0008823B9F0AA89BB89E889F9898C9185FDCC
:1007D00003C0808186FD0DC00FB607FCF7CF8C915A
:1007E00085FFF2CF808185FFEDCFCE010E946D03A2
:1007F000E9CFDF91CF91089580E090E0892B29F037
:100800000E94630381110E94000080E090E0892B28
:1008100049F080E090E0892B29F00E9400008111CE
:100820000E94000080E090E0892B49F080E090E099
:10083000892B29F00E94000081110E94000080E0B5
:1008400090E0892B49F080E090E0892B29F00E940C
:10085000000081110C9400000895CF93DF93C82FFE
:10086000DEE0D60F60E08D2F0E942002CA5E61E0BC
:100870008C2F0E94200261E070E080E090E00E94F6
:10088000BB0261E08D2F0E94200260E08C2FDF917F
:10089000CF910C94200288E792E130E020E0FC0147
:1008A000E20FF31F10822F5F3F4F20313105B9F760
:1008B000409622E1883F920781F70895CF92DF9218
:1008C000EF92FF920F931F93CF93DF931F921F928C
:1008D000CDB7DEB769834A83880F991F0091321420
:1008E00010913314000F111FECEDF3E19F012C5D0B
:1008F00033412017310714F41192F8CF2981FC01FC
:10090000E452FC4E21838A81808360E08091301420
:100910000E9420021016110604F501501109F80179
:10092000E452FC4EE080D0902E14C0902C1488E04D
:10093000F82E6E2D661F6627661F8C2D0E942002E2
:10094000EE0C61E08D2D0E94200260E08D2D0E9452
:100950002002FA94F110EDCFDDCF61E080913014E8
:100960000F900F90DF91CF911F910F91FF90EF901B
:10097000DF90CF900C942002EF92FF920F931F9381
:10098000CF937C018C0183E0000F111F8A95E1F762
:1009900004511C4EC1E0F80111928F0140E06C2F10
:1009A000C7010E945E04CF5FC930A9F7CF911F91A4
:1009B0000F91FF90EF9008952091321430913314ED
:1009C00012161306FCF488309105E1F068307105C9
:1009D000C9F020E830E002C0359527956A95E2F726
:1009E000FC01E452FC4E5089442349F0252B208B16
:1009F00061E0680F408990E080E00C945E042095EF
:100A00002523F5CF0895AF92BF92CF92DF92EF9258
:100A1000FF920F931F93CF93DF9338E7E32E32E1DA
:100A2000F32E10E000E0D0E0C0E041E0F701EC0F71
:100A3000FD1F8081813009F040E0BE01C8010E94A5
:100A4000DC042196C830D10581F70F5F1F4F80E18C
:100A5000E80EF11C0830110531F793E0E92EF12C76
:100A600023ECA22EB12C88E7C82E82E1D82E10E00C
:100A700000E0C8E0D0E0F601EC0FFD1F808181307E
:100A800001F5B801CE0108970E942D042196C031CE
:100A9000D10589F70F5F1F4F80E1C80ED11C0830C8
:100AA000110539F781E0E81AF108E9F6DF91CF91F5
:100AB0001F910F91FF90EF90DF90CF90BF90AF907C
:100AC0000895C5010197F1F7E1CFCF92DF92EF9240
:100AD000FF920F931F93CF93DF9320E5E22E22E046
:100AE000F22E670110E000E0D0E0C0E0FE01EE0F62
:100AF000FF1FEC0DFD1D41E080819181019709F000
:100B000040E0BE01C8010E94DC042196C830D10536
:100B100069F70F5F1F4F80E2C80ED11C0830110526
:100B200019F710E000E0C8E0D0E0FE01EE0FFF1F73
:100B3000EE0DFF1D80819181019729F4B801CE014E
:100B400008970E942D042196C031D10571F70F5FDF
:100B50001F4F80E2E80EF11C0830110521F7DF91EC
:100B6000CF911F910F91FF90EF90DF90CF9008955C
:100B7000FC0101900020E9F73197AF01481B590BA8
:100B8000BC018FE393E10C94F9028F929F92AF9294
:100B9000BF920F931F93CF93DF93CDB7DEB7A1978B
:100BA0000FB6F894DEBF0FBECDBF19A2423008F4D5
:100BB0004AE08E010F5D1F4F842E912CB12CA12C89
:100BC000A50194010E945512E62FB901CA01EA302D
:100BD000F4F4E05DD801EE938D01232B242B252B1B
:100BE00079F790E080E0109719F0CD010E94B805E8
:100BF000A1960FB6F894DEBF0FBECDBFDF91CF91A7
:100C00001F910F91BF90AF909F908F900895E95CD6
:100C1000E1CFCF93DF930E94B805EC018AE392E124
:100C20000E94B8058C0F9D1FDF91CF910895CF9240
:100C3000DF92EF92FF92CF93DF936C01990FEE0852
:100C4000FF08F7FE1FC06DE28FE393E10E948F0360
:100C5000EC0166277727CB016C197D098E099F0966
:100C60004AE00E94C505C80FD91F8AE392E10E949D
:100C7000B8058C0F9D1FDF91CF91FF90EF90DF9013
:100C8000CF9008954AE0C701B6010E94C505EC0166
:100C9000ECCFCF93DF934AE00E94C505EC018AE3D5
:100CA00092E10E94B8058C0F9D1FDF91CF910895AE
:100CB0001F920F920FB60F9211242F933F938F9391
:100CC0009F93AF93BF938091371390913813A09166
:100CD0003913B0913A133091361323E0230F2D3797
:100CE00058F50196A11DB11D20933613809337133B
:100CF00090933813A0933913B0933A1380913B1318
:100D000090913C13A0913D13B0913E130196A11D0B
:100D1000B11D80933B1390933C13A0933D13B0936C
:100D20003E13BF91AF919F918F913F912F910F9063
:100D30000FBE0F901F90189526E8230F0296A11D55
:100D4000B11DD2CF1F920F920FB60F9211240BB686
:100D50000F922F933F934F935F936F937F938F9354
:100D60009F93AF93BF93EF93FF938FE393E10E9421
:100D70006D03FF91EF91BF91AF919F918F917F9103
:100D80006F915F914F913F912F910F900BBE0F90FC
:100D90000FBE0F901F9018951F920F920FB60F92D3
:100DA00011240BB60F922F938F939F93EF93FF9382
:100DB000E0914F13F09150138081E0915513F09121
:100DC000561382FD1DC09081809158138F5F8F73E1
:100DD00020915913821741F0E0915813F0E0E15C43
:100DE000FC4E958F80935813FF91EF919F918F91B7
:100DF0002F910F900BBE0F900FBE0F901F90189564
:100E00008081F2CFCF93DF9310924213109241135F
:100E100088EE93E0A0E0B0E08093431390934413F6
:100E2000A0934513B09346138CE292E19093401344
:100E300080933F1385EC90E090934C1380934B1379
:100E400084EC90E090934E1380934D1380EC90E0EF
:100E50009093501380934F1381EC90E09093521332
:100E60008093511382EC90E090935413809353132A
:100E700086EC90E09093561380935513109258137C
:100E80001092591310925A1310925B13C7E0D0E0DE
:100E9000D0932D14C0932C1486E090E090932F14DF
:100EA00080932E1485E090E0909331148093301459
:100EB00081E090E0909333148093321461E087E0F6
:100EC0000E944E0261E080912E140E944E0261E069
:100ED000809130140E944E0261E0809130140E9493
:100EE0002002D0932D14C0932C14ECEEF3E1119258
:100EF00084E1EC32F807D9F7D0E0C0E080913214F9
:100F000090913314C817D90774F540E06FE0CE0113
:100F10000E945E048091321490913314C817D9074F
:100F20002CF447E06BE0CE010E945E0440E069E0F3
:100F3000CE010E945E048091321490913314C81740
:100F4000D9071CF4CE010E94BC0480913214909108
:100F50003314C817D9072CF440E06CE0CE010E948E
:100F60005E042196CBCFDF91CF910895789484B51C
:100F7000826084BD84B5816084BD85B5826085BD95
:100F800085B5816085BD80916E00816080936E0023
:100F90001092810080918100826080938100809115
:100FA00081008160809381008091800081608093C6
:100FB00080008091B10084608093B1008091B00086
:100FC00081608093B0008091910082608093910055
:100FD0008091910081608093910080919000816068
:100FE000809390008091A10082608093A100809105
:100FF000A10081608093A1008091A0008160809316
:10100000A0008091210182608093210180912101C3
:101010008160809321018091200181608093200173
:1010200080917A00846080937A0080917A00826057
:1010300080937A0080917A00816080937A00809119
:101040007A00806880937A001092C10080913214F7
:10105000909133141816190634F441E06CE090E0D6
:1010600080E00E945E04809132149091331418162F
:10107000190634F448E06AE090E080E00E945E04E3
:10108000CEE061E08C2F0E944E02CF5FC631C9F7DF
:1010900061E08C2F0E944E02CF5FCE31C9F7CEE0C7
:1010A00061E08C2F0E942002CF5FC631C9F760E05B
:1010B0008C2F0E942002CF5FCE31C9F760E08DE017
:1010C0000E944E0260E08CE00E944E0260E08BE0E5
:1010D0000E944E0260E08AE00E944E02CBEC2C2E71
:1010E000C7E03C2ED3E04D2E512C612C712C809109
:1010F000341390913513892B09F083C10E94680144
:101100008DE00E94F701EC018AE00E94F7018C015A
:101110000E94ED02C0900413D0900513E0900613D6
:10112000F09007136C197D098E099F0966397105C6
:1011300081059105C4F00E94ED0260930413709341
:1011400005138093061390930713809102029091E8
:1011500003022091000230910102820F931F9093AD
:101160000302809302028091FE129091FF12C81731
:10117000D90751F00E94ED026093FA127093FB12AE
:101180008093FC129093FD12809116139091171387
:101190000817190759F10E94ED0260931E1370930E
:1011A0001F1380932013909321130130110571F4C4
:1011B0008DE392E10E9409060E94ED0260931213F2
:1011C000709313138093141390931513209771F455
:1011D00086E492E10E9409060E94ED0260930E13DC
:1011E00070930F1380931013909311130E94ED02CC
:1011F000C090FA12D090FB12E090FC12F090FD1219
:101200006C197D098E099F0963337105810591056C
:10121000D8F08091F8129091F912C817D907A1F06F
:10122000D093F912C093F812C130D10569F48091BE
:10123000000290910102019709F0B0C18FEF9FEF7A
:1012400090930102809300020E94ED02C09012135D
:10125000D0901313E0901413F09015136C197D09BE
:101260008E099F090E944906609112137091131311
:1012700080911413909115130E94490660910E13EA
:1012800070910F1380911013909111130E944906D1
:101290008FE492E10E940906C0901213D0901313BC
:1012A000E0901413F090151380910E1390910F138A
:1012B000A0911013B0911113C816D906EA06FB06C7
:1012C00001F101151105E9F48C199D09AE09BF0959
:1012D000803D9740A105B105A0F064E670E080E094
:1012E00090E00E94BB02C0920E13D0920F13E092C6
:1012F0001013F092111381E090E0909335138093D6
:1013000034131093171300931613D093FF12C09346
:10131000FE12C0900202D0900302E8E7F2E18F01D2
:10132000D0E0C0E04BE730E020E04C9FC0014D9F93
:10133000900D1124BC01605B7C4F7B01C601820FC4
:10134000931F6BE770E00E948612D701A80FB91FA8
:101350008C91D801A20FB31F813009F024C18C9366
:101360002F5F3F4F2031310549F72196005F1F4F16
:10137000C830D105C1F678E7C716D104C4F088E7B4
:1013800092E130E020E0DC01A20FB31F1C922F5F3E
:101390003F4F20313105B9F74096A2E1883F9A07C7
:1013A00081F78CEF9FEF909303028093020280916C
:1013B0000202909103028B3F9F4FACF490E080E0DB
:1013C000DF01A80FB91F1C92019680319105C1F76A
:1013D000709622E1E83FF20789F789E690E0909362
:1013E00003028093020262E070E080E090E00E94DD
:1013F000BB020E94030561E070E080E090E00E9483
:10140000BB0280913413909135138130910509F01E
:1014100037C10E944B046AE070E080E090E00E94D7
:10142000BB020E9465058CE00E94F7018C018BE0F5
:101430000E94F7017C0180913213909133130817B9
:10144000190751F00E94ED0260932E1370932F1331
:10145000809330139093311380912C1390912D131E
:10146000E816F90651F00E94ED026093281370937C
:10147000291380932A1390932B130E94ED028090DE
:101480002E1390902F13A0903013B0903113681941
:1014900079098A099B09633371058105910508F46F
:1014A000B6C080912613909127130817190709F4E5
:1014B000AEC010932713009326130130110509F0D5
:1014C000A6C083E090E090934B0280934A0282E5AD
:1014D00092E10E94090680910A1390910B130E94D9
:1014E000170683E090E00E94170680910A139091FE
:1014F0000B1303970CF059C00E94ED0261157105A2
:101500008105910511F00E941A120E94CB112FE063
:1015100030E040E050E00E9423124B016B01C1011A
:101520000197F1F70E94ED026F5F7F4F8F4F9F4F42
:1015300011F00E941A120E94CB11F1013197F1F7BC
:10154000E401CC0FDD1FCC0FDD1FC85FDD4F2A810A
:101550003B81232B51F6A30192010E9423124B01E0
:101560005C01AFEF8A1A9A0AAA0ABA0A9B828A8297
:1015700080910A1390910B13019690930B13809313
:101580000A130E941706C6010E941706C4010E9492
:1015900017068AE392E10E94B805A7CFD093010213
:1015A000C093000251CE1C92DBCEE8E0F2E068E48A
:1015B00072E0C1E04281538141155105C1F030E034
:1015C00020E0241735079CF487E090E0821B930B02
:1015D000A4E0880F991FAA95E1F788589D4EA08135
:1015E000B181A80FB91FCC932F5F3F4FEACF34963C
:1015F0006E177F07F9F664E670E080E090E00E94E5
:10160000BB0282E090E090933513809334130E94E4
:10161000ED028090281390902913A0902A13B09087
:101620002B13681979098A099B09633371058105B0
:101630009105D8F08091241390912513E816F906AE
:10164000A1F0F0922513E0922413B1E0EB16F1041F
:1016500061F464E670E080E090E00E94BB0284E008
:1016600090E09093351380933413F0922D13E09211
:101670002C1310933313009332130E94FC0337CDC5
:101680008230910509F0C3C18DE00E94F701EC01A1
:10169000E0900013F09001130091021310910313D6
:1016A000F70184E0EE0FFF1F8A95E1F7E858FD4E41
:1016B000E00FF11F1082EFEFEE1AFE0AC70124E0DF
:1016C000880F991F2A95E1F788589D4EFC01E00F7D
:1016D000F11F10820F5F1F4F800F911FDC011C92C2
:1016E00012820E94ED028090041390900513A09046
:1016F0000613B0900713AB01BC01481959096A09D8
:101700007B098091480290914902092E000CAA0B96
:10171000BB0B481759076A077B070CF48AC00E9465
:10172000ED02609304137093051380930613909356
:10173000071300311105D9F110930313009302131D
:1017400080910602909107028F3F980709F471C0BB
:10175000BC016F5F7F4F2091040230910502FB01B5
:1017600004E0EE0FFF1F0A95E1F7E858FD4EE20F87
:10177000F31F4081413009F048C0A901440F551FB3
:10178000440F551FFA01E85FFD4F02811381F901F3
:10179000E858FD4E70E060E070976017710784F4C0
:1017A000DF01A058BF4F1C926F5F7F4FF5CF1092A3
:1017B000031310920213F0920113E0920013C0CFB2
:1017C000485F5D4FFA011382128240910A135091D3
:1017D0000B134150510950930B1340930A13B4E07B
:1017E000880F991FBA95E1F788589D4E820F931F75
:1017F000DC011C928FEF9FEF90930502809304020F
:10180000909307028093060214C0AC01A4E0440F39
:10181000551FAA95E1F748585D4E240F351FD90191
:101820001C9207973CF7709307026093060281E0D1
:1018300080838091FE129091FF12C817D90751F052
:101840000E94ED026093FA127093FB128093FC12D7
:101850009093FD120E94ED02209102133091031328
:10186000A0910013B0910113C090FA12D090FB1216
:10187000E090FC12F090FD12AB01BC014C195D0927
:101880006E097F09433351056105710588F1409167
:10189000F8125091F912C417D50751F1D093F912EB
:1018A000C093F812C130D10519F54091040250914E
:1018B00005024F3F5F4FE1F440910602509107024D
:1018C0004F3F5F4FA9F43093050220930402FD01BE
:1018D0003296F0930702E093060294E0EE0FFF1FAA
:1018E0009A95E1F7E858FD4EE20FF31F41E040837F
:1018F000D093FF12C093FE12AD0184E0440F551F38
:101900008A95E1F748575D4EF9013296E40FF51FCD
:101910006081613009F068C0CD0102979093011396
:101920008093001322503109309303132093021344
:1019300080914A0290914B02019790934B028093C1
:101940004A02892B71F481E090E0909335138093E3
:101950003413109203131092021310920113109279
:1019600000130E9403058AE00E94F701EC018091B8
:10197000221390912313C817D90751F00E94ED024A
:1019800060931E1370931F13809320139093211361
:101990000E94ED0200911E1310911F13209120133D
:1019A00030912113601B710B820B930B6333710514
:1019B00081059105A0F080911C1390911D13C8170B
:1019C000D90769F0D0931D13C0931C13C130D10502
:1019D00031F483E090E09093351380933413D093E7
:1019E0002313C093221349CE04E0AA0FBB1F0A950C
:1019F000E1F7A858BD4EA20FB31F81E08C93DA0126
:101A0000A20FB31F8C9311968C938083AACF83303F
:101A1000910509F032C480914A0290914B020097DF
:101A200009F04DC1C0910813D0910913C431D105FB
:101A300008F02FC118E2C12E17E0D12E5601F12C6B
:101A4000E12C08E010E0F801EE0FFF1FEA0DFB1D8E
:101A500041E080819181019709F040E0B801685030
:101A60007109C7010E94DC040F5F1F4F003111058F
:101A700051F72FEFE21AF20A60E2A60EB11C78E0ED
:101A8000E716F104F1F6F12CE12C10E000E0F8018A
:101A9000EE0FFF1FEC0DFD1D80819181019721F458
:101AA000B701C8010E942D040F5F1F4F08301105B8
:101AB00071F78FEFE81AF80AA0E2CA0ED11CB8E05D
:101AC000EB16F10411F72196D0930913C093081374
:101AD0000E94680164E670E080E090E00E94BB0232
:101AE0008AE00E94F701EC01809116139091171380
:101AF000C817D907E1F00E94ED0260931E1370939E
:101B00001F138093201390932113C130D10509F046
:101B1000A2C38DE392E10E9409060E94ED02609348
:101B200012137093131380931413909315130E9440
:101B3000ED0200911E1310911F132091201330917C
:101B40002113601B710B820B930B633371058105AD
:101B5000910558F080910C1390910D13C817D90777
:101B600021F0D0930D13C0930C130E94ED0200914D
:101B70001213109113132091141330911513601B3D
:101B8000710B820B930B0E944906609112137091A6
:101B9000131380911413909115130E9449066091BC
:101BA0000E1370910F1380911013909111130E94D6
:101BB00049068FE492E10E940906C0901213D0906A
:101BC0001313E0901413F090151380910E1390915D
:101BD0000F13A0911013B0911113C816D906EA067D
:101BE000FB0609F451C0209709F04EC08C199D09DD
:101BF000AE09BF09883B9B40A105B10510F1E8E0A3
:101C0000F2E088E492E01382128234968E179F07E6
:101C1000D1F710920B1310920A13C0920E13D092A8
:101C20000F13E0921013F092111364E670E080E05D
:101C300090E00E94BB0281E090E090933513809386
:101C4000341380910E1390910F13A0911013B09143
:101C50001113805D9740A109B1098C199D09AE0946
:101C6000BF09883E9340A105B10570F482E090E081
:101C70009093351380933413C0920E13D0920F13A8
:101C8000E0921013F0921113D0931713C093161310
:101C9000F4CCCE0144970A9718F40E94030513CFA1
:101CA0000E9465058091321490913314181619061C
:101CB0000CF00ECF90E080E00E94BC0409CF813090
:101CC000910509F043C0E8E2EE2EE8E0FE2E670140
:101CD00010E000E0D0E0C0E0FE01EE0FFF1FEC0DD1
:101CE000FD1D41E080819181019709F040E0BE0136
:101CF000C8010E94DC042196C830D10569F70F5F46
:101D00001F4FE0E2CE0ED11C0830110519F710E08C
:101D100000E0C8E0D0E0FE01EE0FFF1FEE0DFF1D5A
:101D200080819181019729F4B801CE0108970E9422
:101D30002D042196C031D10571F70F5F1F4FF0E2DE
:101D4000EF0EF11C0830110521F7C2CE823091054B
:101D500009F043C058E2E52E59E0F52E670110E086
:101D600000E0D0E0C0E0FE01EE0FFF1FEC0DFD1D16
:101D700041E080819181019709F040E0BE01C801F6
:101D80000E94DC042196C830D10569F70F5F1F4F10
:101D900020E2C20ED11C0830110519F710E000E056
:101DA000C8E0D0E0FE01EE0FFF1FEE0DFF1D8081A9
:101DB0009181019729F4B801CE0108970E942D0462
:101DC0002196C031D10571F70F5F1F4F60E2E60E1B
:101DD000F11C0830110521F77BCE8330910509F005
:101DE00043C028E2E22E2AE0F22E670110E000E074
:101DF000D0E0C0E0FE01EE0FFF1FEC0DFD1D41E045
:101E000080819181019709F040E0BE01C8010E94E4
:101E1000DC042196C830D10569F70F5F1F4F70E2CF
:101E2000C70ED11C0830110519F710E000E0C8E01A
:101E3000D0E0FE01EE0FFF1FEE0DFF1D80819181AE
:101E4000019729F4B801CE0108970E942D0421962C
:101E5000C031D10571F70F5F1F4F80E2E80EF11C12
:101E60000830110521F734CE8430910509F044C0C3
:101E7000C8E2EC2ECBE0FC2E670110E000E0C8E0E9
:101E8000D0E0FE01EE0FFF1FEC0DFD1D41E0808153
:101E90009181019709F040E0BE0168507109C801C5
:101EA0000E94DC042196C031D10559F70F5F1F4F06
:101EB000A0E2CA0ED11C0830110509F710E000E0BD
:101EC000D0E0C0E0FE01EE0FFF1FEE0DFF1D808190
:101ED0009181019721F4B801CE010E942D04219631
:101EE000C830D10579F70F5F1F4FB0E2EB0EF11C40
:101EF0000830110529F7ECCD8530910509F044C073
:101F0000E8E2EE2EECE0FE2E670110E000E0C8E013
:101F1000D0E0FE01EE0FFF1FEC0DFD1D41E08081C2
:101F20009181019709F040E0BE0168507109C80134
:101F30000E94DC042196C031D10559F70F5F1F4F75
:101F4000E0E2CE0ED11C0830110509F710E000E0E8
:101F5000D0E0C0E0FE01EE0FFF1FEE0DFF1D8081FF
:101F60009181019721F4B801CE010E942D042196A0
:101F7000C830D10579F70F5F1F4FF0E2EF0EF11C6B
:101F80000830110529F7A4CD8630910509F044C029
:101F900058E2E52E5DE0F52E670110E000E0C8E0B4
:101FA000D0E0FE01EE0FFF1FEC0DFD1D41E0808132
:101FB0009181019709F040E0BE0168507109C801A4
:101FC0000E94DC042196C031D10559F70F5F1F4FE5
:101FD00020E2C20ED11C0830110509F710E000E024
:101FE000D0E0C0E0FE01EE0FFF1FEE0DFF1D80816F
:101FF0009181019721F4B801CE010E942D04219610
:10200000C830D10579F70F5F1F4F60E2E60EF11C73
:102010000830110529F75CCD8730910509F044C0DF
:1020200028E2E22E2EE0F22E670110E000E0C8E088
:10203000D0E0FE01EE0FFF1FEC0DFD1D41E08081A1
:102040009181019709F040E0BE0168507109C80113
:102050000E94DC042196C031D10559F70F5F1F4F54
:1020600070E2C70ED11C0830110509F710E000E03E
:10207000D0E0C0E0FE01EE0FFF1FEE0DFF1D8081DE
:102080009181019721F4B801CE010E942D0421967F
:10209000C830D10579F70F5F1F4F80E2E80EF11CC1
:1020A0000830110529F714CD8830910509F044C096
:1020B000C8E2EC2ECFE0FC2E670110E000E0C8E0A3
:1020C000D0E0FE01EE0FFF1FEC0DFD1D41E0808111
:1020D0009181019709F040E0BE0168507109C80183
:1020E0000E94DC042196C031D10559F70F5F1F4FC4
:1020F000A0E2CA0ED11C0830110509F710E000E07B
:10210000D0E0C0E0FE01EE0FFF1FEE0DFF1D80814D
:102110009181019721F4B801CE010E942D042196EE
:10212000C830D10579F70F5F1F4FB0E2EB0EF11CFD
:102130000830110529F7CCCC8930910509F044C04D
:10214000E8E2EE2EE0E1FE2E670110E000E0C8E0DC
:10215000D0E0FE01EE0FFF1FEC0DFD1D41E0808180
:102160009181019709F040E0BE0168507109C801F2
:102170000E94DC042196C031D10559F70F5F1F4F33
:10218000E0E2CE0ED11C0830110509F710E000E0A6
:10219000D0E0C0E0FE01EE0FFF1FEE0DFF1D8081BD
:1021A0009181019721F4B801CE010E942D0421965E
:1021B000C830D10579F70F5F1F4FF0E2EF0EF11C29
:1021C0000830110529F784CC0A9709F081CC58E230
:1021D000E52E51E1F52E670110E000E0C8E0D0E007
:1021E000FE01EE0FFF1FEC0DFD1D41E0808191818E
:1021F000019709F040E0BE0168507109C8010E94D2
:10220000DC042196C031D10559F70F5F1F4F20E242
:10221000C20ED11C0830110509F710E000E0D0E033
:10222000C0E0FE01EE0FFF1FEE0DFF1D80819181CA
:10223000019721F4B801CE010E942D042196C830E7
:10224000D10579F70F5F1F4F60E2E60EF11C0830F1
:10225000110529F73DCC209709F069CC86E492E17D
:102260000E9409060E94ED0260930E1370930F13F3
:1022700080931013909311135ACC049709F0FDC961
:1022800080911A1390911B13892B59F40E944B04CF
:102290000E94030581E090E090931B1380931A1332
:1022A000ECC988E592E10E94090688E692E10E9465
:1022B000090686E30E947F02BC01990F880B990BE7
:1022C00023E0660F771F881F991F2A95D1F720E01A
:1022D00034E040E050E00E942312E90130931913EA
:1022E0002093181387E30E947F02CD2B09F0C5C904
:1022F00088EC90E09093490280934802BEC98F9287
:102300009F92AF92BF92CF92DF92EF92FF92CF93C4
:10231000DF93EC01688179818A819B816115710568
:102320008105910521F464E279ED8BE597E02DE1DB
:1023300033EF41E050E00E94231249015A019B0112
:10234000AC01A7EAB1E40E9442126B017C01ACEE41
:10235000B4EFA50194010E945012C60ED71EE81ECC
:10236000F91EF7FE06C081E0C81AD108E10880E82E
:10237000F80AC882D982EA82FB82C701B6019F7738
:10238000DF91CF91FF90EF90DF90CF90BF90AF9013
:102390009F908F9008958F929F92AF92BF92CF920D
:1023A000DF92EF92FF9260914C0270914D0280910A
:1023B0004E0290914F02611571058105910521F43E
:1023C00064E279ED8BE597E02DE133EF41E050E0F9
:1023D0000E94231249015A019B01AC01A7EAB1E412
:1023E0000E9442126B017C01ACEEB4EFA501940196
:1023F0000E945012C60ED71EE81EF91EF7FE06C038
:1024000081E0C81AD108E10880E8F80AC0924C02BD
:10241000D0924D02E0924E02F0924F02C701B601F7
:102420009F77FF90EF90DF90CF90BF90AF909F90FD
:102430008F90089560934C0270934D0280934E02EA
:1024400090934F020895052E97FB1EF400940E946E
:102450003A1257FD07D00E94551207FC03D04EF4E4
:102460000C943A1250954095309521953F4F4F4F1F
:102470005F4F089590958095709561957F4F8F4F30
:102480009F4F08950E947712A59F900DB49F900DC5
:10249000A49F800D911D11240895B7FF0C94421242
:1024A0000E944212821B930B0895A1E21A2EAA1BCE
:1024B000BB1BFD010DC0AA1FBB1FEE1FFF1FA217F4
:1024C000B307E407F50720F0A21BB30BE40BF50BF1
:1024D000661F771F881F991F1A9469F7609570957A
:1024E000809590959B01AC01BD01CF010895A29FFD
:1024F000B001B39FC001A39F700D811D1124911DD8
:10250000B29F700D811D1124911D089597FB072E18
:1025100016F4009407D077FD09D00E94A21207FCA0
:1025200005D03EF4909581959F4F089570956195E3
:102530007F4F0895EE0FFF1F881F8BBF0790F69106
:10254000E02D1994AA1BBB1B51E107C0AA1FBB1F9A
:10255000A617B70710F0A61BB70B881F991F5A952F
:10256000A9F780959095BC01CD010895F894FFCF0F
:102570000100FCFFFFFFFFFF000000000100000062
:10258000020000000300000004000000050000003D
:10259000060000000700000008000000090000001D
:1025A0000A0000000B0000000C0000000D000000FD
:1025B0000E0000000F000000C80001000100000034
:1025C0000000000000000000000001000100010008
:1025D00001000100010000000000000000000000F8
:1025E00000000000000000000000010001000100E8
:1025F00001000100010000000000000000000000D8
:1026000000000100000000000000010000000100C7
:1026100001000100010000000000010001000000B5
:1026200000000100010001000000010000000100A5
:102630000100000001000000010000000000000097
:102640000000000000000000000001000000000089
:102650000100000001000000010000000000000077
:102660000000000001000000000001000000000068
:102670000000000001000000000001000100000057
:102680000000000000000000000001000100010047
:102690000100010001000000000000000000000037
:1026A0000000000000000000000001000100010027
:1026B0000100010001000000000000000000000017
:1026C000000000000000000000000000000000000A
:1026D00000000000000000000000000000000000FA
:1026E00000000000000000000000000000000000EA
:1026F00000000000000000000000000000000000DA
:1027000000000000000000000000000000000000C9
:1027100000000000000000000000000000000000B9
:1027200000000000000000000000000000000000A9
:102730000000000000000000000000000000000099
:102740000000000000000000000001010100000086
:102750000101000000010000000000000000000076
:102760000000010000000000010101000101010161
:102770000001010100010101000000000100000151
:102780000100000101010000010000010001010140
:102790000000000101000000000000000100010035
:1027A0000000000000000000000000000000000029
:1027B0000000000000000000000000000000000019
:1027C0000101010000010000010001000001000101
:1027D00001000000000000000000000000010000F7
:1027E00000000000000100010000010000000100E5
:1027F00000000100000001000001000001000100D4
:1028000000010001000001000100000100010000C2
:1028100001000000000001010000010000000000B4
:1028200000000000000000000000000000000000A8
:102830000000000000000000000000010000010096
:102840000100000100010000010000010000000083
:102850000000000000000000010000000000000077
:102860000100010000010000000100000001000063
:102870000100000001000001000100000100010052
:102880000001000100000100010000010000000043
:102890000100010000000100000000000000000035
:1028A0000000000000000000000000000000000028
:1028B0000000000000000100000100010101000013
:1028C00001010101000001000101010001000100FE
:1028D00000000001000101010001010100010000F0
:1028E00001000101010001010100010000000000E0
:1028F00001010100010101010001000001000101CD
:1029000001000001000001000000010000010000C2
:1029100000000100000000000000000000000000B6
:1029200000000000000000000000000000000000A7
:102930000001010100000100010000010000010090
:102940000001000000000001000100000000010083
:102950000000000001000000010000010001000073
:102960000000000100000100000000000001000163
:102970000001000001000001000100000000010052
:102980000001000000010101010000000100000041
:102990000000000000000000000000000000000037
:1029A0000000000000000000000000000100000026
:1029B0000001000001000100000100000100000012
:1029C0000000010001000100000100000000000102
:1029D00000000001000001000100000000000100F3
:1029E00000000100000100000100010000010001E1
:1029F00000000100010000000001000001000000D3
:102A000000000001000001000000000000000000C4
:102A100000000000000000000000000000000000B6
:102A200000000000000000010000000001000001A3
:102A30000001000001000001000000000000010092
:102A4000000001010000000000000101010001017F
:102A5000010100010101000101010000000001006D
:102A6000000101000001000001000001010000015F
:102A70000000000000010100000000000000010053
:102A80000100000000000000000000000000000045
:102A90000000000000000000000000000000000036
:102AA0000000000000000000000000000000000026
:102AB0000000000000000000000000000000000016
:102AC0000000000001000100010001000000000002
:102AD00000000000000000000000000000000000F6
:102AE00000000000010000000000010000000000E4
:102AF00000000000000000000000000000000000D6
:102B000000000000010000000000010000000000C3
:102B100000000000000000000000000000000000B5
:102B200000000000010000000000010000000000A3
:102B30000000000000000000000000000000000095
:102B40000000000001000000000001000000000083
:102B50000000000000000000000000000000000075
:102B60000000000001000000000001000000000063
:102B70000000000000000000000000000000000055
:102B80000000000001000100010001000000000041
:102B90000000000000000000000000000000000035
:102BA0000000000000000000000000000000000025
:102BB0000000000000000000000000000000000015
:102BC0000000000000000000010000000000000004
:102BD00000000000000000000000000000000000F5
:102BE00000000000000001000100000000000000E3
:102BF00000000000000000000000000000000000D5
:102C000000000000000000000100000000000000C3
:102C100000000000000000000000000000000000B4
:102C200000000000000000000100000000000000A3
:102C30000000000000000000000000000000000094
:102C40000000000000000000010000000000000083
:102C50000000000000000000000000000000000074
:102C60000000000000000000010000000000000063
:102C70000000000000000000000000000000000054
:102C80000000000000000000000000000000000044
:102C90000000000000000000000000000000000034
:102CA0000000000000000000000000000000000024
:102CB0000000000000000000000000000000000014
:102CC0000000000000000000000000000000000004
:102CD00000000000000000000000000000000000F4
:102CE00000000000010001000100000000000000E1
:102CF00000000000000000000000000000000000D4
:102D000000000000000000000100000000000000C2
:102D100000000000000000000000000000000000B3
:102D200000000000010001000100000000000000A0
:102D30000000000000000000000000000000000093
:102D40000000000001000000000000000000000082
:102D50000000000000000000000000000000000073
:102D60000000000001000100010000000000000060
:102D70000000000000000000000000000000000053
:102D80000000000000000000000000000000000043
:102D90000000000000000000000000000000000033
:102DA0000000000000000000000000000000000023
:102DB0000000000000000000000000000000000013
:102DC0000000000000000000000000000000000003
:102DD00000000000000000000000000000000000F3
:102DE00000000000010001000100000000000000E0
:102DF00000000000000000000000000000000000D3
:102E000000000000000000000100000000000000C1
:102E100000000000000000000000000000000000B2
:102E2000000000000100010001000000000000009F
:102E30000000000000000000000000000000000092
:102E40000000000000000000010000000000000081
:102E50000000000000000000000000000000000072
:102E6000000000000100010001000000000000005F
:102E70000000000000000000000000000000000052
:102E80000000000000000000000000000000000042
:102E90000000000000000000000000000000000032
:102EA0000000000000000000000000000000000022
:102EB0000000000000000000000000000000000012
:102EC0000000000000000000010000000000000001
:102ED00000000000000000000000000000000000F2
:102EE00000000000000001000100000000000000E0
:102EF00000000000000000000000000000000000D2
:102F000000000000010000000100000000000000BF
:102F100000000000000000000000000000000000B1
:102F2000000001000100010001000100000000009C
:102F30000000000000000000000000000000000091
:102F40000000000000000000010000000000000080
:102F50000000000000000000000000000000000071
:102F60000000000000000000010000000000000060
:102F70000000000000000000000000000000000051
:102F80000000000000000000010000000000000040
:102F90000000000000000000000000000000000031
:102FA0000000000000000000000000000000000021
:102FB0000000000000000000000000000000000011
:102FC0000000000000000000000000000000000001
:102FD00000000000000000000000000000000000F1
:102FE00000000000010001000100000000000000DE
:102FF00000000000000000000000000000000000D1
:1030000000000000010000000000000000000000BF
:1030100000000000000000000000000000000000B0
:10302000000000000100010001000000000000009D
:103030000000000000000000000000000000000090
:10304000000000000000000001000000000000007F
:103050000000000000000000000000000000000070
:10306000000000000100010001000000000000005D
:103070000000000000000000000000000000000050
:103080000000000000000000000000000000000040
:103090000000000000000000000000000000000030
:1030A0000000000000000000000000000000000020
:1030B0000000000000000000000000000000000010
:1030C00000000000010001000100000000000000FD
:1030D00000000000000000000000000000000000F0
:1030E00000000000010000000000000000000000DF
:1030F00000000000000000000000000000000000D0
:1031000000000000010000000000000000000000BE
:1031100000000000000000000000000000000000AF
:10312000000000000100010001000000000000009C
:10313000000000000000000000000000000000008F
:10314000000000000100000001000000000000007D
:10315000000000000000000000000000000000006F
:10316000000000000100010001000000000000005C
:10317000000000000000000000000000000000004F
:10318000000000000000000000000000000000003F
:10319000000000000000000000000000000000002F
:1031A000000000000000000000000000000000001F
:1031B000000000000000000000000000000000000F
:1031C00000000000010001000100000000000000FC
:1031D00000000000000000000000000000000000EF
:1031E00000000000000000000100000000000000DE
:1031F00000000000000000000000000000000000CF
:1032000000000000000000000100000000000000BD
:1032100000000000000000000000000000000000AE
:10322000000000000000010001000100000000009B
:10323000000000000000000000000000000000008E
:10324000000000000000000001000000000000007D
:10325000000000000000000000000000000000006E
:10326000000000000000000001000000000000005D
:10327000000000000000000000000000000000004E
:10328000000000000000000000000000000000003E
:10329000000000000000000000000000000000002E
:1032A000000000000000000000000000000000001E
:1032B000000000000000000000000000000000000E
:1032C00000000000000000000000000000000000FE
:1032D00000000000000000000000000000000000EE
:1032E00000000000010001000100000000000000DB
:1032F00000000000000000000000000000000000CE
:1033000000000000010000000100000000000000BB
:1033100000000000000000000000000000000000AD
:10332000000000000100010001000000000000009A
:10333000000000000000000000000000000000008D
:10334000000000000100000001000000000000007B
:10335000000000000000000000000000000000006D
:10336000000000000100010001000000000000005A
:10337000000000000000000000000000000000004D
:10338000000000000000000000000000000000003D
:10339000000000000000000000000000000000002D
:1033A000000000000000000000000000000000001D
:1033B000000000000000000000000000000000000D
:1033C00000000000000000000000000000000000FD
:1033D00000000000000000000000000000000000ED
:1033E00000000000010001000100000000000000DA
:1033F00000000000000000000000000000000000CD
:1034000000000000010000000100000000000000BA
:1034100000000000000000000000000000000000AC
:103420000000000001000100010000000000000099
:10343000000000000000000000000000000000008C
:10344000000000000000000001000000000000007B
:10345000000000000000000000000000000000006C
:103460000000000001000100010000000000000059
:10347000000000000000000000000000000000004C
:10348000000000000000000000000000000000003C
:10349000000000000000000000000000000000002C
:1034A000000000000000000000000000000000001C
:1034B000000000000000000000000000000000000C
:1034C00000000000010000000000010001000100F8
:1034D00000000000000000000000000000000000EC
:1034E00000000100010000000000010000000100D8
:1034F00000000000000000000000000000000000CC
:1035000000000000010000000000010000000100B8
:1035100000000000000000000000000000000000AB
:103520000000000001000000000001000000010098
:10353000000000000000000000000000000000008B
:103540000000000001000000000001000000010078
:10355000000000000000000000000000000000006B
:103560000000000001000000000001000100010057
:10357000000000000000000000000000000000004B
:10358000000000000000000000000000000000003B
:103590000000000000000000000000008F03F9029E
:1035A0002603DC035703350349030D0A00746573D2
:1035B00074696E67310074657374696E67320020D8
:1035C00020007878787878005374617274696E6737
:1035D00020436F6E6669670052756E6E696E672074
:0835E000436F6E66696700008D
:020000040003F7
:10E000000D9489F10D94B2F10D94B2F10D94B2F129
:10E010000D94B2F10D94B2F10D94B2F10D94B2F1F0
:10E020000D94B2F10D94B2F10D94B2F10D94B2F1E0
:10E030000D94B2F10D94B2F10D94B2F10D94B2F1D0
:10E040000D94B2F10D94B2F10D94B2F10D94B2F1C0
:10E050000D94B2F10D94B2F10D94B2F10D94B2F1B0
:10E060000D94B2F10D94B2F10D94B2F10D94B2F1A0
:10E070000D94B2F10D94B2F10D94B2F10D94B2F190
:10E080000D94B2F10D94B2F10D94B2F10D94B2F180
:10E090000D94B2F10D94B2F10D94B2F10D94B2F170
:10E0A0000D94B2F10D94B2F10D94B2F10D94B2F160
:10E0B0000D94B2F10D94B2F10D94B2F10D94B2F150
:10E0C0000D94B2F10D94B2F10D94B2F10D94B2F140
:10E0D0000D94B2F10D94B2F10D94B2F10D94B2F130
:10E0E0000D94B2F141546D656761323536300041AF
:10E0F000726475696E6F206578706C6F72657220DE
:10E1000073746B3530305632206279204D4C530099
:10E11000426F6F746C6F616465723E004875683F52
:10E1200000436F6D70696C6564206F6E203D200048
:10E130004350552054797065202020203D20005FF9
:10E140005F4156525F415243485F5F3D2000415658
:10E1500052204C696243205665723D20004743437C
:10E160002056657273696F6E203D20004350552024
:10E1700049442020202020203D20004C6F7720663D
:10E18000757365202020203D20004869676820665F
:10E190007573652020203D200045787420667573D6
:10E1A00065202020203D20004C6F636B2066757336
:10E1B000652020203D20004D617220203720323024
:10E1C000313300312E362E3800342E332E350056A2
:10E1D00023202020414444522020206F7020636F70
:10E1E00064652020202020696E73747275637469E1
:10E1F0006F6E2061646472202020496E74657272B3
:10E20000757074006E6F20766563746F7200726A49
:10E210006D702020006A6D70200057686174207056
:10E220006F72743A00506F7274206E6F7420737541
:10E2300070706F72746564004D7573742062652030
:10E2400061206C6574746572002000577269747483
:10E25000696E672045450052656164696E672045B7
:10E26000450045452065727220636E743D00504F35
:10E27000525400303D5A65726F2061646472003FF1
:10E280003D43505520737461747300403D454550C3
:10E29000524F4D207465737400423D426C696E6B41
:10E2A000204C454400453D44756D70204545505215
:10E2B0004F4D00463D44756D7020464C415348001B
:10E2C000483D48656C70004C3D4C69737420492F83
:10E2D0004F20506F72747300513D51756974005234
:10E2E0003D44756D702052414D00563D73686F7707
:10E2F00020696E7465727275707420566563746FF0
:10E30000727300593D506F727420626C696E6B00BD
:10E310002A0011241FBECFEFD1E2DEBFCDBF01E046
:10E320000CBF12E0A0E0B2E0EEE1FDEF03E00BBFB6
:10E3300002C007900D92A030B107D9F712E0A0E01B
:10E34000B2E001C01D92AE30B107E1F70F9460F367
:10E350000D948DFE01E20EBF0FEF0DBF11241FBE05
:10E360000D9460F30D9400F020E030E040ED57E0B4
:10E3700005C0FA013197F1F72F5F3F4F2817390792
:10E38000C0F308959C01260F311DC901A0E0B0E043
:10E390002F5F3F4FABBFFC018791882361F08093D3
:10E3A000C6008091C00086FFFCCF8091C0008064D1
:10E3B0008093C000EACF08958DE08093C6008091DD
:10E3C000C00086FFFCCF8091C00080648093C000B5
:10E3D0008AE08093C6008091C00086FFFCCF8091C8
:10E3E000C00080648093C00008950F94C2F10F9420
:10E3F000DCF10895FC019081992359F09093C600B7
:10E400008091C00086FFFCCF8091C0008064809323
:10E41000C0003196992379F70895282F982F929567
:10E420009F70892F805D8A3308F0895F8093C600D2
:10E430008091C00086FFFCCF8091C00080648093F3
:10E44000C000822F8F70982F905D9A3308F0995FEB
:10E450009093C6008091C00086FFFCCF8091C000E1
:10E4600080648093C00008959C01FB01853691056E
:10E470001CF46330710594F0C90164E670E00F94F8
:10E480002EFE605D7F4F6093C6008091C00086FFC6
:10E49000FCCF8091C00080648093C0002B30310598
:10E4A00014F43297B4F0C90164E670E00F942EFEC4
:10E4B0006AE070E00F942EFE605D7F4F6093C600AF
:10E4C0008091C00086FFFCCF8091C0008064809363
:10E4D000C000C9016AE070E00F942EFEC0968093E0
:10E4E000C6008091C00086FFFCCF8091C000806490
:10E4F0008093C00008951F93182F8EE692EE60E07F
:10E500000F94C2F11093C6008091C00086FFFCCF2B
:10E510008091C00080648093C0000F94DCF11F9153
:10E5200008952F923F924F925F926F927F928F92B7
:10E530009F92AF92BF92CF92DF92EF92FF920F9392
:10E540001F93DF93CF93CDB7DEB762970FB6F894E2
:10E55000DEBF0FBECDBF382E622ECA01DB015C01CB
:10E560006D01772420E2222E2E010894411C511CBB
:10E570008BC081E0A81680E0B80681E0C80680E084
:10E58000D80628F0C601AA27BB270F940DF2BB2797
:10E59000AD2D9C2D8B2D0F940DF28A2D0F940DF225
:10E5A0002092C6008091C00086FFFCCF8091C00001
:10E5B00080648093C0009DE29093C6008091C0006B
:10E5C00086FFFCCF8091C00080648093C0002092C1
:10E5D000C6008091C00086FFFCCF8091C00080649F
:10E5E0008093C00019828601750188249924A1E0D6
:10E5F0003A1651F03A1620F0B2E03B1661F409C029
:10E600000BBFF701779007C0C7010F9477FE782EF4
:10E6100002C0F7017080872D0F940DF22092C60082
:10E620008091C00086FFFCCF8091C0008064809301
:10E63000C000872D8052F401EF70F0708F3520F408
:10E64000E40DF51D708204C0E40DF51D8EE280839B
:10E650000894E11CF11C011D111D0894811C911CE2
:10E6600090E18916910409F0C2CF80E190E0A0E02A
:10E67000B0E0A80EB91ECA1EDB1E198AC2010F9493
:10E68000FAF10F94DCF16A94662009F072CF629679
:10E690000FB6F894DEBF0FBECDBFCF91DF911F91B3
:10E6A0000F91FF90EF90DF90CF90BF90AF909F9031
:10E6B0008F907F906F905F904F903F902F90089534
:10E6C0002F923F924F925F926F927F928F929F9282
:10E6D000AF92BF92CF92DF92EF92FF920F931F9370
:10E6E000DF93CF93CDB7DEB7CD53D1400FB6F894BB
:10E6F000DEBF0FBECDBF01E20EBF0FEF0DBF94B75F
:10E70000F894A89514BE80916000886180936000A1
:10E7100010926000789493FF05C0E0910002F091A0
:10E7200001021995279A2F9A8091C00082608093E8
:10E73000C00080E18093C40088E18093C1000000A4
:10E74000EE24FF24870144E0A42EB12CCC24DD2448
:10E7500024C0C5010197F1F70894E11CF11C011DCB
:10E76000111D21E2E2162EE4F20620E0020720E06D
:10E77000120718F031E0C32ED12CC801B70127ECE5
:10E780003BE140E050E00F9441FE611571058105C9
:10E79000910519F485B1805885B98091C00087FD35
:10E7A00003C0C114D104A9F2A6014F5F5F4FC25E3E
:10E7B000DE4F59834883CE51D140C25EDE4F8881FF
:10E7C0009981CE51D140019711F00D9410FEC05D9A
:10E7D000DE4F19821882C053D14060E0C15DDE4F28
:10E7E0001882CF52D14088249924C35DDE4F19820C
:10E7F0001882CD52D140C05EDE4F188219821A8233
:10E800001B82C052D140CE5CDE4F188219821A8220
:10E810001B82C253D140EE24FF2487010BBFF701B6
:10E8200007911691C45CDE4F19830883CC53D14005
:10E830000D940BFEC25EDE4F28813981CE51D1404E
:10E840002130310509F52091C600C25EDE4F1982E4
:10E850001882CE51D14022C02F5F3F4F4F4F5F4FA4
:10E86000213082E138078AE7480780E0580780F0C6
:10E87000C45CDE4FE881F981CC53D140EF5FFF4F9C
:10E8800019F0EE27FF27099420E030E040E050E047
:10E890008091C00087FFE0CF2091C600C35DDE4FAE
:10E8A00048815981CD52D1404F5F5F4FC35DDE4FEC
:10E8B00059834883CD52D140213209F063C64A3092
:10E8C000510508F05FC60894811C911C53E0851621
:10E8D000910409F059C600E010E018C081E280936D
:10E8E000C6008091C00086FFFCCF8091C00080648C
:10E8F0008093C0002F5F3F4F2931310579F70F9486
:10E90000DCF10F5F1F4F0530110519F020E030E0FA
:10E91000E5CF10920A0210920B0210920C02109294
:10E920000D02109206021092070210920802109235
:10E930000902109202021092030210920402109235
:10E9400005028FEE90EE60E00F94F5F180E191EE1C
:10E9500060E00F94C2F18091C00087FFFCCF9091DE
:10E96000C600903608F09F759032B8F09093C600BC
:10E970008091C00086FFFCCF8091C00080648093AE
:10E98000C000A0E2A093C6008091C00086FFFCCF2B
:10E990008091C00080648093C000983409F4D7C18E
:10E9A0009934B8F4923409F459C1933458F490333B
:10E9B00019F1903308F4E3C59F33A1F1903409F0C5
:10E9C000DEC5BDC0953409F470C1963409F0D7C5D1
:10E9D00098C1923509F42BC2933538F49C3409F46C
:10E9E000F5C1913509F0CBC518C2963509F445C279
:10E9F000993509F0C4C567C483E792EE62E00F94CD
:10EA0000F5F110920602109207021092080210927D
:10EA1000090210920A0210920B0210920C0210923C
:10EA20000D0213C18FE792EE62E00F94F5F18FEEC5
:10EA300090EE60E00F94F5F181E291EE60E00F94CA
:10EA4000C2F187EB91EE60E00F94F5F180E391EE77
:10EA500060E00F94C2F184EE90EE60E00F94F5F167
:10EA60008FE391EE60E00F94C2F186E090E061E008
:10EA700070E00F9434F20F94DCF18DE591EE60E0DC
:10EA80000F94C2F189EC91EE60E00F94F5F18EE401
:10EA900091EE60E00F94C2F183EC91EE60E00F9490
:10EAA000F5F18CE691EE60E00F94C2F18EE10F94E7
:10EAB0000DF288E90F940DF281E00F940DF20F949E
:10EAC000DCF18BE791EE60E00F94C2F119E0E0E039
:10EAD000F0E010935700E4918E2F0F940DF20F94F5
:10EAE000DCF18AE891EE60E00F94C2F1E3E0F0E03F
:10EAF00010935700E4918E2F0F940DF20F94DCF1D8
:10EB000089E991EE60E00F94C2F1E2E0F0E0109349
:10EB10005700E4918E2F0F940DF20F94DCF188EAE8
:10EB200091EE60E00F94C2F1E1E0F0E01093570045
:10EB30001491812F0F940DF20F94DCF107CF8BE825
:10EB400092EE62E00F94F5F18BE492EE60E00F94A8
:10EB5000F5F10F94DCF100E010E019C0C8016F2D51
:10EB60000F947FFEFF2031F489E492EE60E00F9471
:10EB7000C2F10BC0F092C6008091C00086FFFCCFAE
:10EB80008091C00080648093C0000F5F1F4FC80158
:10EB900081519F41A0E0B0E0ABBFFC01F790BAE229
:10EBA000FB1621F0E2E000301E07C1F60F94DCF105
:10EBB0000F94DCF187E592EE60E00F94F5F10F948D
:10EBC000DCF1CC24DD2400E010E01EC0C8010F946D
:10EBD00077FEF82E882331F489E492EE60E00F94FA
:10EBE000C2F10BC08093C6008091C00086FFFCCFAD
:10EBF0008091C00080648093C000FE1419F00894D6
:10EC0000C11CD11C0F5F1F4FC80181519F41A0E063
:10EC1000B0E0ABBFFC01E790FAE2EF1621F022E092
:10EC20000030120799F60F94DCF10F94DCF182E6C4
:10EC300092EE60E00F94C2F1C60161E070E00F94C3
:10EC400034F20F94DCF10F94DCF110920202109276
:10EC50000302109204021092050278CE89E992EE26
:10EC600062E00F94F5F1279A2F9A16C02F9880E052
:10EC700090E0E0EDF7E03197F1F7019684369105E9
:10EC8000C1F72F9A80E090E0E0EDF7E03197F1F7DF
:10EC9000019684369105C1F78091C00087FFE6CFC9
:10ECA0008091C00087FFFCCF64C485EA92EE62E0E9
:10ECB0000F94F5F140910202509103026091040219
:10ECC0007091050281E020E10F9491F2809102029F
:10ECD00090910302A0910402B091050280509F4FD1
:10ECE000AF4FBF4F8093020290930302A0930402A0
:10ECF000B093050280509041A040B04008F426CE69
:10ED0000A4CF83EB92EE62E00F94F5F140910602FE
:10ED100050910702609108027091090280E020E1A1
:10ED20000F9491F28091060290910702A09108023F
:10ED3000B091090280509F4FAF4FBF4F80930602A2
:10ED400090930702A0930802B0930902FFCD80ECD4
:10ED500092EE62E00F94F5F183E792EE60E00F949B
:10ED6000F5F18FE792EE60E00F94F5F18BE892EE0B
:10ED700060E00F94F5F189E992EE60E00F94F5F10F
:10ED800085EA92EE60E00F94F5F183EB92EE60E09D
:10ED90000F94F5F180EC92EE60E00F94F5F187ECC2
:10EDA00092EE60E00F94F5F188ED92EE60E00F9442
:10EDB000F5F18FED92EE60E00F94F5F18AEE92EEB0
:10EDC00060E00F94F5F183E093EEBDCD87EC92EE19
:10EDD00062E00F94F5F181E40F947BF282E40F94EA
:10EDE0007BF283E40F947BF284E40F947BF285E45E
:10EDF0000F947BF286E40F947BF287E40F947BF20E
:10EE000088E40F947BF28AE40F947BF28BE40F94F6
:10EE10007BF28CE40F947BF299CD88ED92EE62E068
:10EE20000F94F5F1772473948824992409C48FED05
:10EE300092EE62E00F94F5F140910A0250910B02BC
:10EE400060910C0270910D0282E020E10F9491F22A
:10EE500080910A0290910B02A0910C02B0910D02D8
:10EE600080509F4FAF4FBF4F80930A0290930B0289
:10EE7000A0930C02B0930D0269CD8AEE92EE62E08F
:10EE80000F94F5F184EE90EE60E00F94F5F18FECC5
:10EE900091EE60E00F94F5F1662477244301CC5D98
:10EEA000DE4F19821882C452D140D401C301B695F5
:10EEB000A79597958795CA5DDE4F88839983AA8326
:10EEC000BB83C652D140CC5DDE4FA881B981C4520C
:10EED000D1401196CC5DDE4FB983A883C452D14096
:10EEE000CD0162E070E00F9434F2B0E2B093C6005E
:10EEF0008091C00086FFFCCF8091C0008064809329
:10EF0000C000EDE2E093C6008091C00086FFFCCF18
:10EF10008091C00080648093C000F0E2F093C6004E
:10EF20008091C00086FFFCCF8091C00080648093F8
:10EF3000C000CA5DDE4FE880F9800A811B81C6529D
:10EF4000D140BB27A12F902F8F2D0F940DF2CA5DBA
:10EF5000DE4F8881C652D1400F940DF2B0E2FB2EF5
:10EF6000F092C6008091C00086FFFCCF8091C00067
:10EF700080648093C0000DE30093C6008091C000C0
:10EF800086FFFCCF8091C00080648093C00010E2B7
:10EF90001093C6008091C00086FFFCCF8091C00016
:10EFA00080648093C0008BBEF3012791C65DDE4F65
:10EFB0002883CA52D140A22EBB24CC24DD2408943D
:10EFC000611C711C811C911C8BBEF3018791282E42
:10EFD0003324442455240894611C711C811C911C09
:10EFE0008BBEF3013791C55DDE4F3883CB52D140E4
:10EFF0000894611C711C811C911C8BBEF30147910C
:10F00000C45DDE4F4883CC52D140ADEFEA2EAFEF66
:10F01000FA2EAFEF0A2FAFEF1A2F6E0C7F1C801E57
:10F02000911E142D032DF22CEE24EA0CFB1C0C1D5A
:10F030001D1D0F940DF220E22093C6008091C000A8
:10F0400086FFFCCF8091C00080648093C000C65DC5
:10F05000DE4F8881CA52D1400F940DF230E23093D6
:10F06000C6008091C00086FFFCCF8091C000806404
:10F070008093C000C45DDE4F8881CC52D1400F9494
:10F080000DF240E24093C6008091C00086FFFCCFA5
:10F090008091C00080648093C000C55DDE4F888190
:10F0A000CB52D1400F940DF250E25093C6008091A4
:10F0B000C00086FFFCCF8091C00080648093C000B8
:10F0C0008FEFE8168FEFF80680E0080780E018075A
:10F0D00031F484E092EE60E00F94C2F1DFC0D80119
:10F0E000C7018070907CA070B0708050904CA040A0
:10F0F000B040D1F52FEF3FE340E050E0E222F322B1
:10F1000004231523CA5DDE4FA880B980CA80DB8046
:10F11000C652D140AE0CBF1CC01ED11EAA0CBB1CD7
:10F12000CC1CDD1C8EE092EE60E00F94C2F1BB2798
:10F13000A12F902F8F2D0F940DF28E2D0F940DF285
:10F1400030E23093C6008091C00086FFFCCF8091F2
:10F15000C00080648093C0004EE34093C60080915D
:10F16000C00086FFFCCF87C08EE09EEFA0E0B0E03D
:10F17000E822F9220A231B239CE0E91694E9F90608
:10F1800090E0090790E0190709F088C0C45DDE4FE0
:10F19000A881CC52D140EA2EFF2400E010E0102FCD
:10F1A0000F2DFE2CEE24C55DDE4FB881CB52D14031
:10F1B000EB0EF11C011D111DD601C501817090706F
:10F1C000A070B070DC0199278827E80EF91E0A1F8D
:10F1D0001B1F20EF30E040E050E0A222B322C42207
:10F1E000D52241E1AA0CBB1CCC1CDD1C4A95D1F7F1
:10F1F000EA0CFB1C0C1D1D1D81E090E0A0E0B0E0BE
:10F20000282239224A225B2235E1220C331C441C7D
:10F21000551C3A95D1F7E20CF31C041D151D57013E
:10F220006801AA0CBB1CCC1CDD1C85E192EE60E0E1
:10F230000F94C2F1C801AA27BB270F940DF2BB2778
:10F24000A12F902F8F2D0F940DF28E2D0F940DF274
:10F2500090E29093C6008091C00086FFFCCF809121
:10F26000C00080648093C000AEE3A093C60080918C
:10F27000C00086FFFCCF8091C00080648093C000F6
:10F28000C601AA27BB270F940DF2BB27AD2D9C2DDD
:10F290008B2D0F940DF28A2D0F940DF20F94DCF14B
:10F2A000CC5DDE4FE881F981C452D140F99709F471
:10F2B0004DCBF4E0EF2EF12C012D112D6E0C7F1CA7
:10F2C000801E911EF2CD83E093EE62E00F94F5F183
:10F2D0008AE192EE60E00F94C2F18091C00087FF56
:10F2E000FCCF1091C6001F751093C6008091C0001E
:10F2F00086FFFCCF8091C00080648093C0000F9493
:10F30000DCF1812F81548A3108F036C1163409F4BA
:10F3100095C0173490F4133409F44EC0143430F40B
:10F320001134F1F0123409F01DC130C0143409F465
:10F3300059C0153409F016C16BC01A3409F4C4C0A1
:10F340001B3438F4173409F48FC0183409F00AC19B
:10F35000A1C01B3409F4D2C01C3409F003C1E8C0B9
:10F360008FEF81B90DC082B1809582B980E090E0C5
:10F37000E0EDF7E03197F1F70196883C9105C1F790
:10F380008091C00087FFEFCF12B8EFC08FEF84B934
:10F390000DC085B1809585B980E090E0E0EDF7E0A3
:10F3A0003197F1F70196883C9105C1F78091C00033
:10F3B00087FFEFCF15B8D9C08FEF87B90DC088B1DF
:10F3C000809588B980E090E0E0EDF7E03197F1F7C3
:10F3D0000196883C9105C1F78091C00087FFEFCF6F
:10F3E00018B8C3C08FEF8AB90DC08BB180958BB9A7
:10F3F00080E090E0E0EDF7E03197F1F70196883C8E
:10F400009105C1F78091C00087FFEFCF1BB8ADC059
:10F410008FEF8DB90DC08EB180958EB980E090E0F0
:10F42000E0EDF7E03197F1F70196883C9105C1F7DF
:10F430008091C00087FFEFCF1EB897C08FEF80BBD1
:10F440000DC081B3809581BB80E090E0E0EDF7E0F6
:10F450003197F1F70196883C9105C1F78091C00082
:10F4600087FFEFCF11BA81C08FEF83BB0DC084B38C
:10F47000809584BB80E090E0E0EDF7E03197F1F714
:10F480000196883C9105C1F78091C00087FFEFCFBE
:10F4900014BA6BC08FEF809301010FC080910201FD
:10F4A00080958093020180E090E0E0EDF7E03197F5
:10F4B000F1F70196883C9105C1F78091C00087FF64
:10F4C000EDCF1092020151C08FEF809304010FC065
:10F4D0008091050180958093050180E090E0E0ED4A
:10F4E000F7E03197F1F70196883C9105C1F78091DB
:10F4F000C00087FFEDCF1092050137C08FEF8093DA
:10F5000007010FC08091080180958093080180E079
:10F5100090E0E0EDF7E03197F1F70196883C910536
:10F52000C1F78091C00087FFEDCF109208011DC088
:10F530008FEF80930A010FC080910B01809580931B
:10F540000B0180E090E0E0EDF7E03197F1F70196F4
:10F55000883C9105C1F78091C00087FFEDCF1092E4
:10F560000B0103C085E292EEEEC98091C00087FFD7
:10F57000FCCF8091C600EAC988E392EEE4C98CE131
:10F5800091EEE1C988249924933011F1943028F444
:10F59000913089F09230B8F408C0953061F195301F
:10F5A000F0F0963009F048C043C02B3109F042C951
:10F5B00091E06BE13FC96227C15DDE4F2883CF52E6
:10F5C000D14092E037C9B22FA0E0622793E032C960
:10F5D000822F90E0A82BB92B622794E02BC92E3004
:10F5E00009F039C3622795E0C05DDE4F19821882A9
:10F5F000C053D1401FC9E1E0F0E0EC0FFD1FC05D3A
:10F60000DE4F08811981C053D140E00FF11F2083E4
:10F610000F5F1F4FC05DDE4F19830883C053D14079
:10F6200062270A171B0709F005C9D80196E002C92D
:10F63000261709F010C303C0973009F0FBC87724E0
:10F640009981933109F412C19431C8F4963009F4C8
:10F65000D8C0973050F4923009F406C1933009F4C1
:10F660006DC0913009F059C253C0913109F477C08F
:10F67000923108F0BBC0903109F04FC2F5C098310B
:10F6800009F487C0993150F4953109F4EFC09531F0
:10F6900008F4C6C1963109F040C2C2C19A3109F4DA
:10F6A0006CC09A3108F491C09B3109F45BC09D3164
:10F6B00009F033C29D81903359F48F81882311F46E
:10F6C0009EE11CC0813011F091E018C098E916C08D
:10F6D000892F807591F0903539F4E0E0F0E089E011
:10F6E0008093570094910AC0983539F4E3E0F0E034
:10F6F00089E080935700949101C090E01A821B82A8
:10F700008D818C831D829E831F8227E030E009C299
:10F710001A8288E08B8381E48C8386E58D8382E581
:10F720008E8389E48F8383E5888780E589878FE5E9
:10F730008A8782E38B872BE030E0F3C18A818139AD
:10F7400041F0823941F0803911F48FE005C080E04A
:10F7500003C082E001C08AE01A828B8344C0772410
:10F76000739482C08D81882311F48EE12CC0813086
:10F7700011F081E028C088E926C01A82E1E0F0E0BB
:10F7800089E08093570084918B831C8224E030E0D1
:10F79000C8C18B81803589F48C81883039F4E2E0EE
:10F7A000F0E089E08093570084910DC0E0E0F0E044
:10F7B00089E080935700849106C0E3E0F0E089E09F
:10F7C0008093570084911A82DFCF8D81836C99E0FA
:10F7D000E1E0F0E0082E90935700E89507B600FCB2
:10F7E000FDCF1A821B8223E030E09BC180EC8A832C
:10F7F000CE5CDE4F188219821A821B82C253D1401E
:10F800008EC18A8190E0A0E0B0E0582F44273327D2
:10F8100022278B8190E0A0E0B0E0DC0199278827C7
:10F82000282B392B4A2B5B2B8D8190E0A0E0B0E098
:10F83000282B392B4A2B5B2B8C8190E0A0E0B0E089
:10F84000BA2FA92F982F8827282B392B4A2B5B2BCF
:10F85000220F331F441F551FC05EDE4F288339839C
:10F860004A835B83C052D1401A8259C13A81C95C34
:10F87000DE4F3883C753D140CA5CDE4F1882C6536F
:10F88000D1408B81C82EDD24CA5CDE4F488159816E
:10F89000C653D140C42AD52A933109F082C0CE5C28
:10F8A000DE4F88819981AA81BB81C253D1408050AB
:10F8B000904CA340B04030F583E0CE5CDE4FE88052
:10F8C000F9800A811B81C253D140F70100935B008C
:10F8D00080935700E89507B600FCFDCFCE5CDE4F65
:10F8E000088119812A813B81C253D14000501F4FAA
:10F8F0002F4F3F4FCE5CDE4F088319832A833B8313
:10F90000C253D140C05EDE4F488159816A817B81FC
:10F91000C052D140DE011B9631E08C9111962C91A2
:10F9200011971296C75CDE4F2883C953D140C85C3B
:10F93000DE4F1882C853D14090E0C85CDE4FE881AA
:10F94000F981C853D1408E2B9F2B0C01FA01609393
:10F950005B0030935700E89511244E5F5F4F6F4F67
:10F960007F4F0EEFE02E0FEFF02ECE0CDF1CC114F8
:10F97000D10499F685E0C05EDE4F088119812A81A5
:10F980003B81C052D140F80120935B008093570027
:10F99000E89507B600FCFDCF81E180935700E8951C
:10F9A00035C0C05EDE4F88819981AA81BB81C0527B
:10F9B000D140B695A795979587957C018601ABE0D8
:10F9C000AA2EB12CAC0EBD1E0BC0D5016D915D01F0
:10F9D000C7010F947FFE0894E11CF11C01501040F8
:10F9E0000115110591F7A60160E070E0440F551F65
:10F9F000661F771FC05EDE4FE880F9800A811B8199
:10FA0000C052D1404E0D5F1D601F711F1A82C05E33
:10FA1000DE4F488359836A837B83C052D1407FC0C5
:10FA2000FA80C55CDE4FF882CB53D140C65CDE4F16
:10FA30001882CA53D1408B81C82EDD24C65CDE4FAC
:10FA400008811981CA53D140C02AD12A1A828981DA
:10FA5000BE016D5F7F4F843121F59601C05EDE4FA0
:10FA6000E880F9800A811B81C052D1400BBFF701A9
:10FA700087919691DB018C9311969C936E5F7F4FDB
:10FA8000D801C7010296A11DB11DC05EDE4F88835B
:10FA90009983AA83BB83C052D14022503040F1F6F3
:10FAA00036C0C05EDE4F288139814A815B81C052F9
:10FAB000D1400894C108D108760100E010E0089414
:10FAC000C11CD11C0894E11CF11C011D111DE20E8A
:10FAD000F31E041F151F21BDBB27A52F942F832FB5
:10FAE00082BD2F5F3F4F4F4F5F4FF89A80B5DB01CC
:10FAF0008D93BD012E153F054007510761F7C05E8C
:10FB0000DE4F288339834A835B83C052D1409601FC
:10FB10002D5F3F4FFB01108204C080EC8A8322E0FE
:10FB200030E08BE18093C6008091C00086FFFCCF5F
:10FB30008091C00080648093C000C15DDE4FF88179
:10FB4000CF52D140F093C6008091C00086FFFCCF19
:10FB50008091C00080648093C000432F3093C60022
:10FB60008091C00086FFFCCF8091C00080648093AC
:10FB7000C000922F2093C6008091C00086FFFCCF6A
:10FB80008091C00080648093C0008EE08093C600A6
:10FB90008091C00086FFFCCF8091C000806480937C
:10FBA000C00065E1C15DDE4FE880CF52D1406E25D7
:10FBB00069276427FE01319610C090819093C6009A
:10FBC0008091C00086FFFCCF31968091C000806498
:10FBD0008093C0006927215030402115310569F715
:10FBE0006093C6008091C00086FFFCCF8091C0006A
:10FBF00080648093C00085B1805885B9772081F4F6
:10FC0000C15DDE4F0881CF52D1400F5FC15DDE4F35
:10FC10000883CF52D14090E0A0E0B0E00D941AF4F8
:10FC200027982F9880E090E020ED37E0F901319798
:10FC3000F1F7019684369105C9F700008091C00064
:10FC40008D7F8093C00081E180935700E895EE2777
:10FC5000FF270994FFCF90E00D941AF497FB092E2B
:10FC600007260AD077FD04D02ED006D000201AF443
:10FC7000709561957F4F0895F6F7909581959F4F08
:10FC80000895A1E21A2EAA1BBB1BFD010DC0AA1FDD
:10FC9000BB1FEE1FFF1FA217B307E407F50720F0F5
:10FCA000A21BB30BE40BF50B661F771F881F991F70
:10FCB0001A9469F760957095809590959B01AC01B9
:10FCC000BD01CF010895AA1BBB1B51E107C0AA1FAC
:10FCD000BB1FA617B70710F0A61BB70B881F991FED
:10FCE0005A95A9F780959095BC01CD010895F99991
:10FCF000FECF92BD81BDF89A992780B50895262F31
:10FD0000F999FECF1FBA92BD81BD20BD0FB6F89400
:0EFD1000FA9AF99A0FBE01960895F894FFCF63
:00000001FF
