:100000000C9435010C9466010C9466010C94660105
:100010000C9466010C9466010C9466010C946601C4
:100020000C9466010C9466010C9466010C946601B4
:100030000C9466010C9466010C9466010C946601A4
:100040000C9466010C9466010C9466010C94660194
:100050000C9466010C9466010C9466010C94240ABD
:100060000C9466010C94980A0C946E0A0C94660128
:100070000C9466010C9466010C9466010C94660164
:100080000C9466010C9466010C9466010C94660154
:100090000C9466010C9466010C9466010C94660144
:1000A0000C9466010C9466010C9466010C94660134
:1000B0000C9466010C9466010C9466010C94660124
:1000C0000C9466010C9466010C9466010C94660114
:1000D0000C9466010C9466010C9466010C94660104
:1000E0000C9466010C9426030C9457030C94C301E2
:1000F0000C94C9010C9449030C94EE010C94CE0AA3
:100100000C94AE010C94BC010C94CD010C94DC0356
:100110000C94EF010C94E1010C94E9010C94E501BD
:100120000C94D3010C94F3010C9435030C94D70177
:100130000C94F9020C94B4010C94DB010C94B801FA
:100140000C94C0010C948F030000210024002700B0
:100150002A002D00300033000101000004010701D6
:100160000A0100002200250028002B002E0031008B
:10017000340002010000050108010B01000020000D
:100180002300260029002C002F003200000100006F
:10019000030106010901050505050705080808080A
:1001A000020202020A0A080804040404010101010F
:1001B000010101010303030303030303040707070A
:1001C0000C0C0C0C0C0C0C0C0202020206060606AF
:1001D000060606060B0B0B0B0B0B0B0B010210207C
:1001E000200808102040102040800201020108046D
:1001F0000201010204081020408080402010080401
:100200000201800402018040201008040201080459
:10021000020101020408102040800102040810209D
:10022000408000000A0B02090C0D0E0807030401B0
:1002300000000000000000000000000000000000BE
:10024000000000000000000000000000000012118B
:10025000100000000000000000000000000000008E
:100260000000000000000000CE0A11241FBECFEFE6
:10027000D1E2DEBFCDBF00E00CBF12E1A0E0B2E0F2
:10028000E2E7FBE200E00BBF02C007900D92AE3543
:10029000B107D9F724E1AEE5B2E101C01D92AE315C
:1002A000B207E1F711E0C5E3D1E000E006C0219715
:1002B0000109802FFE010E949B15C433D10780E005
:1002C0000807A9F70E94820B0C94B7150C94000044
:1002D000E9E2F3E1A089B18982E08C93A485B58538
:1002E0001C92A685B7858FEC8C93108EA489B58956
:1002F00086E08C93A289B3898C9180618C93A289CA
:10030000B3898C9188608C93A289B3898C91806821
:100310008C930288F389E02D80818F7D80830895FE
:100320008150823108F05AC0E82FF0E08827E45667
:10033000FE4F8F4F0C949B15BC01C001AE01B40160
:10034000B801EE01C301C901CD01D301D701DB0121
:10035000E101E501EE01E901EF01F3018091800087
:100360008F77809380000895809180008F7DF9CFF2
:1003700080918000877FF5CF84B58F7784BD089505
:1003800084B58F7DFBCF8091B0008F778093B000D4
:1003900008958091B0008F7DF9CF809190008F7784
:1003A000809390000895809190008F7DF9CF809187
:1003B0009000877FF5CF8091A0008F778093A00079
:1003C00008958091A0008F7DF9CF8091A000877F54
:1003D000F5CF809120018F7780932001089580913F
:1003E00020018F7DF9CF80912001877FF5CFCF93BA
:1003F000DF93282F30E0F901EE5DFD4F8491F90184
:10040000E452FE4FD491F901EA56FE4FC491CC2339
:10041000A1F081110E949001EC2FF0E0EE0FFF1F80
:10042000E458FE4FA591B491EC91ED2381E090E06A
:1004300009F480E0DF91CF91089580E090E0FACF59
:100440001F93CF93DF93282F30E0F901EE5DFD4F2E
:100450008491F901E452FE4FD491F901EA56FE4F1E
:10046000C491CC23A9F0162F81110E949001EC2F8A
:10047000F0E0EE0FFF1FEE59FE4FA591B4918FB73C
:10048000F894EC91111108C0D095DE23DC938FBF56
:10049000DF91CF911F910895DE2BF8CFCF93DF939B
:1004A00090E0FC01E452FE4F24918A569E4FFC01DD
:1004B00084918823D1F090E0880F991FFC01E85BBC
:1004C000FE4FA591B491FC01EE59FE4FC591D49118
:1004D00061110EC09FB7F8948C91E22FE0958E23A6
:1004E0008C932881E223E8839FBFDF91CF91089509
:1004F0008FB7F894EC91E22BEC938FBFF6CF9091ED
:100500007B00977F90937B008653806480937C0070
:1005100080917A00806480937A0080917A0086FDD1
:10052000FCCF809178009091790008953FB7F894BE
:100530008091251390912613A0912713B091281331
:1005400026B5A89B05C02F3F19F00196A11DB11D2E
:100550003FBFBA2FA92F982F8827BC01CD01620F6A
:10056000711D811D911D42E0660F771F881F991F25
:100570004A95D1F708958F929F92AF92BF92CF92F2
:10058000DF92EF92FF924B015C010E9496026B0199
:100590007C010E9496026C197D098E099F09683EB4
:1005A000734081059105A8F321E0821A9108A10802
:1005B000B10888EEC80E83E0D81EE11CF11C81143E
:1005C0009104A104B10429F7FF90EF90DF90CF9040
:1005D000BF90AF909F908F9008952FB7F89460913F
:1005E00021137091221380912313909124132FBF14
:1005F0000895AF92BF92CF92DF92EF92FF920F9346
:100600001F93CF93DF936C017B018B01040F151FA8
:10061000EB015E01AE18BF08C017D10759F0699110
:10062000D601ED91FC910190F081E02DC601199564
:10063000892B79F7C501DF91CF911F910F91FF9021
:10064000EF90DF90CF90BF90AF900895FC01538D55
:10065000448D252F30E0842F90E0821B930B54179C
:1006600010F0CF96089501970895FC01918D828D29
:10067000981761F0A28DAE0FBF2FB11D5D968C91C2
:10068000928D9F5F9F73928F90E008958FEF9FEF01
:100690000895FC01918D828D981731F0828DE80FBD
:1006A000F11D858D90E008958FEF9FEF0895FC0177
:1006B000918D228D892F90E0805C9F4F821B910944
:1006C0008F739927089589E293E10E94570321E0EF
:1006D000892B09F420E0822F0895FC01A48DA80F36
:1006E000B92FB11DA35ABF4F2C91848D90E0019674
:1006F0008F739927848FA689B7892C93A089B18994
:100700008C91837080648C93938D848D981306C034
:100710000288F389E02D80818F7D80830895EF9298
:10072000FF920F931F93CF93DF93EC0181E0888FAB
:100730009B8D8C8D98131AC0E889F989808185FF7B
:1007400015C09FB7F894EE89FF896083E889F9891D
:1007500080818370806480839FBF81E090E0DF911F
:10076000CF911F910F91FF90EF900895F62E0B8D72
:1007700010E00F5F1F4F0F731127E02E8C8D8E112D
:100780000CC00FB607FCFACFE889F989808185FF94
:10079000F5CFCE010E946D03F1CFEB8DEC0FFD2F55
:1007A000F11DE35AFF4FF0829FB7F8940B8FEA894F
:1007B000FB8980818062CFCFCF93DF93EC01888D5E
:1007C0008823B9F0AA89BB89E889F9898C9185FDCC
:1007D00003C0808186FD0DC00FB607FCF7CF8C915A
:1007E00085FFF2CF808185FFEDCFCE010E946D03A2
:1007F000E9CFDF91CF91089580E090E0892B29F037
:100800000E94630381110E94000080E090E0892B28
:1008100049F080E090E0892B29F00E9400008111CE
:100820000E94000080E090E0892B49F080E090E099
:10083000892B29F00E94000081110E94000080E0B5
:1008400090E0892B49F080E090E0892B29F00E940C
:10085000000081110C9400000895CF93DF93209144
:10086000FC123091FD12C091FE12D091FF12F901DD
:1008700084E0EE0FFF1F8A95E1F7E658FD4EEC0F7E
:10088000FD1F1082E0E1F0E0CE01BF010E9487155C
:1008900044E0220F331F4A95E1F726573D4ED90118
:1008A000A80FB91F1C92CE010196BF010E948715A7
:1008B000D901A80FB91F1C92CE010296BF010E9458
:1008C0008715280F391FF9011082DF91CF91089504
:1008D000CF93DF93C82FDEE0D60F60E08D2F0E940C
:1008E0002002CA5E61E08C2F0E94200261E070E06D
:1008F00080E090E00E94BB0261E08D2F0E94200208
:1009000060E08C2FDF91CF910C9420028AE792E176
:1009100030E020E0FC01E20FF31F10822F5F3F4F19
:1009200020313105B9F7409622E18A3F920781F7DD
:100930000895CF92DF92EF92FF920F931F93CF9380
:10094000DF931F921F92CDB7DEB769834A83880F6A
:10095000991F00911C1410911D14000F111FE6EC3B
:10096000F3E19F01265C33412017310714F4119203
:10097000F8CF2981FC01EA53FC4E21838A818083D0
:1009800060E080911A140E9420021016110604F5EE
:1009900001501109F801EA53FC4EE080D090181480
:1009A000C090161488E0F82E6E2D661F6627661F0D
:1009B0008C2D0E942002EE0C61E08D2D0E94200201
:1009C00060E08D2D0E942002FA94F110EDCFDDCF72
:1009D00061E080911A140F900F90DF91CF911F91D9
:1009E0000F91FF90EF90DF90CF900C942002EF9248
:1009F000FF920F931F93CF937C018C0183E0000F34
:100A0000111F8A95E1F70A521C4EC1E0F8011192BC
:100A10008F0140E06C2FC7010E949904CF5FC9305D
:100A2000A9F7CF911F910F91FF90EF90089520911A
:100A30001C1430911D1412161306FCF48830910515
:100A4000E1F068307105C9F020E830E002C035956A
:100A500027956A95E2F7FC01EA53FC4E508944233E
:100A600049F0252B208B61E0680F408990E080E001
:100A70000C94990420952523F5CF0895AF92BF9249
:100A8000CF92DF92EF92FF920F931F93CF93DF935A
:100A90003AE7E32E32E1F32E10E000E0D0E0C0E0D0
:100AA00041E0F701EC0FFD1F8081813009F040E04B
:100AB000BE01C8010E9417052196C830D10581F7F3
:100AC0000F5F1F4F80E1E80EF11C0830110531F770
:100AD00093E0E92EF12C23ECA22EB12C8AE7C82E4C
:100AE00082E1D82E10E000E0C8E0D0E0F601EC0F83
:100AF000FD1F8081813001F5B801CE0108970E9469
:100B000068042196C031D10589F70F5F1F4F80E13E
:100B1000C80ED11C0830110539F781E0E81AF10838
:100B2000E9F6DF91CF911F910F91FF90EF90DF9049
:100B3000CF90BF90AF900895C5010197F1F7E1CF35
:100B4000CF92DF92EF92FF920F931F93CF93DF9399
:100B500026E5E22E2DE0F22E670110E000E0D0E065
:100B6000C0E0FE01EE0FFF1FEC0DFD1D41E0808196
:100B70009181019709F040E0BE01C8010E9417056C
:100B80002196C830D10569F70F5F1F4F80E2C80E6C
:100B9000D11C0830110519F710E000E0C8E0D0E0E2
:100BA000FE01EE0FFF1FEE0DFF1D80819181019769
:100BB00029F4B801CE0108970E9468042196C0313B
:100BC000D10571F70F5F1F4F80E2E80EF11C08306E
:100BD000110521F7DF91CF911F910F91FF90EF90B9
:100BE000DF90CF900895CF92DF92EF92FF920F9314
:100BF0001F93CF93DF9326E5E22E2CE0F22E6701C0
:100C000010E000E0D0E0C0E0FE01EE0FFF1FEC0DB1
:100C1000FD1D41E080819181019709F040E0BE0116
:100C2000C8010E9417052196C830D10569F70F5FEA
:100C30001F4F80E2C80ED11C0830110519F710E0D3
:100C400000E0C8E0D0E0FE01EE0FFF1FEE0DFF1D3B
:100C500080819181019729F4B801CE0108970E9403
:100C600068042196C031D10571F70F5F1F4F80E2F4
:100C7000E80EF11C0830110521F7DF91CF911F918B
:100C80000F91FF90EF90DF90CF900895CF92DF9279
:100C9000EF92FF920F931F93CF93DF9326E5E22EFF
:100CA0002BE0F22E670110E000E0D0E0C0E0FE0192
:100CB000EE0FFF1FEC0DFD1D41E08081918101973A
:100CC00009F040E0BE01C8010E9417052196C83016
:100CD000D10569F70F5F1F4F80E2C80ED11C0830A5
:100CE000110519F710E000E0C8E0D0E0FE01EE0FBA
:100CF000FF1FEE0DFF1D80819181019729F4B8013E
:100D0000CE0108970E9468042196C031D10571F781
:100D10000F5F1F4F80E2E80EF11C0830110521F72C
:100D2000DF91CF911F910F91FF90EF90DF90CF90C7
:100D30000895CF92DF92EF92FF920F931F93CF937C
:100D4000DF9326E5E22E2AE0F22E670110E000E0B4
:100D5000D0E0C0E0FE01EE0FFF1FEC0DFD1D41E0F5
:100D600080819181019709F040E0BE01C8010E9495
:100D700017052196C830D10569F70F5F1F4F80E234
:100D8000C80ED11C0830110519F710E000E0C8E0CA
:100D9000D0E0FE01EE0FFF1FEE0DFF1D808191815F
:100DA000019729F4B801CE0108970E9468042196A2
:100DB000C031D10571F70F5F1F4F80E2E80EF11CC3
:100DC0000830110521F7DF91CF911F910F91FF900E
:100DD000EF90DF90CF900895CF92DF92EF92FF9245
:100DE0000F931F93CF93DF9326E5E22E29E0F22E97
:100DF000670110E000E0D0E0C0E0FE01EE0FFF1F51
:100E0000EC0DFD1D41E080819181019709F040E0EA
:100E1000BE01C8010E9417052196C830D10569F7A7
:100E20000F5F1F4F80E2C80ED11C0830110519F763
:100E300010E000E0C8E0D0E0FE01EE0FFF1FEE0D75
:100E4000FF1D80819181019729F4B801CE01089797
:100E50000E9468042196C031D10571F70F5F1F4FC2
:100E600080E2E80EF11C0830110521F7DF91CF91E7
:100E70001F910F91FF90EF90DF90CF900895CF9248
:100E8000DF92EF92FF920F931F93CF93DF9326E5AC
:100E9000E22E28E0F22E670110E000E0D0E0C0E092
:100EA000FE01EE0FFF1FEC0DFD1D41E080819181E1
:100EB000019709F040E0BE01C8010E941705219684
:100EC000C830D10569F70F5F1F4F80E2C80ED11CF3
:100ED0000830110519F710E000E0C8E0D0E0FE018D
:100EE000EE0FFF1FEE0DFF1D80819181019729F408
:100EF000B801CE0108970E9468042196C031D1053F
:100F000071F70F5F1F4F80E2E80EF11C08301105EA
:100F100021F7DF91CF911F910F91FF90EF90DF901C
:100F2000CF900895CF92DF92EF92FF920F931F938D
:100F3000CF93DF9326E5E22E27E0F22E670110E043
:100F400000E0D0E0C0E0FE01EE0FFF1FEC0DFD1D44
:100F500041E080819181019709F040E0BE01C80124
:100F60000E9417052196C830D10569F70F5F1F4F02
:100F700080E2C80ED11C0830110519F710E000E01E
:100F8000C8E0D0E0FE01EE0FFF1FEE0DFF1D8081D7
:100F90009181019729F4B801CE0108970E94680455
:100FA0002196C031D10571F70F5F1F4F80E2E80E27
:100FB000F11C0830110521F7DF91CF911F910F919E
:100FC000FF90EF90DF90CF900895CF92DF92EF9255
:100FD000FF920F931F93CF93DF9326E5E22E26E037
:100FE000F22E670110E000E0D0E0C0E0FE01EE0F5D
:100FF000FF1FEC0DFD1D41E080819181019709F0FB
:1010000040E0BE01C8010E9417052196C830D105F5
:1010100069F70F5F1F4F80E2C80ED11C0830110521
:1010200019F710E000E0C8E0D0E0FE01EE0FFF1F6E
:10103000EE0DFF1D80819181019729F4B801CE0149
:1010400008970E9468042196C031D10571F70F5F9F
:101050001F4F80E2E80EF11C0830110521F7DF91E7
:10106000CF911F910F91FF90EF90DF90CF90089557
:10107000CF92DF92EF92FF920F931F93CF93DF9364
:1010800026E5E22E25E0F22E670110E000E0D0E038
:10109000C0E0FE01EE0FFF1FEC0DFD1D41E0808161
:1010A0009181019709F040E0BE01C8010E94170537
:1010B0002196C830D10569F70F5F1F4F80E2C80E37
:1010C000D11C0830110519F710E000E0C8E0D0E0AD
:1010D000FE01EE0FFF1FEE0DFF1D80819181019734
:1010E00029F4B801CE0108970E9468042196C03106
:1010F000D10571F70F5F1F4F80E2E80EF11C083039
:10110000110521F7DF91CF911F910F91FF90EF9083
:10111000DF90CF900895CF92DF92EF92FF920F93DE
:101120001F93CF93DF9326E5E22E24E0F22E670192
:1011300010E000E0D0E0C0E0FE01EE0FFF1FEC0D7C
:10114000FD1D41E080819181019709F040E0BE01E1
:10115000C8010E9417052196C830D10569F70F5FB5
:101160001F4F80E2C80ED11C0830110519F710E09E
:1011700000E0C8E0D0E0FE01EE0FFF1FEE0DFF1D06
:1011800080819181019729F4B801CE0108970E94CE
:1011900068042196C031D10571F70F5F1F4F80E2BF
:1011A000E80EF11C0830110521F7DF91CF911F9156
:1011B0000F91FF90EF90DF90CF900895CF92DF9244
:1011C000EF92FF920F931F93CF93DF9326E5E22ECA
:1011D00023E0F22E670110E000E0D0E0C0E0FE0165
:1011E000EE0FFF1FEC0DFD1D41E080819181019705
:1011F00009F040E0BE01C8010E9417052196C830E1
:10120000D10569F70F5F1F4F80E2C80ED11C08306F
:10121000110519F710E000E0C8E0D0E0FE01EE0F84
:10122000FF1FEE0DFF1D80819181019729F4B80108
:10123000CE0108970E9468042196C031D10571F74C
:101240000F5F1F4F80E2E80EF11C0830110521F7F7
:10125000DF91CF911F910F91FF90EF90DF90CF9092
:101260000895CF92DF92EF92FF920F931F93CF9347
:10127000DF9326E5E22E22E0F22E670110E000E087
:10128000D0E0C0E0FE01EE0FFF1FEC0DFD1D41E0C0
:1012900080819181019709F040E0BE01C8010E9460
:1012A00017052196C830D10569F70F5F1F4F80E2FF
:1012B000C80ED11C0830110519F710E000E0C8E095
:1012C000D0E0FE01EE0FFF1FEE0DFF1D808191812A
:1012D000019729F4B801CE0108970E94680421966D
:1012E000C031D10571F70F5F1F4F80E2E80EF11C8E
:1012F0000830110521F7DF91CF911F910F91FF90D9
:10130000EF90DF90CF900895FC0101900020E9F765
:101310003197AF01481B590BBC0189E293E10C9452
:10132000F9028F929F92AF92BF920F931F93CF9328
:10133000DF93CDB7DEB7A1970FB6F894DEBF0FBE2F
:10134000CDBF19A2423008F44AE08E010F5D1F4F55
:10135000842E912CB12CA12CA50194010E9456152C
:10136000E62FB901CA01EA30F4F4E05DD801EE934A
:101370008D01232B242B252B79F790E080E010970B
:1013800019F0CD010E948409A1960FB6F894DEBF32
:101390000FBECDBFDF91CF911F910F91BF90AF9046
:1013A0009F908F900895E95CE1CFCF92DF92EF920A
:1013B000FF92CF93DF936C01990FEE08FF08F7FEC1
:1013C0001FC06DE289E293E10E948F03EC01662762
:1013D0007727CB016C197D098E099F094AE00E948D
:1013E0009109C80FD91F80E492E10E9484098C0FF3
:1013F0009D1FDF91CF91FF90EF90DF90CF900895E8
:101400004AE0C701B6010E949109EC01ECCFCF93ED
:10141000DF930E948409EC0180E492E10E94840938
:101420008C0F9D1FDF91CF910895CF93DF934AE0FA
:101430000E949109EC0180E492E10E9484098C0FE2
:101440009D1FDF91CF9108951F920F920FB60F92BB
:1014500011242F933F938F939F93AF93BF938091CA
:10146000211390912213A0912313B0912413309152
:10147000201323E0230F2D3758F50196A11DB11D30
:10148000209320138093211390932213A09323136E
:10149000B09324138091251390912613A0912713C4
:1014A000B09128130196A11DB11D8093251390932F
:1014B0002613A0932713B0932813BF91AF919F9148
:1014C0008F913F912F910F900FBE0F901F90189505
:1014D00026E8230F0296A11DB11DD2CF1F920F92B5
:1014E0000FB60F9211240BB60F922F933F934F9389
:1014F0005F936F937F938F939F93AF93BF93EF937C
:10150000FF9389E293E10E946D03FF91EF91BF91F8
:10151000AF919F918F917F916F915F914F913F918B
:101520002F910F900BBE0F900FBE0F901F9018952C
:101530001F920F920FB60F9211240BB60F922F939A
:101540008F939F93EF93FF93E0913913F0913A13A8
:101550008081E0913F13F091401382FD1DC0908186
:10156000809142138F5F8F7320914313821741F054
:10157000E0914213F0E0E75DFC4E958F80934213BB
:10158000FF91EF919F918F912F910F900BBE0F9034
:101590000FBE0F901F9018958081F2CFCF93DF93ED
:1015A00010922C1310922B1388EE93E0A0E0B0E081
:1015B00080932D1390932E13A0932F13B093301379
:1015C00082E392E190932A138093291385EC90E0B3
:1015D000909336138093351384EC90E090933813F6
:1015E0008093371380EC90E090933A1380933913F3
:1015F00081EC90E090933C1380933B1382EC90E05D
:1016000090933E1380933D1386EC90E090934013AB
:1016100080933F131092421310924313109244137D
:1016200010924513C7E0D0E0D0931714C09316145E
:1016300086E090E0909319148093181485E090E070
:1016400090931B1480931A1481E090E090931D14E2
:1016500080931C1461E087E00E944E0261E080915B
:1016600018140E944E0261E080911A140E944E02EA
:1016700061E080911A140E942002D0931714C09345
:101680001614E6EDF3E1119284E1E631F807D9F79B
:10169000D0E0C0E080911C1490911D14C817D907A8
:1016A00074F540E06FE0CE010E94990480911C1413
:1016B00090911D14C817D9072CF447E06BE0CE01B8
:1016C0000E94990440E069E0CE010E949904809153
:1016D0001C1490911D14C817D9071CF4CE010E9448
:1016E000F70480911C1490911D14C817D9072CF48D
:1016F00040E06CE0CE010E9499042196CBCFDF91AF
:10170000CF910895789484B5826084BD84B581605A
:1017100084BD85B5826085BD85B5816085BD8091BC
:101720006E00816080936E00109281008091810034
:10173000826080938100809181008160809381002C
:10174000809180008160809380008091B1008460EE
:101750008093B1008091B00081608093B00080914F
:1017600091008260809391008091910081608093CC
:101770009100809190008160809390008091A10001
:1017800082608093A1008091A10081608093A1007C
:101790008091A00081608093A000809121018260EF
:1017A00080932101809121018160809321018091AA
:1017B000200181608093200180917A008460809371
:1017C0007A0080917A00826080937A0080917A001A
:1017D000816080937A0080917A00806880937A009B
:1017E0001092C10080911C1490911D1418161906B6
:1017F00034F441E06CE090E080E00E949904809134
:101800001C1490911D141816190634F448E06AE06F
:1018100090E080E00E949904CEE061E08C2F0E946D
:101820004E02CF5FC631C9F761E08C2F0E944E0295
:10183000CF5FCE31C9F7CEE061E08C2F0E9420024D
:10184000CF5FC631C9F760E08C2F0E942002CF5FC6
:10185000CE31C9F760E08DE00E944E0260E08CE07E
:101860000E944E0260E08BE00E944E0260E08AE03F
:101870000E944E02BBEC2B2EB7E03B2EC3E04C2E59
:10188000512C612C712CC12CD4E0DD2EE12CF12CDB
:1018900080911E1390911F13892B09F08FC10E9414
:1018A00068018DE00E94F701EC018AE00E94F701D7
:1018B0008C010E94ED028090661290906712A090B9
:1018C0006812B0906912AB01BC01481959096A0944
:1018D0007B098091080290910902092E000CAA0B45
:1018E000BB0B481759076A077B07C4F00E94ED023B
:1018F00060936612709367128093681290936912D6
:101900008091020290910302209100023091010225
:10191000820F931F909303028093020280916412BE
:1019200090916512C817D90751F00E94ED0260939B
:10193000601270936112809362129093631280918F
:101940007612909177120817190759F10E94ED024B
:1019500060930413709305138093061390930713F9
:101960000130110571F483E492E10E94070A0E949C
:10197000ED026093721270937312809374129093BD
:101980007512209771F48CE492E10E94070A0E947C
:10199000ED0260936E1270936F12809370129093A9
:1019A00071120E94ED028090601290906112A090DE
:1019B0006212B0906312681979098A099B0963332E
:1019C000710581059105D8F080915E1290915F12AA
:1019D000C817D907A1F0D0935F12C0935E12C1302F
:1019E000D10569F48091000290910102019709F0FC
:1019F000A2C18FEF9FEF90930102809300020E949B
:101A0000ED028090721290907312A0907412B090B8
:101A10007512681979098A099B090E94150A609153
:101A200072127091731280917412909175120E94CB
:101A3000150A60916E1270916F12809170129091E0
:101A400071120E94150A85E592E10E94070A8090B2
:101A5000721290907312A0907412B09075128091CF
:101A60006E1290916F12A0917012B091711288163F
:101A70009906AA06BB0601F101151105E9F48819BA
:101A80009909AA09BB09803D9740A105B105A0F0BD
:101A900064E670E080E090E00E94BB0280926E12EB
:101AA00090926F12A0927012B092711281E090E049
:101AB00090931F1380931E13109377120093761246
:101AC000D0936512C0936412A0900202B0900302FA
:101AD000EAE7F2E18F01D0E0C0E04BE730E020E040
:101AE0004C9FC0014D9F900D1124BC016A5A714F4B
:101AF0004B01C501820F931F6BE770E00E948715B1
:101B0000D401A80FB91F8C91D801A20FB31F813047
:101B100009F016C18C932F5F3F4F2031310549F7F3
:101B20002196005F1F4FC830D105C1F678E7A71690
:101B3000B104CCF04AEF52E18AE792E130E020E0D4
:101B4000DC01A20FB31F1C922F5F3F4F20313105E4
:101B5000B9F740964817590789F78CEF9FEF909394
:101B600003028093020280910202909103028B3F54
:101B70009F4FB4F42AEF32E190E080E0DF01A80F3C
:101B8000B91F1C92019680319105C1F770962E17EE
:101B90003F0791F789E690E0909303028093020259
:101BA00062E070E080E090E00E94BB020E943E058F
:101BB00061E070E080E090E00E94BB0280911E1323
:101BC00090911F138130910509F0BCC00E948604DA
:101BD0006AE070E080E090E00E94BB020E94A005F5
:101BE0008CE00E94F701EC018BE00E94F7018C0170
:101BF00080911C1390911D13C817D90751F00E94B2
:101C0000ED02609318137093191380931A13909335
:101C10001B1380911613909117130817190751F091
:101C20000E94ED02609312137093131380931413A8
:101C3000909315130E94ED02809018139090191341
:101C4000A0901A13B0901B13681979098A099B098F
:101C50006333710581059105B0F180911013909166
:101C60001113C817D90779F1D0931113C09310132A
:101C7000C130D10541F5809150029091510290936D
:101C80004F0280934E0283E090E090934D02809348
:101C90004C02D0934B02C0934A020E94ED02609323
:101CA0000C1370930D1380930E1390930F1362E334
:101CB00070E080E090E00E94BB0285E090E09093AD
:101CC0001F1380931E130E94ED02809012139090B8
:101CD0001313A0901413B0901513681979098A0989
:101CE0009B096333710581059105D0F080910A133A
:101CF00090910B130817190799F010930B13009389
:101D00000A130130110561F464E670E080E090E0B0
:101D10000E94BB0284E090E090931F1380931E13F7
:101D20001093171300931613D0931D13C0931C1315
:101D30000E94FC03ADCDD0930102C09300025FCEA0
:101D40001C92E9CE8230910509F0F3C18DE00E942A
:101D5000F701EC010E942D040E94ED020091661231
:101D6000109167122091681230916912AB01BC0189
:101D7000401B510B620B730B80910802909109027A
:101D8000092E000CAA0BBB0B481759076A077B07E3
:101D90000CF4A8C00091FE121091FF120E94ED02F7
:101DA0006093661270936712809368129093691221
:101DB0000F5F1F4F00311105D9F11093FF120093EF
:101DC000FE1280910602909107028F3F980709F456
:101DD00089C0BC016F5F7F4F2091040230910502E2
:101DE000FB01A4E0EE0FFF1FAA95E1F7E658FD4EB8
:101DF000E20FF31F4081413009F060C0A901440F98
:101E0000551F440F551FFA01E65FFD4F02811381F4
:101E1000F901E658FD4E70E060E0709760177107B9
:101E200064F4DF01A058BF4F1C926F5F7F4FF5CF66
:101E30001092FF121092FE12C4CF465F5D4FFA015E
:101E4000138212824091FA125091FB1241505109B3
:101E50005093FB124093FA12452BD1F440914A0261
:101E600050914B024F5F5F4F50934B0240934A0299
:101E700040914C0250914D024F5F5F4F50934D0285
:101E800040934C0245E050E050931F1340931E13C3
:101E900044E0880F991F4A95E1F786589D4E820FBE
:101EA000931FDC011C928FEF9FEF909305028093AC
:101EB0000402909307028093060214C0AC0104E070
:101EC000440F551F0A95E1F746585D4E240F351F04
:101ED000D9011C9207973CF77093070260930602A2
:101EE00081E080830E94ED0200910C1310910D138C
:101EF00020910E1330910F13601B710B820B930B0B
:101F0000683E734081059105A0F00091FC1210918C
:101F1000FD120E94ED0260930C1370930D138093D9
:101F20000E1390930F130F5F1F4F1093FD1200932A
:101F3000FC128091641290916512C817D90751F074
:101F40000E94ED026093601270936112809362129E
:101F5000909363120E94ED022091FE123091FF12C5
:101F60004091FC125091FD1280906012909061128D
:101F7000A0906212B0906312681979098A099B09CE
:101F8000633371058105910578F180915E1290911E
:101F90005F12C817D90741F1D0935F12C0935E1248
:101FA000C130D10509F58091040290910502019696
:101FB000D9F480910602909107020196A9F430931A
:101FC000050220930402FA013296F0930702E0938F
:101FD000060214E0EE0FFF1F1A95E1F7E658FD4EDA
:101FE000E20FF31F81E08083D0936512C0936412E7
:101FF00089010E5F1F4FFA01D4E0EE0FFF1FDA9543
:10200000E1F7E657FD4EDF01A00FB11F8C91813043
:1020100009F068C0425051095093FD124093FC12E0
:10202000225031093093FF122093FE1280914E020C
:1020300090914F02019790934F0280934E02892B0B
:1020400071F481E090E090931F1380931E1310921F
:10205000FF121092FE121092FD121092FC120E94BA
:102060003E058AE00E94F701EC01809108139091EF
:102070000913C817D90751F00E94ED0260930413A9
:102080007093051380930613909307130E94ED023B
:10209000009104131091051320910613309107133A
:1020A000601B710B820B930B6333710581059105E6
:1020B000A0F08091021390910313C817D90769F01B
:1020C000D0930313C0930213C130D10531F483E0E0
:1020D00090E090931F1380931E13D0930913C09325
:1020E000081326CEDA01C4E0AA0FBB1FCA95E1F798
:1020F000A658BD4EA20FB31F41E04C93C0E1D0E003
:10210000C901BE010E948715DF01A80FB91F4C93BA
:10211000C9010196BE010E948715DF01A80FB91FF2
:102120004C93C801BE010E948715E80FF91F408338
:1021300096CF8330910509F065C180914E02909150
:102140004F02009709F010C1C0916A12D0916B1232
:10215000C431D10508F0F2C00E9431092196D09314
:102160006B12C0936A120E94680164E670E080E01E
:1021700090E00E94BB028AE00E94F701EC0180918E
:10218000761290917712C817D907E1F00E94ED02FC
:1021900060930413709305138093061390930713B1
:1021A000C130D10509F01CC183E492E10E94070A05
:1021B0000E94ED02609372127093731280937412F6
:1021C000909375120E94ED02009104131091051373
:1021D0002091061330910713601B710B820B930B38
:1021E000633371058105910558F080916C129091CF
:1021F0006D12C817D90721F0D0936D12C0936C12DD
:102200000E94ED02009172121091731220917412CB
:1022100030917512601B710B820B930B0E94150A93
:102220006091721270917312809174129091751274
:102230000E94150A60916E1270916F128091701257
:10224000909171120E94150A85E592E10E94070A99
:102250008090721290907312A0907412B0907512C8
:1022600080916E1290916F12A0917012B0917112C4
:1022700088169906AA06BB0609F45BC0209709F0E8
:1022800058C088199909AA09BB09883B9B40A10538
:10229000B10510F1EAE0F2E08AE492E013821282E2
:1022A00034968E179F07D1F71092FB121092FA12F4
:1022B00080926E1290926F12A0927012B092711270
:1022C00064E670E080E090E00E94BB0281E090E074
:1022D00090931F1380931E1380916E1290916F1232
:1022E000A0917012B0917112805D9740A109B1095F
:1022F00088199909AA09BB09883E9340A105B1052F
:10230000C0F40E94ED0260930C1370930D13809340
:102310000E1390930F1380926E1290926F12A092F0
:102320007012B092711282E090E090931F1380932C
:102330001E13D0937712C0937612FACCCE01449735
:102340000A9718F40E943E0509CF0E94A0058091CB
:102350001C1490911D14181619060CF004CF90E06F
:1023600080E00E94F704FFCE8130910519F40E94AD
:10237000DE08F9CE8230910519F40E948B08F3CE65
:102380008330910519F40E943808EDCE8430910510
:1023900019F40E94E507E7CE8530910519F40E94F3
:1023A0009207E1CE8630910519F40E943F07DBCEFB
:1023B0008730910519F40E94EC06D5CE883091053E
:1023C00019F40E949906CFCE8930910519F40E9424
:1023D0004606C9CE0A9709F0C6CE0E94F305C3CEC1
:1023E000209709F0EFCE8CE492E10E94070A0E9448
:1023F000ED0260936E1270936F128093701290933F
:102400007112E0CE8430910509F062C18091001311
:1024100090910113892B59F40E9486040E943E0575
:1024200081E090E0909301138093001381CC86E3C8
:102430000E947F02BC01990F880B990BE3E0660FA5
:10244000771F881F991FEA95D1F7A70196010E946F
:1024500024154901E901309379122093781287E31A
:102460000E947F02BC01990F880B990BF3E0660F65
:10247000771F881F991FFA95D1F7A70196010E942F
:102480002415C90161EF84016003F001619FF00D23
:102490001124BF0168537F4F7093090260930802B3
:1024A00089010D5F1F4F1093510200935002EAE71C
:1024B000F2E1DF0130E020E041E0C217D3070CF089
:1024C000E5C050961C9250972F5F3F4F11962031D8
:1024D000310599F730E020E041E0C217D3070CF056
:1024E000D9C010A22F5F3F4F319620313105A9F797
:1024F00050E040E061E09A01205C3F4F841795076F
:102500000CF0CAC026583D4ED9011C924F5F5F4F58
:102510004031510581F750E040E061E09A01205BD5
:102520003F4F841795070CF0BCC026583D4EF9016B
:1025300010824F5F5F4F4031510581F78AE00E9462
:10254000F701EC018091761290917712C817D907A4
:10255000E1F00E94ED0260930413709305138093E1
:10256000061390930713C130D10509F09FC083E48F
:1025700092E10E94070A0E94ED026093721270932A
:10258000731280937412909375120E94ED02009161
:102590000413109105132091061330910713601B4B
:1025A000710B820B930B633371058105910558F014
:1025B00080916C1290916D12C817D90721F0D093B9
:1025C0006D12C0936C120E94ED0200917212109174
:1025D00073122091741230917512601B710B820B73
:1025E000930B0E94150A6091721270917312809180
:1025F0007412909175120E94150A60916E1270917A
:102600006F1280917012909171120E94150A85E5E7
:1026100092E10E94070A40917212509173126091E8
:1026200074127091751280916E1290916F12A09138
:102630007012B0917112481759076A077B07F9F0B9
:102640002097E9F4841B950BA60BB70B883B9B40A6
:10265000A105B105A0F040936E1250936F126093E4
:1026600070127093711264E670E080E090E00E9456
:10267000BB0281E090E090931F1380931E13D093D0
:102680007712C09376120E943E0552CB50964C931F
:1026900050971ACF40A326CF26583D4EE9016883B4
:1026A00035CF26583D4ED9016C9343CF209709F082
:1026B0006CCF8CE492E10E94070A0E94ED026093C5
:1026C0006E1270936F1280937012909371125DCF9F
:1026D000059709F02DCB80914A0290914B0200970B
:1026E00009F092C00E94310980911C1490911D1430
:1026F0001816190624F490E080E00E94F7040E9466
:10270000ED0200910C1310910D1320910E133091D6
:102710000F13601B710B820B930B603D774081059B
:10272000910508F405CB0E942D0488E592E10E94F2
:10273000070A8091FA129091FB120E94D5098091AC
:102740004C0290914D020E94D5092091FA123091CD
:10275000FB1280914C0290914D02281739070CF022
:102760008FC00E94ED02611571058105910511F080
:102770000E941B150E94CC142FE030E040E050E096
:102780000E9424154B018B01C1010197F1F70E94B2
:10279000ED026F5F7F4F8F4F9F4F11F00E941B150F
:1027A0000E94CC14F1013197F1F7E401CC0FDD1F49
:1027B000CC0FDD1FC65FDD4F2A813B81232B09F043
:1027C000C4CFA30192010E9424154B015C012FEF9D
:1027D000821A920AA20AB20A9B828A828091FA1213
:1027E0009091FB1201969093FB128093FA120E9433
:1027F000D509C8010E94D509C4010E94D50980E409
:1028000092E10E948409A1CF8130910519F40E94C0
:10281000DE086ACF8230910519F40E948B0864CFDC
:102820008330910519F40E9438085ECF84309105F9
:1028300019F40E94E50758CF8530910519F40E94DC
:10284000920752CF8630910519F40E943F074CCF72
:102850008730910519F40E94EC0646CF8830910527
:1028600019F40E94990640CF8930910519F40E940D
:1028700046063ACF0A9709F037CF0E94F30534CFC6
:10288000EAE0F2E0AAE4B2E011E06281738161154E
:102890007105C9F030E020E026173707A4F487E07F
:1028A00090E0821B930B44E0880F991F4A95E1F753
:1028B00086589D4E40815181840F951FEC011883ED
:1028C0002F5F3F4FE9CF3496AE17BF07F1F6109256
:1028D000FF121092FE121092FD121092FC120E9432
:1028E000ED0260930C1370930D1380930E1390936D
:1028F0000F1382E090E090931F1380931E1318CA69
:102900008F929F92AF92BF92CF92DF92EF92FF92FF
:10291000CF93DF93EC01688179818A819B81611576
:1029200071058105910521F464E279ED8BE597E06D
:102930002DE133EF41E050E00E94241549015A0196
:102940009B01AC01A7EAB1E40E9443156B017C0135
:10295000ACEEB4EFA50194010E945115C60ED71E2E
:10296000E81EF91EF7FE06C081E0C81AD108E1088A
:1029700080E8F80AC882D982EA82FB82C701B601E0
:102980009F77DF91CF91FF90EF90DF90CF90BF9036
:10299000AF909F908F9008958F929F92AF92BF9229
:1029A000CF92DF92EF92FF926091520270915302A8
:1029B0008091540290915502611571058105910530
:1029C00021F464E279ED8BE597E02DE133EF41E00E
:1029D00050E00E94241549015A019B01AC01A7EA6D
:1029E000B1E40E9443156B017C01ACEEB4EFA5018C
:1029F00094010E945115C60ED71EE81EF91EF7FE5F
:102A000006C081E0C81AD108E10880E8F80AC0923F
:102A10005202D0925302E0925402F0925502C70142
:102A2000B6019F77FF90EF90DF90CF90BF90AF906F
:102A30009F908F90089560935202709353028093F9
:102A40005402909355020895052E97FB1EF40094AE
:102A50000E943B1557FD07D00E94561507FC03D076
:102A60004EF40C943B1550954095309521953F4F71
:102A70004F4F5F4F089590958095709561957F4F6A
:102A80008F4F9F4F08950E947815A59F900DB49F7A
:102A9000900DA49F800D911D11240895B7FF0C94F3
:102AA00043150E944315821B930B0895A1E21A2E31
:102AB000AA1BBB1BFD010DC0AA1FBB1FEE1FFF1FE2
:102AC000A217B307E407F50720F0A21BB30BE40B32
:102AD000F50B661F771F881F991F1A9469F7609579
:102AE0007095809590959B01AC01BD01CF01089533
:102AF000A29FB001B39FC001A39F700D811D11243F
:102B0000911DB29F700D811D1124911D089597FB99
:102B1000072E16F4009407D077FD09D00E94A31564
:102B200007FC05D03EF4909581959F4F08957095D0
:102B300061957F4F0895EE0FFF1F881F8BBF079091
:102B4000F691E02D1994AA1BBB1B51E107C0AA1FE7
:102B5000BB1FA617B70710F0A61BB70B881F991F3E
:102B60005A95A9F780959095BC01CD010895F894E8
:022B7000FFCF95
:102B72000100FCFFFFFFFFFF9600000000000100C4
:102B82000000020000000300000004000000050035
:102B92000000060000000700000008000000090015
:102BA20000000A0000000B0000000C0000000D00F5
:102BB20000000E0000000F000000010003000100F1
:102BC20003000100000000000000000000000000FF
:102BD20000000000000000000000000000000000F3
:102BE20000000000000000000000000000000000E3
:102BF20000000100010001000100000000000000CF
:102C020000000000000000000000000000000000C2
:102C120000000100000000000100000000000000B0
:102C220000000000000000000000000000000000A2
:102C32000000010000000000010000000000000090
:102C42000000000000000000000000000000000082
:102C52000000010000000000010000000000000070
:102C62000000000000000000000000000000000062
:102C72000000010000000000010000000000000050
:102C82000000000000000000000000000000000042
:102C92000000010000000000010000000000000030
:102CA2000000000000000000000000000000000022
:102CB200000001000100010001000000000000000E
:102CC2000000000000000000000000000000000002
:102CD20000000000000000000000000000000000F2
:102CE20000000000000000000000000000000000E2
:102CF20000000000000001000000000000000000D1
:102D020000000000000000000000000000000000C1
:102D120000000000010001000000000000000000AF
:102D220000000000000000000000000000000000A1
:102D32000000000000000100000000000000000090
:102D42000000000000000000000000000000000081
:102D52000000000000000100000000000000000070
:102D62000000000000000000000000000000000061
:102D72000000000000000100000000000000000050
:102D82000000000000000000000000000000000041
:102D92000000000000000100000000000000000030
:102DA2000000000000000000000000000000000021
:102DB2000000000000000000000000000000000011
:102DC2000000000000000000000000000000000001
:102DD20000000000000000000000000000000000F1
:102DE20000000000000000000000000000000000E1
:102DF20000000000000000000000000000000000D1
:102E020000000000000000000000000000000000C0
:102E120000000100010001000000000000000000AD
:102E220000000000000000000000000000000000A0
:102E3200000000000000010000000000000000008F
:102E42000000000000000000000000000000000080
:102E5200000001000100010000000000000000006D
:102E62000000000000000000000000000000000060
:102E7200000001000000000000000000000000004F
:102E82000000000000000000000000000000000040
:102E9200000001000100010000000000000000002D
:102EA2000000000000000000000000000000000020
:102EB2000000000000000000000000000000000010
:102EC2000000000000000000000000000000000000
:102ED20000000000000000000000000000000000F0
:102EE20000000000000000000000000000000000E0
:102EF20000000000000000000000000000000000D0
:102F020000000000000000000000000000000000BF
:102F120000000100010001000000000000000000AC
:102F2200000000000000000000000000000000009F
:102F3200000000000000010000000000000000008E
:102F4200000000000000000000000000000000007F
:102F5200000001000100010000000000000000006C
:102F6200000000000000000000000000000000005F
:102F7200000000000000010000000000000000004E
:102F8200000000000000000000000000000000003F
:102F9200000001000100010000000000000000002C
:102FA200000000000000000000000000000000001F
:102FB200000000000000000000000000000000000F
:102FC20000000000000000000000000000000000FF
:102FD20000000000000000000000000000000000EF
:102FE20000000000000000000000000000000000DF
:102FF20000000000000001000000000000000000CE
:1030020000000000000000000000000000000000BE
:1030120000000000010001000000000000000000AC
:10302200000000000000000000000000000000009E
:10303200000001000000010000000000000000008C
:10304200000000000000000000000000000000007E
:103052000100010001000100010000000000000069
:10306200000000000000000000000000000000005E
:10307200000000000000010000000000000000004D
:10308200000000000000000000000000000000003E
:10309200000000000000010000000000000000002D
:1030A200000000000000000000000000000000001E
:1030B200000000000000010000000000000000000D
:1030C20000000000000000000000000000000000FE
:1030D20000000000000000000000000000000000EE
:1030E20000000000000000000000000000000000DE
:1030F20000000000000000000000000000000000CE
:1031020000000000000000000000000000000000BD
:1031120000000100010001000000000000000000AA
:10312200000000000000000000000000000000009D
:10313200000001000000000000000000000000008C
:10314200000000000000000000000000000000007D
:10315200000001000100010000000000000000006A
:10316200000000000000000000000000000000005D
:10317200000000000000010000000000000000004C
:10318200000000000000000000000000000000003D
:10319200000001000100010000000000000000002A
:1031A200000000000000000000000000000000001D
:1031B200000000000000000000000000000000000D
:1031C20000000000000000000000000000000000FD
:1031D20000000000000000000000000000000000ED
:1031E20000000000000000000000000000000000DD
:1031F20000000100010001000000000000000000CA
:1032020000000000000000000000000000000000BC
:1032120000000100000000000000000000000000AB
:10322200000000000000000000000000000000009C
:10323200000001000000000000000000000000008B
:10324200000000000000000000000000000000007C
:103252000000010001000100000000000000000069
:10326200000000000000000000000000000000005C
:10327200000001000000010000000000000000004A
:10328200000000000000000000000000000000003C
:103292000000010001000100000000000000000029
:1032A200000000000000000000000000000000001C
:1032B200000000000000000000000000000000000C
:1032C20000000000000000000000000000000000FC
:1032D20000000000000000000000000000000000EC
:1032E20000000000000000000000000000000000DC
:1032F20000000100010001000000000000000000C9
:1033020000000000000000000000000000000000BB
:1033120000000000000001000000000000000000AA
:10332200000000000000000000000000000000009B
:10333200000000000000010000000000000000008A
:10334200000000000000000000000000000000007B
:103352000000000001000100010000000000000068
:10336200000000000000000000000000000000005B
:10337200000000000000010000000000000000004A
:10338200000000000000000000000000000000003B
:10339200000000000000010000000000000000002A
:1033A200000000000000000000000000000000001B
:1033B200000000000000000000000000000000000B
:1033C20000000000000000000000000000000000FB
:1033D20000000000000000000000000000000000EB
:1033E20000000000000000000000000000000000DB
:1033F20000000000000000000000000000000000CB
:1034020000000000000000000000000000000000BA
:1034120000000100010001000000000000000000A7
:10342200000000000000000000000000000000009A
:103432000000010000000100000000000000000088
:10344200000000000000000000000000000000007A
:103452000000010001000100000000000000000067
:10346200000000000000000000000000000000005A
:103472000000010000000100000000000000000048
:10348200000000000000000000000000000000003A
:103492000000010001000100000000000000000027
:1034A200000000000000000000000000000000001A
:1034B200000000000000000000000000000000000A
:1034C20000000000000000000000000000000000FA
:1034D20000000000000000000000000000000000EA
:1034E20000000000000000000000000000000000DA
:1034F20000000000000000000000000000000000CA
:1035020000000000000000000000000000000000B9
:1035120000000100010001000000000000000000A6
:103522000000000000000000000000000000000099
:103532000000010000000100000000000000000087
:103542000000000000000000000000000000000079
:103552000000010001000100000000000000000066
:103562000000000000000000000000000000000059
:103572000000000000000100000000000000000048
:103582000000000000000000000000000000000039
:103592000000010001000100000000000000000026
:1035A2000000000000000000000000000000000019
:1035B2000000000000000000000000000000000009
:1035C20000000000000000000000000000000000F9
:1035D20000000000000000000000000000000000E9
:1035E20000000000000000000000000000000000D9
:1035F20000000100000000000100010001000000C5
:1036020000000000000000000000000000000000B8
:1036120001000100000000000100000001000000A4
:103622000000000000000000000000000000000098
:103632000000010000000000010000000100000085
:103642000000000000000000000000000000000078
:103652000000010000000000010000000100000065
:103662000000000000000000000000000000000058
:103672000000010000000000010000000100000045
:103682000000000000000000000000000000000038
:103692000000010000000000010001000100000024
:1036A2000000000000000000000000000000000018
:1036B2000000000000000000000000000000000008
:1036C20000000000000000000000000000000000F8
:1036D20001000100010001000100010000000000E2
:1036E20000000000000000000000000000000000D8
:1036F20001000100010001000100010000000000C2
:1037020000000000000000000100000000000000B6
:1037120001000000010001000100010000000000A2
:103722000100010000000000010001000100000092
:103732000100000001000100000001000000010082
:103742000000000000000000000000000000000077
:103752000100000000000100000001000000010063
:103762000000000000000000000001000000000056
:103772000100000000000000000001000000000045
:103782000100010000000000000000000000000035
:103792000100010001000100010001000000000021
:1037A2000000000000000000000000000000000017
:1037B2000100010001000100010001000000000001
:1037C20000000000000000000000000000000000F7
:1037D20000000000000000000000000000000000E7
:1037E20000000000000000000000000000000000D7
:1037F20000000000000000000000000000000000C7
:1038020000000000000000000000000000000000B6
:1038120000000000000000000000000000000000A6
:103822000000000000000000000000000000000096
:103832000000000000000000000000000000000086
:103842000000000000000000000000000000000076
:103852000101010000000101000000010000000060
:103862000000000000000000010000000000010153
:10387200010001010101000101010001010100003B
:10388200000001000001010000010101000001002F
:103892000001000101010000000101000000000020
:1038A2000000010001000000000000000000000014
:1038B2000000000000000000000000000000000006
:1038C20000000000000001010100000100000100F1
:1038D20001000001000101000000000000000000E2
:1038E20000000001000000000000000100010000D3
:1038F20001000000010000000100000001000001C1
:1039020000000100010000010001000001000100AF
:1039120000010001000001000000000001010000A0
:103922000100000000000000000000000000000094
:103932000000000000000000000000000000000085
:10394200000100000100010000010001000001006F
:103952000001000000000000000000000000010063
:103962000000000000000100010000010000000151
:103972000000000100000100000001000001000140
:10398200000001000100000100010000010001002F
:103992000001000000000100010000000100000021
:1039A2000000000000000000000000000000000015
:1039B2000000000000000000000000000100000103
:1039C20000010101000001010101000001000101EB
:1039D20001000100010000000001000101010001DD
:1039E20001010001000001000101010001010100CB
:1039F20001000000000001010100010101010001BC
:103A020000000100010101000001000001000000AE
:103A120001000001000000000100000000000000A1
:103A22000000000000000000000000000000000094
:103A3200000000000000000101010000010001007F
:103A4200000100000100000100000000000100016F
:103A52000000000001000000000001000000010061
:103A62000001000100000000000100000100000050
:103A7200000000010001000100000100000100013E
:103A8200000000000100000100000001010101002E
:103A92000000010000000000000000000000000023
:103AA2000000000000000000000000000000000014
:103AB20000000100000000010000010001000001FF
:103AC20000000100000000000100010001000001EF
:103AD20000000000000100000001000001000100E0
:103AE20000000000010000000100000100000100D0
:103AF20001000001000100000100010000000001BE
:103B020000000100000000000001000001000000B0
:103B120000000000000000000000000000000000A3
:103B22000000000000000000000000000001000092
:103B3200000001000001000100000100000100007E
:103B42000000000001000000010100000000000070
:103B52000101010001010101000101010001010156
:103B6200000000000100000101000001000001004E
:103B7200000101000001000000000001010000003E
:103B82000000000001000100000000000000000031
:103B92000000000000000000000000000000000023
:103BA20000008F03F9022603DC03570335034903A0
:103BB2000D0A0074657374696E67310074657374FD
:0E3BC200696E673200202000787878787800ED
:00000001FF
