:100000000C941A010C944B010C944B010C944B0171
:100010000C944B010C944B010C944B010C944B0130
:100020000C944B010C944B010C944B010C944B0120
:100030000C944B010C944B010C944B010C944B0110
:100040000C944B010C944B010C944B010C944B0100
:100050000C944B010C944B010C944B010C949B029F
:100060000C944B010C944B010C944B010C944B01E0
:100070000C944B010C944B010C944B010C944B01D0
:100080000C944B010C944B010C944B010C944B01C0
:100090000C944B010C944B010C944B010C944B01B0
:1000A0000C944B010C944B010C944B010C944B01A0
:1000B0000C944B010C944B010C944B010C944B0190
:1000C0000C944B010C944B010C944B010C944B0180
:1000D0000C944B010C944B010C944B010C944B0170
:1000E0000C944B010C94D2010C94B7010C94E001D8
:1000F0000C94E4010C94EE010C94CC010C94E801F6
:100100000C94C8010C94C2010C949C010C94DA016B
:100110000C94BB010C94B3010C94BF010C94A1018D
:100120000C94F2010C94D6010C94140400000A0BF8
:1001300002090C0D0E080703040100000000000076
:1001400000000000000000000000000000000000AF
:10015000000000000000000012111000000000006C
:10016000000000000000000000000000000000008F
:10017000000000002200250028002B002E00310086
:10018000340002010000050108010B0100002100FC
:10019000240027002A002D00300033000101000058
:1001A000040107010A0105050505070508080808F7
:1001B000020202020A0A08080404040401010101FF
:1001C00001010101030303030303030304070707FA
:1001D0000C0C0C0C0C0C0C0C02020202060606069F
:1001E000060606060B0B0B0B0B0B0B0B010210206C
:1001F000200808102040102040800201020108045D
:1002000002010102040810204080804020100804F0
:100210000201800402018040201008040201080449
:10022000020101020408102040800102040810208D
:100230004080140411241FBECFEFD1E2DEBFCDBF3A
:1002400000E00CBF13E0A0E0B2E0E6E4F9E000E07B
:100250000BBF02C007900D92A030B107D9F723E081
:10026000A0E0B3E001C01D92A136B207E1F711E0B2
:10027000CAE1D1E000E006C021970109802FFE010C
:100280000E949904C931D10780E00807A9F70E94AC
:10029000E5020C94A1040C94000090E0FC01E451F0
:1002A000FE4F24918A559E4FFC018491882399F03A
:1002B00090E0880F991FFC01E457FE4FA591B4917F
:1002C000FC01EE58FE4F859194918FB7F894EC9114
:1002D000E22BEC938FBF0895282F30E0F901E45D05
:1002E000FE4F9491F901E451FE4F44912A553E4F3F
:1002F000F9012491222309F435C0992311F1915079
:100300009231F8F4E92FF0E08827E657FE4F8F4F3F
:100310000C949904BB01BF019C01B301B701A10179
:10032000C201C801CC01D201D601DA01E001E40129
:10033000A101E801EE01F201809180008F778093A6
:100340008000E22FF0E0EE0FFF1FEE58FE4FA59168
:10035000B4918FB7F894EC91611148C040954E2349
:100360004C938FBF0895809180008F7DE8CF80915E
:100370008000877FE4CF84B58F7784BDE2CF84B5DA
:100380008F7DFBCF8091B0008F778093B000D9CF65
:100390008091B0008F7DF9CF809190008F7780930E
:1003A0009000CFCF809190008F7DF9CF8091900009
:1003B000877FF5CF8091A0008F778093A000C1CF79
:1003C0008091A0008F7DF9CF8091A000877FF5CF2D
:1003D000809120018F7780932001B3CF80912001FD
:1003E0008F7DF9CF80912001877FF5CF4E2BB8CF3D
:1003F0003FB7F8948091050390910603A0910703FD
:10040000B091080326B5A89B05C02F3F19F00196AF
:10041000A11DB11D3FBFBA2FA92F982F8827BC015E
:10042000CD01620F711D811D911D42E0660F771F86
:10043000881F991F4A95D1F70895CF92DF92EF92C6
:10044000FF920F931F93CF93DF931F921F92CDB70D
:10045000DEB769834A83880F991F00915F0310916B
:100460006003000F111FE9E0F3E09F0129503340C2
:100470002017310714F41192F8CF2981FC01E75FAE
:10048000FC4F21838A81808360E080915D030E941C
:100490006C011016110604F501501109F801E75F0F
:1004A000FC4FE080D0905B03C090590388E0F82EA9
:1004B0006E2D661F6627661F8C2D0E946C01EE0C48
:1004C00061E08D2D0E946C0160E08D2D0E946C0119
:1004D000FA94F110EDCFDDCF61E080915D030F90D4
:1004E0000F90DF91CF911F910F91FF90EF90DF90D0
:1004F000CF900C946C01EF92FF920F931F93CF93C8
:100500007C018C0183E0000F111F8A95E1F7075EE3
:100510001C4FC1E0F80111928F0140E06C2FC70120
:100520000E941D02CF5FC930A9F7CF911F910F9193
:10053000FF90EF9008951F920F920FB60F92112423
:100540002F933F938F939F93AF93BF93809101031A
:1005500090910203A0910303B09104033091000332
:1005600023E0230F2D3758F50196A11DB11D2093CF
:1005700000038093010390930203A0930303B093BD
:1005800004038091050390910603A0910703B091A5
:1005900008030196A11DB11D8093050390930603E6
:1005A000A0930703B0930803BF91AF919F918F91E0
:1005B0003F912F910F900FBE0F901F90189526E836
:1005C000230F0296A11DB11DD2CF789484B582600D
:1005D00084BD84B5816084BD85B5826085BD85B5E7
:1005E000816085BD80916E00816080936E00109265
:1005F00081008091810082608093810080918100E0
:100600008160809381008091800081608093800070
:100610008091B10084608093B1008091B0008160CE
:100620008093B000809191008260809391008091CE
:10063000910081608093910080919000816080930F
:1006400090008091A10082608093A1008091A10020
:1006500081608093A1008091A00081608093A000C0
:10066000809121018260809321018091210181602C
:1006700080932101809120018160809320018091ED
:100680007A00846080937A0080917A0082608093FF
:100690007A0080917A00816080937A0080917A005C
:1006A000806880937A001092C10080915F039091DE
:1006B00060031816190634F441E06CE090E080E025
:1006C0000E941D0280915F03909160031816190625
:1006D00034F448E06AE090E080E00E941D02CEE041
:1006E0008C2F0E944D01CF5FC631D1F78C2F0E9415
:1006F0004D01CF5FCE31D1F7CEE061E08C2F0E946B
:100700006C01CF5FC631C9F760E08C2F0E946C018D
:10071000CF5FCE31C9F730E8C32ED12C40E0A42EF4
:1007200040E0B42EC9E0D3E020E0E22E22E0F22E39
:1007300047017724739408E010E080915F03909163
:10074000600318161906ECF4C8010897960102C058
:10075000359527958A95E2F7C9012889F801EE0FAA
:10076000FF1FE80DF91D408151814130510509F00D
:1007700058C0822B888B4889672D90E080E00E94CA
:100780001D020F5F1F4F00311105B9F621967394BA
:1007900030E2830E911C89E07812CDCFCEE0870144
:1007A000D6E1F801819191918F010197F9F460E010
:1007B0008C2F0E946C0161E08D2F0E946C010E94C1
:1007C000F8012B013C010E94F801641975098609A2
:1007D0009709683E734081059105A8F361E08C2F6D
:1007E0000E946C0160E08D2F0E946C01DF5FDE31A2
:1007F000C1F620E2E20EF11CCF5FC63181F6809196
:100800005F03909160031816190624F490E080E0CD
:100810000E947B02A114B10409F484CF0E9400005D
:1008200081CF80958223A6CFCF93DF93C7E0D0E01E
:10083000D0935A03C093590386E090E090935C03F1
:1008400080935B0385E090E090935E0380935D036B
:1008500081E090E09093600380935F0387E00E94C3
:100860004D0180915B030E944D0180915D030E94C8
:100870004D0161E080915D030E946C01D0935A03A9
:10088000C0935903E9E1F3E0119283E0E935F807F9
:10089000D9F7D0E0C0E080915F0390916003C81762
:1008A000D90774F540E06FE0CE010E941D028091EF
:1008B0005F0390916003C817D9072CF447E06BE001
:1008C000CE010E941D0240E069E0CE010E941D029F
:1008D00080915F0390916003C817D9071CF4CE0183
:1008E0000E947B0280915F0390916003C817D90733
:1008F0002CF440E06CE0CE010E941D022196CBCF8B
:100900008FB7F89440910103509102036091030363
:10091000709104038FBF8FB7F894409101035091F9
:10092000020360910303709104038FBFDF91CF91A5
:100930000895EE0FFF1F881F8BBF0790F691E02DE3
:060940001994F894FFCFAA
:10094600000000000000000000000100010001009E
:10095600010001000100000000000000000000008E
:10096600000000000000000000000100010001007E
:10097600010001000100000000000000000000006E
:10098600000001000000000000000100000001005E
:10099600010001000100000000000100010000004C
:1009A600000001000100010000000100000001003C
:1009B600010000000100000001000000000000002E
:1009C6000000000000000000000001000000000020
:1009D600010000000100000001000000000000000E
:1009E60000000000010000000000010000000000FF
:1009F60000000000010000000000010001000000EE
:100A060000000000000000000000010001000100DD
:100A160001000100010000000000000000000000CD
:100A260000000000000000000000010001000100BD
:100A360001000100010000000000000000000000AD
:00000001FF
