:100000000C9427010C9458010C9458010C9458013D
:100010000C9458010C9458010C9458010C945801FC
:100020000C9458010C9458010C9458010C945801EC
:100030000C9458010C9458010C9458010C945801DC
:100040000C9458010C9458010C9458010C945801CC
:100050000C9458010C9458010C9458010C947E0295
:100060000C9458010C9458010C9458010C945801AC
:100070000C9458010C9458010C9458010C9458019C
:100080000C9458010C9458010C9458010C9458018C
:100090000C9458010C9458010C9458010C9458017C
:1000A0000C9458010C9458010C9458010C9458016C
:1000B0000C9458010C9458010C9458010C9458015C
:1000C0000C9458010C9458010C9458010C9458014C
:1000D0000C9458010C9458010C9458010C9458013C
:1000E0000C9458010C9446050C9493010C948A01CD
:1000F0000C9482010C94AF010C9478010C94B8011B
:100100000C9497010C94B9010C94A5010C949D01D9
:100110000C94AB010C948D010C947E010C94BD01E8
:100120000C94A1010C94B3010C94860100002000F2
:100130002300260029002C002F00320000010000BF
:1001400003010601090100002100240027002A0004
:100150002D003000330001010000040107010A01F5
:1001600000002200250028002B002E003100340062
:1001700002010000050108010B0105050505070541
:1001800008080808020202020A0A08080404040413
:10019000010101010101010103030303030303033F
:1001A000040707070C0C0C0C0C0C0C0C02020202CE
:1001B00006060606060606060B0B0B0B0B0B0B0BB7
:1001C0000102102020080810204010204080020169
:1001D000020108040201010204081020408080404E
:1001E000201008040201800402018040201008044D
:1001F00002010804020101020408102040800102EB
:1002000004081020408000000A0B02090C0D0E08A3
:1002100007030401000000000000000000000000CF
:1002200000000000000000000000000000000000CE
:10023000000012111000000000000000000000008B
:10024000000000000000000000000000460511242E
:100250001FBECFEFD1E2DEBFCDBF00E00CBF12E08A
:10026000A0E0B2E0E8EBFBE000E00BBF02C00790CB
:100270000D92A430B107D9F722E0A4E0B2E001C0AA
:100280001D92A53FB207E1F711E0C7E2D1E000E01F
:1002900006C021970109802FFE010E94D205C632B7
:1002A000D10780E00807A9F70E94C8020C94DA057C
:1002B0000C9400008150823108F05AC0E82FF0E021
:1002C0008827EA59FE4F8F4F0C94D20586018A0188
:1002D00078017E018201B8018D01930197019D0192
:1002E000A101A501AB01AF01B801B301B901BD0185
:1002F000809180008F7780938000089580918000A6
:100300008F7DF9CF80918000877FF5CF84B58F777F
:1003100084BD089584B58F7DFBCF8091B0008F7729
:100320008093B00008958091B0008F7DF9CF8091C7
:1003300090008F77809390000895809190008F7D3A
:10034000F9CF80919000877FF5CF8091A0008F77C3
:100350008093A00008958091A0008F7DF9CF8091B7
:10036000A000877FF5CF809120018F7780932001B7
:100370000895809120018F7DF9CF80912001877FA2
:10038000F5CF1F93CF93DF93282F30E0F901EA5F79
:10039000FD4F8491F901E054FE4FD491F901E658E4
:1003A000FE4FC491CC23A9F0162F81110E945A014F
:1003B000EC2FF0E0EE0FFF1FE05AFE4FA591B49135
:1003C0008FB7F894EC91111108C0D095DE23DC931F
:1003D0008FBFDF91CF911F910895DE2BF8CFCF9380
:1003E000DF9390E0FC01E054FE4F249186589E4F2D
:1003F000FC0184918823D1F090E0880F991FFC01C3
:10040000EA5BFE4FA591B491FC01E05AFE4FC59105
:10041000D49161110EC09FB7F8948C91E22FE095B2
:100420008E238C932881E223E8839FBFDF91CF91B5
:1004300008958FB7F894EC91E22BEC938FBFF6CF31
:10044000CF92DF92EF92FF920F931F93CF93DF93A0
:100450001F921F92CDB7DEB769834A83880F991F19
:100460000091F3021091F402000F111FEDE9F2E088
:100470009F012D5932402017310714F41192F8CF03
:100480002981FC01E356FD4F21838A81808360E04E
:100490008091F1020E94C1011016110604F501506D
:1004A0001109F801E356FD4FE080D090EF02C090B3
:1004B000ED0288E0F82E6E2D661F6627661F8C2DD4
:1004C0000E94C101EE0C61E08D2D0E94C10160E02F
:1004D0008D2D0E94C101FA94F110EDCFDDCF61E0C6
:1004E0008091F1020F900F90DF91CF911F910F91AA
:1004F000FF90EF90DF90CF900C94C1011F920F926C
:100500000FB60F9211242F933F938F939F93AF9326
:10051000BF938091990290919A02A0919B02B09111
:100520009C023091980223E0230F2D3758F5019655
:10053000A11DB11D209398028093990290939A0275
:10054000A0939B02B0939C0280919402909195029B
:10055000A0919602B09197020196A11DB11D8093C2
:10056000940290939502A0939602B0939702BF9144
:10057000AF919F918F913F912F910F900FBE0F9050
:100580001F90189526E8230F0296A11DB11DD2CF0A
:10059000789484B5826084BD84B5816084BD85B55E
:1005A000826085BD85B5816085BD80916E0081606A
:1005B00080936E0010928100809181008260809310
:1005C0008100809181008160809381008091800012
:1005D0008160809380008091B10084608093B1003D
:1005E0008091B00081608093B00080919100826022
:1005F000809391008091910081608093910080911F
:1006000090008160809390008091A100826080932F
:10061000A1008091A10081608093A1008091A00041
:1006200081608093A00080912101826080932101EC
:10063000809121018160809321018091200181605E
:100640008093200180917A00846080937A00809169
:100650007A00826080937A0080917A008160809332
:100660007A0080917A00806880937A001092C100AD
:100670008091F3029091F4021816190634F441E0C7
:100680006CE090E080E00E9420028091F302909163
:10069000F4021816190634F448E06AE090E080E0AD
:1006A0000E942002CEE061E08C2F0E94EF01CF5F1C
:1006B000C631C9F761E08C2F0E94EF01CF5FCE31C8
:1006C000C9F7CEE061E08C2F0E94C101CF5FC63137
:1006D000C9F760E08C2F0E94C101CF5FCE31C9F70E
:1006E00060E08DE00E94EF011DEC412E11E0512EE3
:1006F00007E8602E01E0702E80E8E82EF12C93ECE4
:10070000C92ED12C2BE2A22E21E1B22EE3E1F2E0A0
:100710008491F201C491F301D49130E020E0DD2313
:1007200099F081110E945A01ED2FF0E0EE0FFF1FAA
:10073000E45DFE4FA591B4918C91C82391E080E0D7
:1007400009F490E0292F382F80918C0290918D022E
:1007500040918E0250918F02FC01B4E0EE0FFF1F1A
:10076000BA95E1F7EC5FFD4FE40FF51F1082FC0135
:10077000C4E0EE0FFF1FCA95E1F7EC5EFD4FE40FFA
:10078000F51F1082118212824FB7F894809199025E
:1007900090919A02A0919B02B0919C024FBF409110
:1007A0009002509191026091920270919302841B89
:1007B000950BA60BB70B86399105A105B10504F180
:1007C0004FB7F8948091990290919A02A0919B0260
:1007D000B0919C024FBF8093900290939102A0939E
:1007E0009202B093930280918E0290918F020196B3
:1007F0008031910509F42AC190938F0280938E0273
:1008000080918A0290918B028217930799F04FB7DB
:10081000F8948091990290919A02A0919B02B091D4
:100820009C024FBF8093860290938702A093880218
:10083000B09389024FB7F8948091990290919A02EF
:10084000A0919B02B0919C024FBF409186025091B3
:1008500087026091880270918902841B950BA60B18
:10086000B70BC0918C02D0918D0240918E025091B5
:100870008F02C397A105B10580F160918402709148
:1008800085026217730749F16091020270910302B9
:10089000309385022093840221303105F1F4E091F8
:1008A0000002F09101023196C1F46F3F7F4FA9F42D
:1008B0005093010240930002FE013296F09303022E
:1008C000E0930202A4E0EE0FFF1FAA95E1F7EC5FB0
:1008D000FD4FE40FF51F61E0608330938B0220939E
:1008E0008A02FE0164E0EE0FFF1F6A95E1F7EC5FFC
:1008F000FD4FE40FF51F61E06083FE0174E0EE0F31
:10090000FF1F7A95E1F7EC5EFD4FE40FF51F608362
:100910006183628380910202909103028F3F980766
:1009200019F12091000230910102FC0154E0EE0F18
:10093000FF1F5A95E1F7EC5FFD4FE20FF31F1082A6
:10094000873091050CF090C001969093030280933C
:10095000020244E0880F991F4A95E1F78C5F9D4F92
:10096000FC01E20FF31F6083CDE9D2E024E0822E88
:1009700022E0922E3324339410E000E08091F302C1
:100980009091F40218161906BCF4C701002E02C09B
:10099000959587950A94E2F72889F401E00FF11FF5
:1009A0003081313009F06BC0822B888B4889632DF0
:1009B00090E080E00E9420020F5F1F4F0830110579
:1009C000E9F62196339420E1820E911C89E03812D9
:1009D000D3CF03E010E084E0882E82E0982E9EE0E2
:1009E000392EC8E0D0E0F401EC0FFD1F808181308A
:1009F00009F048C060E0832D0E94C10161E02C2E07
:100A0000EEE02E0E822D0E94C101C5010197F1F783
:100A100061E0832D0E94C10160E0822D0E94C1012E
:100A20002196C031D105F9F63394F0E18F0E911C77
:100A300026E13212D6CF0150110969F680E090E02C
:100A4000892B09F463CE0E94000060CE10928F02C1
:100A500010928E0280918C0290918D02019690935B
:100A60008D0280938C02CCCE8FEF9FEF909301028A
:100A700080930002909303028093020275CF8095C9
:100A8000822393CFC6010197F1F7CACFEF92FF926D
:100A90001F93CF93DF93C7E0D0E0D093EE02C093D3
:100AA000ED0286E090E09093F0028093EF0285E003
:100AB00090E09093F2028093F10281E090E09093B5
:100AC000F4028093F30261E087E00E94EF0161E0AD
:100AD0008091EF020E94EF0161E08091F1020E949B
:100AE000EF0161E08091F1020E94C101D093EE021A
:100AF000C093ED02EDEAF2E0119222E0ED3EF20742
:100B0000D9F7D0E0C0E08091F3029091F402C817C9
:100B1000D9070CF041C040E06FE0CE010E942002F6
:100B20008091F3029091F402C817D9072CF447E0A2
:100B30006BE0CE010E94200240E069E0CE010E94FD
:100B400020028091F3029091F402C817D907B4F4FF
:100B5000CE0123E0880F991F2A95E1F7FC01E355A8
:100B6000FD4F7F0111E0F70111927F0140E0612FFD
:100B7000CE010E9420021F5F1930A9F78091F30275
:100B80009091F402C817D9072CF440E06CE0CE0134
:100B90000E9420022196B7CFDF91CF911F91FF9045
:100BA000EF900895EE0FFF1F881F8BBF0790F691FF
:080BB000E02D1994F894FFCF29
:040BB800FFFFFFFF3D
:00000001FF
