:100000000C941A010C944B010C944B010C944B0171
:100010000C944B010C944B010C944B010C944B0130
:100020000C944B010C944B010C944B010C944B0120
:100030000C944B010C944B010C944B010C944B0110
:100040000C944B010C944B010C944B010C944B0100
:100050000C944B010C944B010C944B010C945602E4
:100060000C944B010C944B010C944B010C944B01E0
:100070000C944B010C944B010C944B010C944B01D0
:100080000C944B010C944B010C944B010C944B01C0
:100090000C944B010C944B010C944B010C944B01B0
:1000A0000C944B010C944B010C944B010C944B01A0
:1000B0000C944B010C944B010C944B010C944B0190
:1000C0000C944B010C944B010C944B010C944B0180
:1000D0000C944B010C944B010C944B010C944B0170
:1000E0000C944B010C94F2010C94D2010C94DA01A3
:1000F0000C94A1010C94BB010C94EE010C94E8014A
:100100000C94CC010C94B7010C94E0010C94C20146
:100110000C949C010C94D6010C94E4010C94BF0146
:100120000C94B3010C9495030C94C80100000A0BC5
:1001300002090C0D0E080703040100000000000076
:1001400000000000000000000000000000000000AF
:10015000000000000000000012111000000000006C
:10016000000000000000000000000000000000008F
:10017000000000002200250028002B002E00310086
:10018000340002010000050108010B0100002100FC
:10019000240027002A002D00300033000101000058
:1001A000040107010A0105050505070508080808F7
:1001B000020202020A0A08080404040401010101FF
:1001C00001010101030303030303030304070707FA
:1001D0000C0C0C0C0C0C0C0C02020202060606069F
:1001E000060606060B0B0B0B0B0B0B0B010210206C
:1001F000200808102040102040800201020108045D
:1002000002010102040810204080804020100804F0
:100210000201800402018040201008040201080449
:10022000020101020408102040800102040810208D
:100230004080950311241FBECFEFD1E2DEBFCDBFBA
:1002400000E00CBF12E0A0E0B2E0E0E5F8E000E082
:100250000BBF02C007900D92A034B107D9F722E07E
:10026000A0E4B2E001C01D92A13AB207E1F711E0AB
:10027000CAE1D1E000E006C021970109802FFE010C
:100280000E941E04C931D10780E00807A9F70E9427
:10029000A0020C9426040C94000090E0FC01E451B0
:1002A000FE4F24918A559E4FFC018491882399F03A
:1002B00090E0880F991FFC01E457FE4FA591B4917F
:1002C000FC01EE58FE4F859194918FB7F894EC9114
:1002D000E22BEC938FBF0895282F30E0F901E45D05
:1002E000FE4F9491F901E451FE4F44912A553E4F3F
:1002F000F9012491222309F435C0992311F1915079
:100300009231F8F4E92FF0E08827E657FE4F8F4F3F
:100310000C941E04BB01BF019C01B301B701A101F4
:10032000C201C801CC01D201D601DA01E001E40129
:10033000A101E801EE01F201809180008F778093A6
:100340008000E22FF0E0EE0FFF1FEE58FE4FA59168
:10035000B4918FB7F894EC91611148C040954E2349
:100360004C938FBF0895809180008F7DE8CF80915E
:100370008000877FE4CF84B58F7784BDE2CF84B5DA
:100380008F7DFBCF8091B0008F778093B000D9CF65
:100390008091B0008F7DF9CF809190008F7780930E
:1003A0009000CFCF809190008F7DF9CF8091900009
:1003B000877FF5CF8091A0008F778093A000C1CF79
:1003C0008091A0008F7DF9CF8091A000877FF5CF2D
:1003D000809120018F7780932001B3CF80912001FD
:1003E0008F7DF9CF80912001877FF5CF4E2BB8CF3D
:1003F000CF92DF92EF92FF920F931F93CF93DF93F1
:100400001F921F92CDB7DEB769834A83880F991F69
:1004100000919F021091A002000F111FE9E4F2E089
:100420009F01295432402017310714F41192F8CF5C
:100430002981FC01E75BFD4F21838A81808360E095
:1004400080919D020E946C011016110604F5015066
:100450001109F801E75BFD4FE080D0909B02C0904E
:10046000990288E0F82E6E2D661F6627661F8C2D78
:100470000E946C01EE0C61E08D2D0E946C0160E029
:100480008D2D0E946C01FA94F110EDCFDDCF61E06B
:1004900080919D020F900F90DF91CF911F910F914E
:1004A000FF90EF90DF90CF900C946C011F920F9211
:1004B0000FB60F9211242F933F938F939F93AF9377
:1004C000BF938091450290914602A0914702B0915E
:1004D00048023091440223E0230F2D3758F501964E
:1004E000A11DB11D209344028093450290934602C2
:1004F000A0934702B093480280914002909141023C
:10050000A0914202B09143020196A11DB11D8093BA
:10051000400290934102A0934202B0934302BF91E4
:10052000AF919F918F913F912F910F900FBE0F90A0
:100530001F90189526E8230F0296A11DB11DD2CF5A
:10054000789484B5826084BD84B5816084BD85B5AE
:10055000826085BD85B5816085BD80916E008160BA
:1005600080936E0010928100809181008260809360
:100570008100809181008160809381008091800062
:100580008160809380008091B10084608093B1008D
:100590008091B00081608093B00080919100826072
:1005A000809391008091910081608093910080916F
:1005B00090008160809390008091A1008260809380
:1005C000A1008091A10081608093A1008091A00092
:1005D00081608093A000809121018260809321013D
:1005E00080912101816080932101809120018160AF
:1005F0008093200180917A00846080937A008091BA
:100600007A00826080937A0080917A008160809382
:100610007A0080917A00806880937A001092C100FD
:1006200080919F029091A0021816190634F441E0BF
:100630006CE090E080E00E94F80180919F02909130
:10064000A0021816190634F448E06AE090E080E051
:100650000E94F801CEE08C2F0E944D01CF5FC63181
:10066000D1F78C2F0E944D01CF5FCE31D1F7CEE074
:1006700061E08C2F0E946C01CF5FC631C9F760E04A
:100680008C2F0E946C01CF5FCE31C9F789E4682EB0
:1006900082E0782E98E0E92EF12C20E8C22ED12CB1
:1006A00039E0532E40E0A42E40E0B42E00E012E0EA
:1006B000F801828093808114910459F1D0E0C0E068
:1006C0008C169D0634F180919F029091A00218161D
:1006D0001906ECF4C7018C1B9D0B0897C0F4F801B8
:1006E000808191818830910590F4960102C0359502
:1006F00027958A95E2F7F301EC1BFD0B408D422B09
:10070000408F652D6C1B90E080E00E94F8012196DF
:10071000D7CF0C5F1F4F82E00034180749F6A114B1
:10072000B10421F20E940000C1CFEF92FF921F930B
:10073000CF93DF93C7E0D0E0D0939A02C0939902A1
:1007400086E090E090939C0280939B0285E090E08D
:1007500090939E0280939D0281E090E09093A0028E
:1007600080939F0287E00E944D0180919B020E942E
:100770004D0180919D020E944D0161E080919D029A
:100780000E946C01D0939A02C0939902E9E5F2E0CD
:10079000119222E0E939F207D9F7D0E0C0E0809168
:1007A0009F029091A002C817D9070CF041C040E009
:1007B0006FE0CE010E94F80180919F029091A0020B
:1007C000C817D9072CF447E06BE0CE010E94F8016E
:1007D00040E069E0CE010E94F80180919F02909173
:1007E000A002C817D907B4F4CE0123E0880F991FDF
:1007F0002A95E1F7FC01E75AFD4F7F0111E0F7016F
:1008000011927F0140E0612FCE010E94F8011F5F2D
:100810001930A9F780919F029091A002C817D907BB
:100820002CF440E06CE0CE010E94F8012196B7CF95
:10083000DF91CF911F91FF90EF900895EE0FFF1F72
:10084000881F8BBF0790F691E02D1994F894FFCF85
:1008500000000300040003000A0003000000000081
:100860000000000000000000000000000000000088
:100870000000000000000000000000000000000078
:100880000000000000000000000000000000000068
:00000001FF
