:100000000C941A010C944B010C944B010C944B0171
:100010000C944B010C944B010C944B010C944B0130
:100020000C944B010C944B010C944B010C944B0120
:100030000C944B010C944B010C944B010C944B0110
:100040000C944B010C944B010C944B010C944B0100
:100050000C944B010C944B010C944B010C942F020B
:100060000C944B010C944B010C944B010C944B01E0
:100070000C944B010C944B010C944B010C944B01D0
:100080000C944B010C944B010C944B010C944B01C0
:100090000C944B010C944B010C944B010C944B01B0
:1000A0000C944B010C944B010C944B010C944B01A0
:1000B0000C944B010C944B010C944B010C944B0190
:1000C0000C944B010C944B010C944B010C944B0180
:1000D0000C944B010C944B010C944B010C944B0170
:1000E0000C944B010C9482010C94B7010C94940174
:1000F0000C94A0010C94BB010C9498010C949C01ED
:100100000C94D3010C94A3010C94C5010C94AD0183
:100110000C9445030C94C9010C94C1010C947D010D
:100120000C94A9010C94B3010C94CF0100002100A0
:10013000240027002A002D003000330001010000B8
:10014000040107010A0100002200250028002B00FD
:100150002E003100340002010000050108010B01EE
:1001600005050505070508080808020202020A0A33
:100170000808040404040101010101010101030351
:10018000030303030303040707070C0C0C0C0C0CFC
:100190000C0C0202020206060606060606060B0BF9
:1001A0000B0B0B0B0B0B010210202008081020403A
:1001B000102040800201020108040201010204082B
:1001C00010204080804020100804020180040201B9
:1001D0008040201008040201080402010102040802
:1001E00010204080010204081020408000000A0B0B
:1001F00002090C0D0E0807030401000000000000B6
:1002000000000000000000000000000000000000EE
:1002100000000000000000001211100000000000AB
:1002200000000000000000000000000000000000CE
:100230000000450311241FBECFEFD1E2DEBFCDBFCA
:1002400000E00CBF13E0A0E0B2E0ECECF6E000E070
:100250000BBF02C007900D92A030B107D9F723E081
:10026000A0E0B3E001C01D92A930B207E1F711E0B0
:10027000CAE1D1E000E006C021970109802FFE010C
:100280000E945C03C931D10780E00807A9F70E94EA
:1002900079020C9464030C940000282F30E0F901DB
:1002A000E451FE4F9491F901EA55FE4F4491205AD2
:1002B0003E4FF9012491222309F435C0992311F10D
:1002C00091509231F8F4E92FF0E08827E559FE4F7C
:1002D0008F4F0C945C039C01A0017D019401980157
:1002E0008201A301A901AD01B301B701BB01C101A5
:1002F000C5018201C901CF01D301809180008F77B0
:1003000080938000E22FF0E0EE0FFF1FEA5BFE4FCC
:10031000A591B4918FB7F894EC91611148C04095C4
:100320004E234C938FBF0895809180008F7DE8CF3E
:1003300080918000877FE4CF84B58F7784BDE2CF42
:1003400084B58F7DFBCF8091B0008F778093B00014
:10035000D9CF8091B0008F7DF9CF809190008F77B9
:1003600080939000CFCF809190008F7DF9CF8091C6
:100370009000877FF5CF8091A0008F778093A000B9
:10038000C1CF8091A0008F7DF9CF8091A000877FA1
:10039000F5CF809120018F7780932001B3CF80919A
:1003A00020018F7DF9CF80912001877FF5CF4E2BE3
:1003B000B8CFCF93DF9390E0FC01EA55FE4F249134
:1003C000805A9E4FFC0184918823D1F090E0880FE1
:1003D000991FFC01E45DFE4FA591B491FC01EA5B1D
:1003E000FE4FC591D49161110EC09FB7F8948C91C6
:1003F000E22FE0958E238C932881E223E8839FBF30
:10040000DF91CF9108958FB7F894EC91E22BEC93A4
:100410008FBFF6CF3FB7F894809105039091060304
:10042000A0910703B091080326B5A89B05C02F3FF4
:1004300019F00196A11DB11D3FBFBA2FA92F982F0A
:100440008827BC01CD01620F711D811D911D42E005
:10045000660F771F881F991F4A95D1F708951F923D
:100460000F920FB60F9211242F933F938F939F9368
:10047000AF93BF938091010390910203A091030376
:10048000B09104033091000323E0230F2D3758F57A
:100490000196A11DB11D2093000380930103909349
:1004A0000203A0930303B09304038091050390918A
:1004B0000603A0910703B09108030196A11DB11D89
:1004C0008093050390930603A0930703B09308035A
:1004D000BF91AF919F918F913F912F910F900FBE40
:1004E0000F901F90189526E8230F0296A11DB11DAD
:1004F000D2CF789484B5826084BD84B5816084BD98
:1005000085B5826085BD85B5816085BD80916E00B1
:10051000816080936E0010928100809181008260E2
:10052000809381008091810081608093810080911F
:1005300080008160809380008091B100846080930E
:10054000B1008091B00081608093B00080919100F3
:1005500082608093910080919100816080939100EE
:10056000809190008160809390008091A1008260D2
:100570008093A1008091A10081608093A10080916F
:10058000A00081608093A00080912101826080930F
:1005900021018091210181608093210180912001BE
:1005A00081608093200180917A00846080937A003A
:1005B00080917A00826080937A0080917A008160D5
:1005C00080937A0080917A00806880937A001092FC
:1005D000C100C0E061E08C2F0E94D901CF5FC8301C
:1005E000C9F7CEE061E08C2F0E94D901CF5FC63100
:1005F000C9F7C0E061E08C2F0E94D901CF5FC830FD
:10060000C9F7CEE060E08C2F0E94D901CF5FC631E0
:10061000C9F780E0C82E80E0D82E00E012E0C0E0EC
:100620007801DEE0F701819191917F010197F9F462
:1006300060E08C2F0E944D0161E08D2F0E944D01E2
:100640000E940A024B015C010E940A0268197909A2
:100650008A099B09683E734081059105A8F361E012
:100660008C2F0E944D0160E08D2F0E944D01DF5FB5
:10067000D631C1F6005E1F4FCF5FC83089F6C11476
:10068000D10459F20E940000C8CF8FB7F89440916E
:1006900001035091020360910303709104038FBF23
:1006A0008FB7F894409101035091020360910303C6
:1006B000709104038FBF0895EE0FFF1F881F8BBF3B
:0C06C0000790F691E02D1994F894FFCFFC
:1006CC00000000000000000000000000000000001E
:1006DC00000000000000000000000000000000000E
:1006EC0000000000000000000000000000000000FE
:1006FC0001000000000000000000000000000000ED
:10070C0000000000000000000000000000000100DC
:10071C0001000000000000000000000000000000CC
:10072C0000000000000000000000000001000000BC
:10073C0001000000000000000000000000000000AC
:10074C00000000000000000000000000000000009D
:10075C00010000000000000000000000000000008C
:10076C00000000000000000000000000000000007D
:10077C00010000000000000000000000000000006C
:10078C00000000000000000000000000000000005D
:10079C00010000000000000000000000000000004C
:1007AC00000000000000000000000000000000003D
:1007BC00000000000000000000000000000000002D
:00000001FF
