:100000000C9435010C9466010C9466010C94660105
:100010000C9466010C9466010C9466010C946601C4
:100020000C9466010C9466010C9466010C946601B4
:100030000C9466010C9466010C9466010C946601A4
:100040000C9466010C9466010C9466010C94660194
:100050000C9466010C9466010C9466010C944D049A
:100060000C9466010C94C1040C9497040C946601E2
:100070000C9466010C9466010C9466010C94660164
:100080000C9466010C9466010C9466010C94660154
:100090000C9466010C9466010C9466010C94660144
:1000A0000C9466010C9466010C9466010C94660134
:1000B0000C9466010C9466010C9466010C94660124
:1000C0000C9466010C9466010C9466010C94660114
:1000D0000C9466010C9466010C9466010C94660104
:1000E0000C9466010C9486010C94F7040C94A10105
:1000F0000C948C010C9490010C94B9010C94B301F4
:100100000C94A6020C9497020C94BA020C94C601AB
:100110000C94C1010C94AF010C9400030C94CB011E
:100120000C94BD010C949B010C94A5010C946A02E3
:100130000C94AB010C94C7010C944D030C94C802B1
:100140000C9498010C9494010000200023002600D8
:1001500029002C002F0032000001000003010601DD
:10016000090100002100240027002A002D00300092
:10017000330001010000040107010A010000220010
:10018000250028002B002E00310034000201000061
:10019000050108010B010505050507050808080804
:1001A000020202020A0A080804040404010101010F
:1001B000010101010303030303030303040707070A
:1001C0000C0C0C0C0C0C0C0C0202020206060606AF
:1001D000060606060B0B0B0B0B0B0B0B010210207C
:1001E000200808102040102040800201020108046D
:1001F0000201010204081020408080402010080401
:100200000201800402018040201008040201080459
:10021000020101020408102040800102040810209D
:10022000408000000A0B02090C0D0E0807030401B0
:1002300000000000000000000000000000000000BE
:10024000000000000000000000000000000012118B
:10025000100000000000000000000000000000008E
:100260000000000000000000F70411241FBECFEFC3
:10027000D1E2DEBFCDBF00E00CBF12E0A0E0B2E0F3
:10028000ECE9FBE100E00BBF02C007900D92A23742
:10029000B107D9F724E0A2E7B2E001C01D92A8306F
:1002A000B207E1F711E0C5E3D1E000E006C0219715
:1002B0000109802FFE010E94C40DC433D10780E0E4
:1002C0000807A9F70E94C5050C94CC0D0C940000FA
:1002D0008150823108F05AC0E82FF0E08827EC58AE
:1002E000FE4F8F4F0C94C40D9401980186018C0130
:1002F0009001C6019B01A101A501AB01AF01B301B2
:10030000B901BD01C601C101C701CB0180918000C7
:100310008F77809380000895809180008F7DF9CF42
:1003200080918000877FF5CF84B58F7784BD089555
:1003300084B58F7DFBCF8091B0008F778093B00024
:1003400008958091B0008F7DF9CF809190008F77D4
:10035000809390000895809190008F7DF9CF8091D7
:100360009000877FF5CF8091A0008F778093A000C9
:1003700008958091A0008F7DF9CF8091A000877FA4
:10038000F5CF809120018F7780932001089580918F
:1003900020018F7DF9CF80912001877FF5CF1F93BA
:1003A000CF93DF93282F30E0F901EE5DFD4F84916C
:1003B000F901E452FE4FD491F901EA56FE4FC4917F
:1003C000CC23A9F0162F81110E946801EC2FF0E0D8
:1003D000EE0FFF1FE458FE4FA591B4918FB7F8942C
:1003E000EC91111108C0D095DE23DC938FBFDF9113
:1003F000CF911F910895DE2BF8CFCF93DF9390E03C
:10040000FC01E452FE4F24918A569E4FFC018491D8
:100410008823D1F090E0880F991FFC01EE59FE4F20
:10042000A591B491FC01E458FE4FC591D49161119E
:100430000EC09FB7F8948C91E22FE0958E238C9399
:100440002881E223E8839FBFDF91CF9108958FB782
:10045000F894EC91E22BEC938FBFF6CF90917B0058
:10046000977F90937B008653806480937C0080917B
:100470007A00806480937A0080917A0086FDFCCFB8
:10048000809178009091790008953FB7F894809119
:100490000F0390911003A0911103B091120326B5A0
:1004A000A89B05C02F3F19F00196A11DB11D3FBFAC
:1004B000BA2FA92F982F8827BC01CD01620F711D7B
:1004C000811D911D42E0660F771F881F991F4A9575
:1004D000D1F70895AF92BF92CF92DF92EF92FF9241
:1004E0000F931F93CF93DF936C017B018B01040F5C
:1004F000151FEB015E01AE18BF08C017D10759F0F8
:100500006991D601ED91FC910190F081E02DC60139
:100510001995892B79F7C501DF91CF911F910F9123
:10052000FF90EF90DF90CF90BF90AF900895FC01C7
:10053000538D448D252F30E0842F90E0821B930B48
:10054000541710F0CF96089501970895FC01918DEE
:10055000828D981761F0A28DAE0FBF2FB11D5D96F1
:100560008C91928D9F5F9F73928F90E008958FEF93
:100570009FEF0895FC01918D828D981731F0828D47
:10058000E80FF11D858D90E008958FEF9FEF08959E
:10059000FC01918D228D892F90E0805C9F4F821B02
:1005A00091098F739927089583E193E00E94C8020F
:1005B00021E0892B09F420E0822F0895FC01A48D0D
:1005C000A80FB92FB11DA35ABF4F2C91848D90E075
:1005D00001968F739927848FA689B7892C93A08958
:1005E000B1898C91837080648C93938D848D9813E2
:1005F00006C00288F389E02D80818F7D8083089575
:10060000EF92FF920F931F93CF93DF93EC0181E062
:10061000888F9B8D8C8D98131AC0E889F989808109
:1006200085FF15C09FB7F894EE89FF896083E8893C
:10063000F98980818370806480839FBF81E090E02E
:10064000DF91CF911F910F91FF90EF900895F62EBB
:100650000B8D10E00F5F1F4F0F731127E02E8C8D55
:100660008E110CC00FB607FCFACFE889F98980819A
:1006700085FFF5CFCE010E94DE02F1CFEB8DEC0FAE
:10068000FD2FF11DE35AFF4FF0829FB7F8940B8FB7
:10069000EA89FB8980818062CFCFCF93DF93EC0121
:1006A000888D8823B9F0AA89BB89E889F9898C915A
:1006B00085FD03C0808186FD0DC00FB607FCF7CF16
:1006C0008C9185FFF2CF808185FFEDCFCE010E9416
:1006D000DE02E9CFDF91CF91089580E090E0892B91
:1006E00029F00E94D40281110E94000080E090E075
:1006F000892B49F080E090E0892B29F00E940000CE
:1007000081110E94000080E090E0892B49F080E098
:1007100090E0892B29F00E94000081110E940000C6
:1007200080E090E0892B49F080E090E0892B29F06F
:100730000E94000081110C9400000895CF92DF9276
:10074000EF92FF920F931F93CF93DF931F921F920D
:10075000CDB7DEB769834A83880F991F00910604DD
:1007600010910704000F111FE0EBF3E09F01205BE5
:1007700033402017310714F41192F8CF2981FC017E
:10078000E055FC4F21838A81808360E080910404DE
:100790000E94CF011016110604F501501109F8014D
:1007A000E055FC4FE080D0900204C090000488E047
:1007B000F82E6E2D661F6627661F8C2D0E94CF01B6
:1007C000EE0C61E08D2D0E94CF0160E08D2D0E9426
:1007D000CF01FA94F110EDCFDDCF61E080910404F8
:1007E0000F900F90DF91CF911F910F91FF90EF909D
:1007F000DF90CF900C94CF01FC0101900020E9F72D
:100800003197AF01481B590BBC0183E193E00C9475
:100810006A028F929F92AF92BF920F931F93CF93D2
:10082000DF93CDB7DEB7A1970FB6F894DEBF0FBE4A
:10083000CDBF19A2423008F44AE08E010F5D1F4F70
:10084000842E912CB12CA12CA50194010E945F0B48
:10085000E62FB901CA01EA30F4F4E05DD801EE9365
:100860008D01232B242B252B79F790E080E0109726
:1008700019F0CD010E94FC03A1960FB6F894DEBFDB
:100880000FBECDBFDF91CF911F910F91BF90AF9061
:100890009F908F900895E95CE1CF1F920F920FB661
:1008A0000F9211242F933F938F939F93AF93BF93F6
:1008B00080910B0390910C03A0910D03B0910E0356
:1008C00030910A0323E0230F2D3758F50196A11D1F
:1008D000B11D20930A0380930B0390930C03A09304
:1008E0000D03B0930E0380910F0390911003A0911C
:1008F0001103B09112030196A11DB11D80930F0346
:1009000090931003A0931103B0931203BF91AF9182
:100910009F918F913F912F910F900FBE0F901F903D
:10092000189526E8230F0296A11DB11DD2CF1F9264
:100930000F920FB60F9211240BB60F922F933F9385
:100940004F935F936F937F938F939F93AF93BF93D7
:10095000EF93FF9383E193E00E94DE02FF91EF911A
:10096000BF91AF919F918F917F916F915F914F91C7
:100970003F912F910F900BBE0F900FBE0F901F90C5
:1009800018951F920F920FB60F9211240BB60F926B
:100990002F938F939F93EF93FF93E0912303F09115
:1009A00024038081E0912903F0912A0382FD1DC078
:1009B000908180912C038F5F8F7320912D0382177C
:1009C00041F0E0912C03F0E0ED5EFC4F958F8093B9
:1009D0002C03FF91EF919F918F912F910F900BBE60
:1009E0000F900FBE0F901F9018958081F2CFEF925D
:1009F000FF921F93CF93DF9310921603109215036B
:100A000088EE93E0A0E0B0E0809317039093180382
:100A1000A0931903B0931A0384E592E09093140312
:100A20008093130385EC90E09093200380931F0341
:100A300084EC90E0909322038093210380EC90E07B
:100A4000909324038093230381EC90E090932603FA
:100A50008093250382EC90E09093280380932703F2
:100A600086EC90E090932A038093290310922C0344
:100A700010922D0310922E0310922F03C7E0D0E0A6
:100A8000D0930104C093000486E090E090930304A7
:100A90008093020485E090E0909305048093040421
:100AA00081E090E0909307048093060461E087E082
:100AB0000E94FD0161E0809102040E94FD0161E05D
:100AC000809104040E94FD0161E0809104040E9471
:100AD000CF01D0930104C0930004E0ECF3E0119245
:100AE00024E0E030F207D9F7D0E0C0E080910604BE
:100AF00090910704C817D9070CF041C040E06FE09F
:100B0000CE010E949E038091060490910704C817AD
:100B1000D9072CF447E06BE0CE010E949E0340E031
:100B200069E0CE010E949E03809106049091070423
:100B3000C817D907B4F4CE0123E0880F991F2A956E
:100B4000E1F7FC01E054FC4F7F0111E0F701119245
:100B50007F0140E0612FCE010E949E031F5F19308C
:100B6000A9F78091060490910704C817D9072CF4BF
:100B700040E06CE0CE010E949E032196B7CFDF914A
:100B8000CF911F91FF90EF900895789484B5826083
:100B900084BD84B5816084BD85B5826085BD85B521
:100BA000816085BD80916E00816080936E0010929F
:100BB000810080918100826080938100809181001A
:100BC00081608093810080918000816080938000AB
:100BD0008091B10084608093B1008091B000816009
:100BE0008093B00080919100826080939100809109
:100BF000910081608093910080919000816080934A
:100C000090008091A10082608093A1008091A1005A
:100C100081608093A1008091A00081608093A000FA
:100C20008091210182608093210180912101816066
:100C30008093210180912001816080932001809127
:100C40007A00846080937A0080917A008260809339
:100C50007A0080917A00816080937A0080917A0096
:100C6000806880937A001092C10080910604909170
:100C700007041816190634F441E06CE090E080E0B7
:100C80000E949E038091060490910704181619068D
:100C900034F448E06AE090E080E00E949E03CEE0F9
:100CA00061E08C2F0E94FD01CF5FC631C9F761E082
:100CB0008C2F0E94FD01CF5FCE31C9F7CEE061E0FD
:100CC0008C2F0E94CF01CF5FC631C9F760E08C2F17
:100CD0000E94CF01CF5FCE31C9F760E08DE00E9466
:100CE000FD0160E08CE00E94FD0160E08BE00E946D
:100CF000FD0160E08AE00E94FD013324339480917D
:100D0000080390910903892B09F0D4C0E0912303D3
:100D1000F091240382E08083E0911F03F09120038F
:100D20001082E0912103F09122038FEC80831092D6
:100D30002B03E0912703F091280386E08083E09164
:100D40002503F0912603808180618083E091250353
:100D5000F0912603808188608083E0912503F091E3
:100D60002603808180688083E0912503F09126032B
:100D700080818F7D808300E012E0E8016091740241
:100D800070917502072E000C880B990B0E949D0C28
:100D90002C813D814E815F810E94820B0E94650CF7
:100DA00070937502609374026B01770FEE08FF0871
:100DB0004AE0C701B601F7FE0DC06DE283E193E0A2
:100DC0000E94000366277727CB016C197D098E09E5
:100DD0009F094AE00E94090482E692E00E94FC0317
:100DE000609622E0C035D20749F660917402709196
:100DF0007502072E000C880B990B0E949D0C9B011D
:100E0000AC01F80164817581868197810E94F30BA2
:100E100020E030E048EC52E40E94520D6B017C016E
:100E200020E030E0A9010E944D0D18160CF0BCC264
:100E300020E030E040E551E4C701B6010E94EE0B2E
:100E400018160CF4B1C281E090E090937302809385
:100E500072026091720270917302072E000C880B6F
:100E6000990B0E949D0C6B017C014B015C01F80108
:100E7000C086D186E286F386AC019B010E94BF0D3D
:100E8000882309F437C385E692E00E94FC0382E6DA
:100E900092E00E94FC03005F1F4FC017D10709F0CA
:100EA000A4CF8091080390910903019690930903C0
:100EB0008093080386E30E942E02BC01990F880BE1
:100EC000990B53E0660F771F881F991F5A95D1F72A
:100ED00020E034E040E050E00E94400B30930703F4
:100EE0002093060387E30E942E02C0900802D09050
:100EF0000902E0900A02F0900B02C6E8D2E007E097
:100F000010E0B801012E000C880B990B0E949D0C7B
:100F1000A70196010E94EE0B87FD80C31982015044
:100F2000110960960F3F100761F7C6E8D2E007E0AD
:100F300010E0B801012E000C880B990B0E949D0C4B
:100F40009B01AC01C701B6010E944D0D18160CF4AF
:100F500067C31A820150110960960F3F100749F7C5
:100F6000C0901802D0901902E0901A02F0901B0273
:100F7000C6E8D2E007E010E0B801012E000C880BB3
:100F8000990B0E949D0CA70196010E94EE0B87FD14
:100F900049C31C820150110960960F3F100761F789
:100FA000C6E8D2E007E010E0B801012E000C880B83
:100FB000990B0E949D0C9B01AC01C701B6010E94D8
:100FC0004D0D18160CF430C31D82015011096096A6
:100FD0000F3F100749F7C0902802D0902902E090F7
:100FE0002A02F0902B02C6E8D2E007E010E0B80138
:100FF000012E000C880B990B0E949D0CA7019601F5
:101000000E94EE0B87FD12C31F82015011096096EA
:101010000F3F100761F7C6E8D2E007E010E0B80123
:10102000012E000C880B990B0E949D0CA7019601C4
:101030000E94EE0B87FDFCC21886015011096096D4
:101040000F3F100761F7C0903802D0903902E0904E
:101050003A02F0903B02C6E8D2E007E010E0B801A7
:10106000012E000C880B990B0E949D0C9B01AC017A
:10107000C701B6010E944D0D18160CF4DBC21A868A
:101080000150110960960F3F100749F7C6E8D2E0FA
:1010900007E010E0B801012E000C880B990B0E94AC
:1010A0009D0C9B01AC01C701B6010E944D0D1816A5
:1010B0000CF4C2C21B860150110960960F3F100745
:1010C00049F7C0904802D0904902E0904A02F0905F
:1010D0004B02C6E8D2E007E010E0B801012E000C98
:1010E000880B990B0E949D0C9B01AC01C701B601B6
:1010F0000E944D0D18160CF4A1C21D860150110955
:1011000060960F3F100749F7C6E8D2E007E010E00D
:10111000B801012E000C880B990B0E949D0C9B01BD
:10112000AC01C701B6010E944D0D18160CF488C21F
:101130001E860150110960960F3F100749F7ECE237
:10114000F2E08491E6EEF1E0C491E0EAF1E0D491BE
:10115000DD2309F477C281110E946801ED2FF0E0D0
:10116000EE0FFF1FE85BFE4FA591B491EC91CE23EB
:1011700091E080E009F490E0C92FD82F809184029B
:10118000909185028C179D0751F12FB7F8948091AB
:101190000B0390910C03A0910D03B0910E032FBF90
:1011A0008093800290938102A0938202B093830285
:1011B0002FB7C130D10509F048C2F89480910B03D4
:1011C00090910C03A0910D03B0910E032FBF80935B
:1011D0007C0290937D02A0937E02B0937F022FB792
:1011E000F89480910B0390910C03A0910D03B091A2
:1011F0000E032FBF409180025091810260918202C4
:1012000070918302841B950BA60BB70BC397A105A6
:10121000B10558F080917602909177028C179D0766
:1012200021F0D0937702C093760240917C025091D6
:101230007D0260917E0270917F0280917802909190
:101240007902A0917A02B0917B02481759076A0788
:101250007B07B9F12097A9F5841B950BA60BB70B5B
:10126000883B9B40A105B10560F140937802509303
:10127000790260937A0270937B020E9445026B01AF
:101280007C0134E6832E912CA12CB12C0E944502C6
:101290006C197D098E099F09683E7340810591058F
:1012A000A8F321E0821A9108A108B10888EEC80EBF
:1012B00083E0D81EE11CF11C81149104A104B10447
:1012C00029F7D0938502C0938402C0EBD3E026E8CF
:1012D000E22E22E0F22EDD24D39410E000E0809193
:1012E00006049091070418161906C4F480E890E0EB
:1012F000002E02C0959587950A94E2F72889F70198
:10130000E00FF11F3081313009F0B2C1822B888BA0
:1013100048896D2D90E080E00E949E030F5F1F4F73
:1013200008301105E1F62196D394F0E1EF0EF11C9F
:1013300029E0D212D2CF03E010E086E8E82E82E066
:10134000F82E9EE0D92EC8E0D0E0F701EC0FFD1F8B
:101350008081813009F08FC160E08D2D0E94CF0126
:1013600061E0CC2E8EE0C80E8C2D0E94CF018BE266
:1013700091E10197F1F761E08D2D0E94CF0160E0CE
:101380008C2D0E94CF012196C031D105F1F6D39466
:1013900090E1E90EF11CE6E1DE12D5CF0150110912
:1013A00061F60E946D03ABCC20E030E040E551E4F3
:1013B000C701B6010E944D0D18166CF420E030E014
:1013C00048EC51E4C701B6010E94EE0BE2E0F0E008
:1013D00018160CF08AC020E030E048EC51E4C70158
:1013E000B6010E944D0D18166CF420E030E048E183
:1013F00052E4C701B6010E94EE0B18161CF083E000
:1014000090E023CD20E030E048E152E4C701B6018E
:101410000E944D0D18166CF420E030E048E452E4D0
:10142000C701B6010E94EE0BE4E0F0E018160CF0E4
:101430005CC020E030E048E452E4C701B6010E94FD
:101440004D0D18166CF420E030E044E552E4C7017D
:10145000B6010E94EE0B18161CF085E090E0F5CC6A
:1014600020E030E044E552E4C701B6010E944D0D92
:10147000181664F420E030E046E952E4C701B601F2
:101480000E94EE0BE6E0F0E018167CF520E030E07C
:1014900046E952E4C701B6010E944D0D18166CF4DE
:1014A00020E030E040EB52E4C701B6010E94EE0BB1
:1014B00018161CF087E090E0C8CC20E030E040EB4C
:1014C00052E4C701B6010E944D0D18160CF0C1CCB4
:1014D00020E030E048EC52E4C701B6010E94EE0B78
:1014E00018160CF4B6CCE8E0F0E0F0937302E09349
:1014F0007202AFCC26013701E89477F82FEF3FEF67
:101500004FE75FE7C301B2010E94BF0D81110DC01B
:101510002FEF3FEF4FE75FE7C301B2010E94EE0BF1
:1015200018161CF489E692E0B0CC2FEF3FEF4FE79E
:101530005FE4C701B6010E944D0D18161CF48DE63C
:1015400092E0A3CC2FEF3FEF4FE75FECC701B6016E
:101550000E94EE0B87FDF3CF20E030E0A901C70128
:10156000B6010E94EE0B87FF0BC06DE283E193E0B2
:101570000E94000346015701B7FAB094B7F8B0943F
:101580002AE037ED43EA5BE3C501B4010E94820B18
:101590004B015C010E946C0C6B017C010E949B0C56
:1015A0009B01AC01C501B4010E94810B4B015C01A0
:1015B0004AE0C701B6010E9409046EE283E193E0AC
:1015C0000E94000320E030E040E251E4C501B40194
:1015D0000E94520D4B015C010E946C0C6B01F12CBE
:1015E000E12C4AE0C701B6010E940904C701B60117
:1015F0000E949B0C9B01AC01C501B4010E94810BB0
:1016000020E030E040E251E40E94520D0E946C0C58
:1016100090E080E04AE00E94090439CC39827FCC16
:101620003A8298CC3C82B6CC3D82CFCC3F82EDCC86
:10163000388603CD3A8624CD3B863DCD3D865ECDB2
:101640003E8677CDD0E0C0E099CDF89480910B0331
:1016500090910C03A0910D03B0910E032FBF8093C6
:10166000780290937902A0937A02B0937B02B7CD6F
:10167000809582234CCE83EC90E00197F1F783CEE6
:10168000052E97FB1EF400940E94570B57FD07D0C0
:101690000E945F0B07FC03D04EF40C94570B50953F
:1016A0004095309521953F4F4F4F5F4F089590954E
:1016B0008095709561957F4F8F4F9F4F0895A1E260
:1016C0001A2EAA1BBB1BFD010DC0AA1FBB1FEE1FBC
:1016D000FF1FA217B307E407F50720F0A21BB30B07
:1016E000E40BF50B661F771F881F991F1A9469F783
:1016F00060957095809590959B01AC01BD01CF01DF
:1017000008955058BB27AA270E94990B0C94130DDB
:101710000E94050D38F00E940C0D20F039F49F3F17
:1017200019F426F40C94020D0EF4E095E7FB0C94EA
:10173000FC0CE92F0E94240D58F3BA1762077307B7
:101740008407950720F079F4A6F50C94460D0EF465
:10175000E0950B2EBA2FA02D0B01B90190010C01C1
:10176000CA01A0011124FF27591B99F0593F50F4D9
:10177000503E68F11A16F040A22F232F342F442731
:10178000585FF3CF469537952795A795F040539529
:10179000C9F77EF41F16BA0B620B730B840BBAF0F9
:1017A0009150A1F0FF0FBB1F661F771F881FC2F764
:1017B0000EC0BA0F621F731F841F48F48795779578
:1017C0006795B795F7959E3F08F0B0CF9395880F32
:1017D00008F09927EE0F9795879508950E94D80CE9
:1017E00008F481E008950E94070C0C94130D0E94E8
:1017F0000C0D58F00E94050D40F029F45F3F29F0D0
:101800000C94FC0C51110C94470D0C94020D0E9489
:10181000240D68F39923B1F3552391F3951B550BD0
:10182000BB27AA2762177307840738F09F5F5F4FB3
:10183000220F331F441FAA1FA9F335D00E2E3AF0F2
:10184000E0E832D091505040E695001CCAF72BD00A
:10185000FE2F29D0660F771F881FBB1F261737075B
:101860004807AB07B0E809F0BB0B802DBF01FF278D
:1018700093585F4F3AF09E3F510578F00C94FC0C62
:101880000C94470D5F3FE4F3983ED4F3869577952B
:101890006795B795F7959F5FC9F7880F911D969546
:1018A000879597F90895E1E0660F771F881FBB1FA2
:1018B000621773078407BA0720F0621B730B840B4F
:1018C000BA0BEE1F88F7E09508950E946C0C68949F
:1018D000B1110C94470D08950E942C0D88F09F576C
:1018E00098F0B92F9927B751B0F0E1F0660F771F44
:1018F000881F991F1AF0BA95C9F714C0B13091F03A
:101900000E94460DB1E008950C94460D672F782F84
:101910008827B85F39F0B93FCCF3869577956795FE
:10192000B395D9F73EF490958095709561957F4F6A
:101930008F4F9F4F0895E89409C097FB3EF4909510
:101940008095709561957F4F8F4F9F4F9923A9F098
:10195000F92F96E9BB279395F69587957795679527
:10196000B795F111F8CFFAF4BB0F11F460FF1BC06B
:101970006F5F7F4F8F4F9F4F16C0882311F096E9FE
:1019800011C0772321F09EE8872F762F05C06623AC
:1019900071F096E8862F70E060E02AF09A95660F65
:1019A000771F881FDAF7880F9695879597F908951E
:1019B000990F0008550FAA0BE0E8FEEF1616170660
:1019C000E807F907C0F012161306E407F50798F0C8
:1019D000621B730B840B950B39F40A2661F0232BE1
:1019E000242B252B21F408950A2609F4A140A6955D
:1019F0008FEF811D811D089597F99F6780E870E042
:101A000060E008959FEF80EC089500240A94161674
:101A1000170618060906089500240A9412161306DC
:101A2000140605060895092E0394000C11F488236A
:101A300052F0BB0F40F4BF2B11F460FF04C06F5F86
:101A40007F4F8F4F9F4F089557FD9058440F551F5C
:101A500059F05F3F71F04795880F97FB991F61F030
:101A60009F3F79F087950895121613061406551FA7
:101A7000F2CF4695F1DF08C0161617061806991F13
:101A8000F1CF86957105610508940895E894BB2708
:101A900066277727CB0197F908950E94D80C08F4A0
:101AA0008FEF08950E94650D0C94130D0E94050D93
:101AB00038F00E940C0D20F0952311F00C94FC0CD2
:101AC0000C94020D11240C94470D0E94240D70F308
:101AD000959FC1F3950F50E0551F629FF001729FD3
:101AE000BB27F00DB11D639FAA27F00DB11DAA1FE2
:101AF000649F6627B00DA11D661F829F2227B00D2F
:101B0000A11D621F739FB00DA11D621F839FA00DB9
:101B1000611D221F749F3327A00D611D231F849F09
:101B2000600D211D822F762F6A2F11249F57504060
:101B30009AF0F1F088234AF0EE0FFF1FBB1F661FDB
:101B4000771F881F91505040A9F79E3F510580F0A4
:101B50000C94FC0C0C94470D5F3FE4F3983ED4F3D7
:101B6000869577956795B795F795E7959F5FC1F748
:101B7000FE2B880F911D9695879597F908950E94E1
:101B8000D80C880B990B0895EE0FFF1F881F8BBF91
:0C1B90000790F691E02D1994F894FFCF17
:101B9C000000803F000040400000000000000000FA
:101BAC000000004000008040000000000000000029
:101BBC00000040400000A0400000000000000000B9
:101BCC00000080400000C040000000000000000049
:101BDC000000A04000008040000000000000000059
:101BEC000000000000036A0297024D03C802A6021F
:101BFC00BA020D0A006E616E00696E66006F766641
:021C0C000000D6
:00000001FF
