:100000000C941A010C944B010C944B010C944B0171
:100010000C944B010C944B010C944B010C944B0130
:100020000C944B010C944B010C944B010C944B0120
:100030000C944B010C944B010C944B010C944B0110
:100040000C944B010C944B010C944B010C944B0100
:100050000C944B010C944B010C944B010C94EE024C
:100060000C944B010C944B010C944B010C944B01E0
:100070000C944B010C944B010C944B010C944B01D0
:100080000C944B010C944B010C944B010C944B01C0
:100090000C944B010C944B010C944B010C944B01B0
:1000A0000C944B010C944B010C944B010C944B01A0
:1000B0000C944B010C944B010C944B010C944B0190
:1000C0000C944B010C944B010C944B010C944B0180
:1000D0000C944B010C944B010C944B010C944B0170
:1000E0000C944B010C94BB010C94E4010C94D601CC
:1000F0000C94DA010C94C8010C94D2010C94A10167
:100100000C94C2010C94EE010C943F040C949C01DD
:100110000C94E8010C94CC010C94F2010C94B30102
:100120000C94E0010C94B7010C94BF0100000A0B81
:1001300002090C0D0E080703040100000000000076
:1001400000000000000000000000000000000000AF
:10015000000000000000000012111000000000006C
:10016000000000000000000000000000000000008F
:10017000000000002200250028002B002E00310086
:10018000340002010000050108010B0100002100FC
:10019000240027002A002D00300033000101000058
:1001A000040107010A0105050505070508080808F7
:1001B000020202020A0A08080404040401010101FF
:1001C00001010101030303030303030304070707FA
:1001D0000C0C0C0C0C0C0C0C02020202060606069F
:1001E000060606060B0B0B0B0B0B0B0B010210206C
:1001F000200808102040102040800201020108045D
:1002000002010102040810204080804020100804F0
:100210000201800402018040201008040201080449
:10022000020101020408102040800102040810208D
:1002300040803F0411241FBECFEFD1E2DEBFCDBF0F
:1002400000E00CBF13E0A0E0B2E0ECE9F9E000E070
:100250000BBF02C007900D92A030B107D9F723E081
:10026000A0E0B3E001C01D92A336B207E1F711E0B0
:10027000CAE1D1E000E006C021970109802FFE010C
:100280000E94C404C931D10780E00807A9F70E9481
:1002900038030C94CC040C94000090E0FC01E45171
:1002A000FE4F24918A559E4FFC018491882399F03A
:1002B00090E0880F991FFC01E457FE4FA591B4917F
:1002C000FC01EE58FE4F859194918FB7F894EC9114
:1002D000E22BEC938FBF0895282F30E0F901E45D05
:1002E000FE4F9491F901E451FE4F44912A553E4F3F
:1002F000F9012491222309F435C0992311F1915079
:100300009231F8F4E92FF0E08827E657FE4F8F4F3F
:100310000C94C404BB01BF019C01B301B701A1014E
:10032000C201C801CC01D201D601DA01E001E40129
:10033000A101E801EE01F201809180008F778093A6
:100340008000E22FF0E0EE0FFF1FEE58FE4FA59168
:10035000B4918FB7F894EC91611148C040954E2349
:100360004C938FBF0895809180008F7DE8CF80915E
:100370008000877FE4CF84B58F7784BDE2CF84B5DA
:100380008F7DFBCF8091B0008F778093B000D9CF65
:100390008091B0008F7DF9CF809190008F7780930E
:1003A0009000CFCF809190008F7DF9CF8091900009
:1003B000877FF5CF8091A0008F778093A000C1CF79
:1003C0008091A0008F7DF9CF8091A000877FF5CF2D
:1003D000809120018F7780932001B3CF80912001FD
:1003E0008F7DF9CF80912001877FF5CF4E2BB8CF3D
:1003F0003FB7F8948091070390910803A0910903F7
:10040000B0910A0326B5A89B05C02F3F19F00196AD
:10041000A11DB11D3FBFBA2FA92F982F8827BC015E
:10042000CD01620F711D811D911D42E0660F771F86
:10043000881F991F4A95D1F70895CF92DF92EF92C6
:10044000FF92CF93DF93D82FCEE0C60F60E08C2FC2
:100450000E946C01DA5E61E08D2F0E946C010E94A7
:10046000F8016B017C010E94F8016C197D098E096D
:100470009F09683E734081059105A8F361E08C2FC8
:100480000E946C0160E08D2FDF91CF91FF90EF9083
:10049000DF90CF900C946C01CF92DF92EF92FF929D
:1004A0000F931F93CF93DF931F921F92CDB7DEB7A9
:1004B00069834A83880F991F009161031091620339
:1004C000000F111FEBE0F3E09F012B50334020178A
:1004D000310714F41192F8CF2981FC01E55FFC4F3C
:1004E00021838A81808360E080915F030E946C0198
:1004F0001016110604F501501109F801E55FFC4FD3
:10050000E080D0905D03C0905B0388E0F82E6E2DF4
:10051000661F6627661F8C2D0E946C01EE0C61E041
:100520008D2D0E946C0160E08D2D0E946C01FA946B
:10053000F110EDCFDDCF61E080915F030F900F9060
:10054000DF91CF911F910F91FF90EF90DF90CF90AF
:100550000C946C01EF92FF920F931F93CF937C0149
:100560008C0183E0000F111F8A95E1F7055E1C4F97
:10057000C1E0F80111928F0140E06C2FC7010E9489
:100580004C02CF5FC930A9F7CF911F910F91FF9017
:10059000EF900895209161033091620312161306C3
:1005A000E4F488309105C9F020E830E002C03595C8
:1005B00027956A95E2F7FC01E55FFC4F50894423DB
:1005C00049F0252B208B61E0680F408990E080E0A6
:1005D0000C944C0220952523F5CF08951F920F927D
:1005E0000FB60F9211242F933F938F939F93AF9346
:1005F000BF938091030390910403A0910503B091F0
:1006000006033091020323E0230F2D3758F501969E
:10061000A11DB11D20930203809303039093040353
:10062000A0930503B09306038091070390910803FC
:10063000A0910903B0910A030196A11DB11D8093F9
:10064000070390930803A0930903B0930A03BF9193
:10065000AF919F918F913F912F910F900FBE0F906F
:100660001F90189526E8230F0296A11DB11DD2CF29
:10067000789484B5826084BD84B5816084BD85B57D
:10068000826085BD85B5816085BD80916E00816089
:1006900080936E001092810080918100826080932F
:1006A0008100809181008160809381008091800031
:1006B0008160809380008091B10084608093B1005C
:1006C0008091B00081608093B00080919100826041
:1006D000809391008091910081608093910080913E
:1006E00090008160809390008091A100826080934F
:1006F000A1008091A10081608093A1008091A00061
:1007000081608093A000809121018260809321010B
:10071000809121018160809321018091200181607D
:100720008093200180917A00846080937A00809188
:100730007A00826080937A0080917A008160809351
:100740007A0080917A00806880937A001092C100CC
:1007500080916103909162031816190634F441E008
:100760006CE090E080E00E944C02809161039091E7
:1007700062031816190634F448E06AE090E080E05D
:100780000E944C02CEE08C2F0E944D01CF5FC631FB
:10079000D1F78C2F0E944D01CF5FCE31D1F7CEE043
:1007A00061E08C2F0E946C01CF5FC631C9F760E019
:1007B0008C2F0E946C01CF5FCE31C9F72AE0E22E68
:1007C000F12C30E0C32E30E0D32EF0920103E09202
:1007D000000300E012E04801B12CA12CC8E0D0E0F9
:1007E000FE01EE0FFF1FE80DF91D41E080819181B0
:1007F000019709F040E0BE0168507109C5010E94EF
:10080000CA022196C031D10559F78FEFA81AB80A4C
:1008100080E2880E911C88E0A816B104F9F6B12C8C
:10082000A12CD0E0C0E0FE01EE0FFF1FE00FF11F92
:1008300080819181019721F4B501CE010E941D02B2
:100840002196C830D10579F78FEFA81AB80A005E53
:100850001F4F88E0A816B10421F7809161039091A1
:1008600062031816190624F490E080E00E94AA02A0
:10087000C114D10409F4A9CF0E940000A6CFCF93E0
:10088000DF93C7E0D0E0D0935C03C0935B0386E0C6
:1008900090E090935E0380935D0385E090E09093F9
:1008A000600380935F0381E090E090936203809304
:1008B000610387E00E944D0180915D030E944D011C
:1008C00080915F030E944D0161E080915F030E946F
:1008D0006C01D0935C03C0935B03EBE1F3E01192F6
:1008E00083E0EB35F807D9F7D0E0C0E080916103F1
:1008F00090916203C817D90774F540E06FE0CE010C
:100900000E944C028091610390916203C817D9073D
:100910002CF447E06BE0CE010E944C0240E069E01D
:10092000CE010E944C028091610390916203C8172E
:10093000D9071CF4CE010E94AA0280916103909114
:100940006203C817D9072CF440E06CE0CE010E9486
:100950004C022196CBCF8FB7F8944091030350916E
:10096000040360910503709106038FBF8FB7F8945D
:1009700040910303509104036091050370910603B5
:100980008FBFDF91CF910895EE0FFF1F881F8BBFA0
:0C0990000790F691E02D1994F894FFCF29
:10099C00000000000000000000000000000000004B
:1009AC00000000000000000000000000000000003B
:1009BC00000000000000000000000000010000002A
:1009CC000000010001000100000000000000000018
:1009DC000000000000000000000001000100000009
:1009EC0000000100000001000000000000000000F9
:1009FC0000000000000000000100000001000000E9
:100A0C0000000100000001000000000000000000D8
:100A1C0000000000000000000000000001000000C9
:100A2C0000000100000001000000000000000000B8
:100A3C0000000000000000000000000001000000A9
:100A4C000000010000000100000000000000000098
:100A5C000000000000000000000000000100000089
:100A6C000000010001000100000000000000000077
:100A7C00000000000000000000000000000000006A
:100A8C00000000000000000000000000000000005A
:00000001FF
